{
	"Solidity Advance/5struct.sol": {
		"demo": {
			"abi": [
				{
					"inputs": [
						{
							"internalType": "string",
							"name": "_name",
							"type": "string"
						},
						{
							"internalType": "uint256",
							"name": "_roll",
							"type": "uint256"
						},
						{
							"internalType": "bool",
							"name": "_pass",
							"type": "bool"
						}
					],
					"name": "insertStudentData",
					"outputs": [],
					"stateMutability": "nonpayable",
					"type": "function"
				},
				{
					"inputs": [],
					"name": "returnStudenData",
					"outputs": [
						{
							"components": [
								{
									"internalType": "string",
									"name": "name",
									"type": "string"
								},
								{
									"internalType": "uint256",
									"name": "roll",
									"type": "uint256"
								},
								{
									"internalType": "bool",
									"name": "pass",
									"type": "bool"
								}
							],
							"internalType": "struct demo.Student",
							"name": "",
							"type": "tuple"
						}
					],
					"stateMutability": "view",
					"type": "function"
				},
				{
					"inputs": [],
					"name": "s1",
					"outputs": [
						{
							"internalType": "string",
							"name": "name",
							"type": "string"
						},
						{
							"internalType": "uint256",
							"name": "roll",
							"type": "uint256"
						},
						{
							"internalType": "bool",
							"name": "pass",
							"type": "bool"
						}
					],
					"stateMutability": "view",
					"type": "function"
				}
			],
			"devdoc": {
				"kind": "dev",
				"methods": {},
				"version": 1
			},
			"evm": {
				"assembly": "    /* \"Solidity Advance/5struct.sol\":70:550  contract demo{... */\n  mstore(0x40, 0x80)\n  callvalue\n  dup1\n  iszero\n  tag_1\n  jumpi\n  0x00\n  dup1\n  revert\ntag_1:\n  pop\n  dataSize(sub_0)\n  dup1\n  dataOffset(sub_0)\n  0x00\n  codecopy\n  0x00\n  return\nstop\n\nsub_0: assembly {\n        /* \"Solidity Advance/5struct.sol\":70:550  contract demo{... */\n      mstore(0x40, 0x80)\n      callvalue\n      dup1\n      iszero\n      tag_1\n      jumpi\n      0x00\n      dup1\n      revert\n    tag_1:\n      pop\n      jumpi(tag_2, lt(calldatasize, 0x04))\n      shr(0xe0, calldataload(0x00))\n      dup1\n      0x6cc014de\n      eq\n      tag_3\n      jumpi\n      dup1\n      0xa31f7965\n      eq\n      tag_4\n      jumpi\n      dup1\n      0xab214f6a\n      eq\n      tag_5\n      jumpi\n    tag_2:\n      0x00\n      dup1\n      revert\n        /* \"Solidity Advance/5struct.sol\":182:199  Student public s1 */\n    tag_3:\n      tag_6\n      tag_7\n      jump\t// in\n    tag_6:\n      mload(0x40)\n      tag_8\n      swap4\n      swap3\n      swap2\n      swap1\n      tag_9\n      jump\t// in\n    tag_8:\n      mload(0x40)\n      dup1\n      swap2\n      sub\n      swap1\n      return\n        /* \"Solidity Advance/5struct.sol\":455:547  function returnStudenData() public view returns (Student memory){... */\n    tag_4:\n      tag_10\n      tag_11\n      jump\t// in\n    tag_10:\n      mload(0x40)\n      tag_12\n      swap2\n      swap1\n      tag_13\n      jump\t// in\n    tag_12:\n      mload(0x40)\n      dup1\n      swap2\n      sub\n      swap1\n      return\n        /* \"Solidity Advance/5struct.sol\":208:447  function insertStudentData(string memory _name, uint _roll, bool _pass) public{... */\n    tag_5:\n      tag_14\n      0x04\n      dup1\n      calldatasize\n      sub\n      dup2\n      add\n      swap1\n      tag_15\n      swap2\n      swap1\n      tag_16\n      jump\t// in\n    tag_15:\n      tag_17\n      jump\t// in\n    tag_14:\n      stop\n        /* \"Solidity Advance/5struct.sol\":182:199  Student public s1 */\n    tag_7:\n      0x00\n      dup1\n      0x00\n      add\n      dup1\n      sload\n      tag_18\n      swap1\n      tag_19\n      jump\t// in\n    tag_18:\n      dup1\n      0x1f\n      add\n      0x20\n      dup1\n      swap2\n      div\n      mul\n      0x20\n      add\n      mload(0x40)\n      swap1\n      dup2\n      add\n      0x40\n      mstore\n      dup1\n      swap3\n      swap2\n      swap1\n      dup2\n      dup2\n      mstore\n      0x20\n      add\n      dup3\n      dup1\n      sload\n      tag_20\n      swap1\n      tag_19\n      jump\t// in\n    tag_20:\n      dup1\n      iszero\n      tag_21\n      jumpi\n      dup1\n      0x1f\n      lt\n      tag_22\n      jumpi\n      0x0100\n      dup1\n      dup4\n      sload\n      div\n      mul\n      dup4\n      mstore\n      swap2\n      0x20\n      add\n      swap2\n      jump(tag_21)\n    tag_22:\n      dup3\n      add\n      swap2\n      swap1\n      0x00\n      mstore\n      keccak256(0x00, 0x20)\n      swap1\n    tag_23:\n      dup2\n      sload\n      dup2\n      mstore\n      swap1\n      0x01\n      add\n      swap1\n      0x20\n      add\n      dup1\n      dup4\n      gt\n      tag_23\n      jumpi\n      dup3\n      swap1\n      sub\n      0x1f\n      and\n      dup3\n      add\n      swap2\n    tag_21:\n      pop\n      pop\n      pop\n      pop\n      pop\n      swap1\n      dup1\n      0x01\n      add\n      sload\n      swap1\n      dup1\n      0x02\n      add\n      0x00\n      swap1\n      sload\n      swap1\n      0x0100\n      exp\n      swap1\n      div\n      0xff\n      and\n      swap1\n      pop\n      dup4\n      jump\t// out\n        /* \"Solidity Advance/5struct.sol\":455:547  function returnStudenData() public view returns (Student memory){... */\n    tag_11:\n        /* \"Solidity Advance/5struct.sol\":504:518  Student memory */\n      tag_24\n      tag_25\n      jump\t// in\n    tag_24:\n        /* \"Solidity Advance/5struct.sol\":537:539  s1 */\n      0x00\n        /* \"Solidity Advance/5struct.sol\":530:539  return s1 */\n      mload(0x40)\n      dup1\n      0x60\n      add\n      0x40\n      mstore\n      swap1\n      dup2\n      0x00\n      dup3\n      add\n      dup1\n      sload\n      tag_27\n      swap1\n      tag_19\n      jump\t// in\n    tag_27:\n      dup1\n      0x1f\n      add\n      0x20\n      dup1\n      swap2\n      div\n      mul\n      0x20\n      add\n      mload(0x40)\n      swap1\n      dup2\n      add\n      0x40\n      mstore\n      dup1\n      swap3\n      swap2\n      swap1\n      dup2\n      dup2\n      mstore\n      0x20\n      add\n      dup3\n      dup1\n      sload\n      tag_28\n      swap1\n      tag_19\n      jump\t// in\n    tag_28:\n      dup1\n      iszero\n      tag_29\n      jumpi\n      dup1\n      0x1f\n      lt\n      tag_30\n      jumpi\n      0x0100\n      dup1\n      dup4\n      sload\n      div\n      mul\n      dup4\n      mstore\n      swap2\n      0x20\n      add\n      swap2\n      jump(tag_29)\n    tag_30:\n      dup3\n      add\n      swap2\n      swap1\n      0x00\n      mstore\n      keccak256(0x00, 0x20)\n      swap1\n    tag_31:\n      dup2\n      sload\n      dup2\n      mstore\n      swap1\n      0x01\n      add\n      swap1\n      0x20\n      add\n      dup1\n      dup4\n      gt\n      tag_31\n      jumpi\n      dup3\n      swap1\n      sub\n      0x1f\n      and\n      dup3\n      add\n      swap2\n    tag_29:\n      pop\n      pop\n      pop\n      pop\n      pop\n      dup2\n      mstore\n      0x20\n      add\n      0x01\n      dup3\n      add\n      sload\n      dup2\n      mstore\n      0x20\n      add\n      0x02\n      dup3\n      add\n      0x00\n      swap1\n      sload\n      swap1\n      0x0100\n      exp\n      swap1\n      div\n      0xff\n      and\n      iszero\n      iszero\n      iszero\n      iszero\n      dup2\n      mstore\n      pop\n      pop\n      swap1\n      pop\n        /* \"Solidity Advance/5struct.sol\":455:547  function returnStudenData() public view returns (Student memory){... */\n      swap1\n      jump\t// out\n        /* \"Solidity Advance/5struct.sol\":208:447  function insertStudentData(string memory _name, uint _roll, bool _pass) public{... */\n    tag_17:\n        /* \"Solidity Advance/5struct.sol\":305:310  _name */\n      dup3\n        /* \"Solidity Advance/5struct.sol\":297:299  s1 */\n      0x00\n        /* \"Solidity Advance/5struct.sol\":297:304  s1.name */\n      dup1\n      add\n        /* \"Solidity Advance/5struct.sol\":297:310  s1.name=_name */\n      swap1\n      dup2\n      tag_33\n      swap2\n      swap1\n      tag_34\n      jump\t// in\n    tag_33:\n      pop\n        /* \"Solidity Advance/5struct.sol\":330:335  _roll */\n      dup2\n        /* \"Solidity Advance/5struct.sol\":321:323  s1 */\n      0x00\n        /* \"Solidity Advance/5struct.sol\":321:328  s1.roll */\n      0x01\n      add\n        /* \"Solidity Advance/5struct.sol\":321:335  s1.roll= _roll */\n      dup2\n      swap1\n      sstore\n      pop\n        /* \"Solidity Advance/5struct.sol\":355:360  _pass */\n      dup1\n        /* \"Solidity Advance/5struct.sol\":346:348  s1 */\n      0x00\n        /* \"Solidity Advance/5struct.sol\":346:353  s1.pass */\n      0x02\n      add\n      0x00\n        /* \"Solidity Advance/5struct.sol\":346:360  s1.pass= _pass */\n      0x0100\n      exp\n      dup2\n      sload\n      dup2\n      0xff\n      mul\n      not\n      and\n      swap1\n      dup4\n      iszero\n      iszero\n      mul\n      or\n      swap1\n      sstore\n      pop\n        /* \"Solidity Advance/5struct.sol\":413:439  Student(_name,_roll,_pass) */\n      mload(0x40)\n      dup1\n      0x60\n      add\n      0x40\n      mstore\n      dup1\n        /* \"Solidity Advance/5struct.sol\":421:426  _name */\n      dup5\n        /* \"Solidity Advance/5struct.sol\":413:439  Student(_name,_roll,_pass) */\n      dup2\n      mstore\n      0x20\n      add\n        /* \"Solidity Advance/5struct.sol\":427:432  _roll */\n      dup4\n        /* \"Solidity Advance/5struct.sol\":413:439  Student(_name,_roll,_pass) */\n      dup2\n      mstore\n      0x20\n      add\n        /* \"Solidity Advance/5struct.sol\":433:438  _pass */\n      dup3\n        /* \"Solidity Advance/5struct.sol\":413:439  Student(_name,_roll,_pass) */\n      iszero\n      iszero\n      dup2\n      mstore\n      pop\n        /* \"Solidity Advance/5struct.sol\":409:411  s1 */\n      0x00\n        /* \"Solidity Advance/5struct.sol\":409:439  s1= Student(_name,_roll,_pass) */\n      dup1\n      dup3\n      add\n      mload\n      dup2\n      0x00\n      add\n      swap1\n      dup2\n      tag_35\n      swap2\n      swap1\n      tag_34\n      jump\t// in\n    tag_35:\n      pop\n      0x20\n      dup3\n      add\n      mload\n      dup2\n      0x01\n      add\n      sstore\n      0x40\n      dup3\n      add\n      mload\n      dup2\n      0x02\n      add\n      exp(0x0100, 0x00)\n      dup2\n      sload\n      dup2\n      0xff\n      mul\n      not\n      and\n      swap1\n      dup4\n      iszero\n      iszero\n      mul\n      or\n      swap1\n      sstore\n      pop\n      swap1\n      pop\n      pop\n        /* \"Solidity Advance/5struct.sol\":208:447  function insertStudentData(string memory _name, uint _roll, bool _pass) public{... */\n      pop\n      pop\n      pop\n      jump\t// out\n    tag_25:\n      mload(0x40)\n      dup1\n      0x60\n      add\n      0x40\n      mstore\n      dup1\n      0x60\n      dup2\n      mstore\n      0x20\n      add\n      0x00\n      dup2\n      mstore\n      0x20\n      add\n      iszero(iszero(0x00))\n      dup2\n      mstore\n      pop\n      swap1\n      jump\t// out\n        /* \"#utility.yul\":7:106   */\n    tag_36:\n        /* \"#utility.yul\":59:65   */\n      0x00\n        /* \"#utility.yul\":93:98   */\n      dup2\n        /* \"#utility.yul\":87:99   */\n      mload\n        /* \"#utility.yul\":77:99   */\n      swap1\n      pop\n        /* \"#utility.yul\":7:106   */\n      swap2\n      swap1\n      pop\n      jump\t// out\n        /* \"#utility.yul\":112:281   */\n    tag_37:\n        /* \"#utility.yul\":196:207   */\n      0x00\n        /* \"#utility.yul\":230:236   */\n      dup3\n        /* \"#utility.yul\":225:228   */\n      dup3\n        /* \"#utility.yul\":218:237   */\n      mstore\n        /* \"#utility.yul\":270:274   */\n      0x20\n        /* \"#utility.yul\":265:268   */\n      dup3\n        /* \"#utility.yul\":261:275   */\n      add\n        /* \"#utility.yul\":246:275   */\n      swap1\n      pop\n        /* \"#utility.yul\":112:281   */\n      swap3\n      swap2\n      pop\n      pop\n      jump\t// out\n        /* \"#utility.yul\":287:533   */\n    tag_38:\n        /* \"#utility.yul\":368:369   */\n      0x00\n        /* \"#utility.yul\":378:491   */\n    tag_86:\n        /* \"#utility.yul\":392:398   */\n      dup4\n        /* \"#utility.yul\":389:390   */\n      dup2\n        /* \"#utility.yul\":386:399   */\n      lt\n        /* \"#utility.yul\":378:491   */\n      iszero\n      tag_88\n      jumpi\n        /* \"#utility.yul\":477:478   */\n      dup1\n        /* \"#utility.yul\":472:475   */\n      dup3\n        /* \"#utility.yul\":468:479   */\n      add\n        /* \"#utility.yul\":462:480   */\n      mload\n        /* \"#utility.yul\":458:459   */\n      dup2\n        /* \"#utility.yul\":453:456   */\n      dup5\n        /* \"#utility.yul\":449:460   */\n      add\n        /* \"#utility.yul\":442:481   */\n      mstore\n        /* \"#utility.yul\":414:416   */\n      0x20\n        /* \"#utility.yul\":411:412   */\n      dup2\n        /* \"#utility.yul\":407:417   */\n      add\n        /* \"#utility.yul\":402:417   */\n      swap1\n      pop\n        /* \"#utility.yul\":378:491   */\n      jump(tag_86)\n    tag_88:\n        /* \"#utility.yul\":525:526   */\n      0x00\n        /* \"#utility.yul\":516:522   */\n      dup5\n        /* \"#utility.yul\":511:514   */\n      dup5\n        /* \"#utility.yul\":507:523   */\n      add\n        /* \"#utility.yul\":500:527   */\n      mstore\n        /* \"#utility.yul\":349:533   */\n      pop\n        /* \"#utility.yul\":287:533   */\n      pop\n      pop\n      pop\n      jump\t// out\n        /* \"#utility.yul\":539:641   */\n    tag_39:\n        /* \"#utility.yul\":580:586   */\n      0x00\n        /* \"#utility.yul\":631:633   */\n      0x1f\n        /* \"#utility.yul\":627:634   */\n      not\n        /* \"#utility.yul\":622:624   */\n      0x1f\n        /* \"#utility.yul\":615:620   */\n      dup4\n        /* \"#utility.yul\":611:625   */\n      add\n        /* \"#utility.yul\":607:635   */\n      and\n        /* \"#utility.yul\":597:635   */\n      swap1\n      pop\n        /* \"#utility.yul\":539:641   */\n      swap2\n      swap1\n      pop\n      jump\t// out\n        /* \"#utility.yul\":647:1024   */\n    tag_40:\n        /* \"#utility.yul\":735:738   */\n      0x00\n        /* \"#utility.yul\":763:802   */\n      tag_91\n        /* \"#utility.yul\":796:801   */\n      dup3\n        /* \"#utility.yul\":763:802   */\n      tag_36\n      jump\t// in\n    tag_91:\n        /* \"#utility.yul\":818:889   */\n      tag_92\n        /* \"#utility.yul\":882:888   */\n      dup2\n        /* \"#utility.yul\":877:880   */\n      dup6\n        /* \"#utility.yul\":818:889   */\n      tag_37\n      jump\t// in\n    tag_92:\n        /* \"#utility.yul\":811:889   */\n      swap4\n      pop\n        /* \"#utility.yul\":898:963   */\n      tag_93\n        /* \"#utility.yul\":956:962   */\n      dup2\n        /* \"#utility.yul\":951:954   */\n      dup6\n        /* \"#utility.yul\":944:948   */\n      0x20\n        /* \"#utility.yul\":937:942   */\n      dup7\n        /* \"#utility.yul\":933:949   */\n      add\n        /* \"#utility.yul\":898:963   */\n      tag_38\n      jump\t// in\n    tag_93:\n        /* \"#utility.yul\":988:1017   */\n      tag_94\n        /* \"#utility.yul\":1010:1016   */\n      dup2\n        /* \"#utility.yul\":988:1017   */\n      tag_39\n      jump\t// in\n    tag_94:\n        /* \"#utility.yul\":983:986   */\n      dup5\n        /* \"#utility.yul\":979:1018   */\n      add\n        /* \"#utility.yul\":972:1018   */\n      swap2\n      pop\n        /* \"#utility.yul\":739:1024   */\n      pop\n        /* \"#utility.yul\":647:1024   */\n      swap3\n      swap2\n      pop\n      pop\n      jump\t// out\n        /* \"#utility.yul\":1030:1107   */\n    tag_41:\n        /* \"#utility.yul\":1067:1074   */\n      0x00\n        /* \"#utility.yul\":1096:1101   */\n      dup2\n        /* \"#utility.yul\":1085:1101   */\n      swap1\n      pop\n        /* \"#utility.yul\":1030:1107   */\n      swap2\n      swap1\n      pop\n      jump\t// out\n        /* \"#utility.yul\":1113:1231   */\n    tag_42:\n        /* \"#utility.yul\":1200:1224   */\n      tag_97\n        /* \"#utility.yul\":1218:1223   */\n      dup2\n        /* \"#utility.yul\":1200:1224   */\n      tag_41\n      jump\t// in\n    tag_97:\n        /* \"#utility.yul\":1195:1198   */\n      dup3\n        /* \"#utility.yul\":1188:1225   */\n      mstore\n        /* \"#utility.yul\":1113:1231   */\n      pop\n      pop\n      jump\t// out\n        /* \"#utility.yul\":1237:1327   */\n    tag_43:\n        /* \"#utility.yul\":1271:1278   */\n      0x00\n        /* \"#utility.yul\":1314:1319   */\n      dup2\n        /* \"#utility.yul\":1307:1320   */\n      iszero\n        /* \"#utility.yul\":1300:1321   */\n      iszero\n        /* \"#utility.yul\":1289:1321   */\n      swap1\n      pop\n        /* \"#utility.yul\":1237:1327   */\n      swap2\n      swap1\n      pop\n      jump\t// out\n        /* \"#utility.yul\":1333:1442   */\n    tag_44:\n        /* \"#utility.yul\":1414:1435   */\n      tag_100\n        /* \"#utility.yul\":1429:1434   */\n      dup2\n        /* \"#utility.yul\":1414:1435   */\n      tag_43\n      jump\t// in\n    tag_100:\n        /* \"#utility.yul\":1409:1412   */\n      dup3\n        /* \"#utility.yul\":1402:1436   */\n      mstore\n        /* \"#utility.yul\":1333:1442   */\n      pop\n      pop\n      jump\t// out\n        /* \"#utility.yul\":1448:1969   */\n    tag_9:\n        /* \"#utility.yul\":1611:1615   */\n      0x00\n        /* \"#utility.yul\":1649:1651   */\n      0x60\n        /* \"#utility.yul\":1638:1647   */\n      dup3\n        /* \"#utility.yul\":1634:1652   */\n      add\n        /* \"#utility.yul\":1626:1652   */\n      swap1\n      pop\n        /* \"#utility.yul\":1698:1707   */\n      dup2\n        /* \"#utility.yul\":1692:1696   */\n      dup2\n        /* \"#utility.yul\":1688:1708   */\n      sub\n        /* \"#utility.yul\":1684:1685   */\n      0x00\n        /* \"#utility.yul\":1673:1682   */\n      dup4\n        /* \"#utility.yul\":1669:1686   */\n      add\n        /* \"#utility.yul\":1662:1709   */\n      mstore\n        /* \"#utility.yul\":1726:1804   */\n      tag_102\n        /* \"#utility.yul\":1799:1803   */\n      dup2\n        /* \"#utility.yul\":1790:1796   */\n      dup7\n        /* \"#utility.yul\":1726:1804   */\n      tag_40\n      jump\t// in\n    tag_102:\n        /* \"#utility.yul\":1718:1804   */\n      swap1\n      pop\n        /* \"#utility.yul\":1814:1886   */\n      tag_103\n        /* \"#utility.yul\":1882:1884   */\n      0x20\n        /* \"#utility.yul\":1871:1880   */\n      dup4\n        /* \"#utility.yul\":1867:1885   */\n      add\n        /* \"#utility.yul\":1858:1864   */\n      dup6\n        /* \"#utility.yul\":1814:1886   */\n      tag_42\n      jump\t// in\n    tag_103:\n        /* \"#utility.yul\":1896:1962   */\n      tag_104\n        /* \"#utility.yul\":1958:1960   */\n      0x40\n        /* \"#utility.yul\":1947:1956   */\n      dup4\n        /* \"#utility.yul\":1943:1961   */\n      add\n        /* \"#utility.yul\":1934:1940   */\n      dup5\n        /* \"#utility.yul\":1896:1962   */\n      tag_44\n      jump\t// in\n    tag_104:\n        /* \"#utility.yul\":1448:1969   */\n      swap5\n      swap4\n      pop\n      pop\n      pop\n      pop\n      jump\t// out\n        /* \"#utility.yul\":1975:2134   */\n    tag_45:\n        /* \"#utility.yul\":2049:2060   */\n      0x00\n        /* \"#utility.yul\":2083:2089   */\n      dup3\n        /* \"#utility.yul\":2078:2081   */\n      dup3\n        /* \"#utility.yul\":2071:2090   */\n      mstore\n        /* \"#utility.yul\":2123:2127   */\n      0x20\n        /* \"#utility.yul\":2118:2121   */\n      dup3\n        /* \"#utility.yul\":2114:2128   */\n      add\n        /* \"#utility.yul\":2099:2128   */\n      swap1\n      pop\n        /* \"#utility.yul\":1975:2134   */\n      swap3\n      swap2\n      pop\n      pop\n      jump\t// out\n        /* \"#utility.yul\":2140:2497   */\n    tag_46:\n        /* \"#utility.yul\":2218:2221   */\n      0x00\n        /* \"#utility.yul\":2246:2285   */\n      tag_107\n        /* \"#utility.yul\":2279:2284   */\n      dup3\n        /* \"#utility.yul\":2246:2285   */\n      tag_36\n      jump\t// in\n    tag_107:\n        /* \"#utility.yul\":2301:2362   */\n      tag_108\n        /* \"#utility.yul\":2355:2361   */\n      dup2\n        /* \"#utility.yul\":2350:2353   */\n      dup6\n        /* \"#utility.yul\":2301:2362   */\n      tag_45\n      jump\t// in\n    tag_108:\n        /* \"#utility.yul\":2294:2362   */\n      swap4\n      pop\n        /* \"#utility.yul\":2371:2436   */\n      tag_109\n        /* \"#utility.yul\":2429:2435   */\n      dup2\n        /* \"#utility.yul\":2424:2427   */\n      dup6\n        /* \"#utility.yul\":2417:2421   */\n      0x20\n        /* \"#utility.yul\":2410:2415   */\n      dup7\n        /* \"#utility.yul\":2406:2422   */\n      add\n        /* \"#utility.yul\":2371:2436   */\n      tag_38\n      jump\t// in\n    tag_109:\n        /* \"#utility.yul\":2461:2490   */\n      tag_110\n        /* \"#utility.yul\":2483:2489   */\n      dup2\n        /* \"#utility.yul\":2461:2490   */\n      tag_39\n      jump\t// in\n    tag_110:\n        /* \"#utility.yul\":2456:2459   */\n      dup5\n        /* \"#utility.yul\":2452:2491   */\n      add\n        /* \"#utility.yul\":2445:2491   */\n      swap2\n      pop\n        /* \"#utility.yul\":2222:2497   */\n      pop\n        /* \"#utility.yul\":2140:2497   */\n      swap3\n      swap2\n      pop\n      pop\n      jump\t// out\n        /* \"#utility.yul\":2503:2611   */\n    tag_47:\n        /* \"#utility.yul\":2580:2604   */\n      tag_112\n        /* \"#utility.yul\":2598:2603   */\n      dup2\n        /* \"#utility.yul\":2580:2604   */\n      tag_41\n      jump\t// in\n    tag_112:\n        /* \"#utility.yul\":2575:2578   */\n      dup3\n        /* \"#utility.yul\":2568:2605   */\n      mstore\n        /* \"#utility.yul\":2503:2611   */\n      pop\n      pop\n      jump\t// out\n        /* \"#utility.yul\":2617:2716   */\n    tag_48:\n        /* \"#utility.yul\":2688:2709   */\n      tag_114\n        /* \"#utility.yul\":2703:2708   */\n      dup2\n        /* \"#utility.yul\":2688:2709   */\n      tag_43\n      jump\t// in\n    tag_114:\n        /* \"#utility.yul\":2683:2686   */\n      dup3\n        /* \"#utility.yul\":2676:2710   */\n      mstore\n        /* \"#utility.yul\":2617:2716   */\n      pop\n      pop\n      jump\t// out\n        /* \"#utility.yul\":2772:3540   */\n    tag_49:\n        /* \"#utility.yul\":2885:2888   */\n      0x00\n        /* \"#utility.yul\":2921:2925   */\n      0x60\n        /* \"#utility.yul\":2916:2919   */\n      dup4\n        /* \"#utility.yul\":2912:2926   */\n      add\n        /* \"#utility.yul\":3008:3012   */\n      0x00\n        /* \"#utility.yul\":3001:3006   */\n      dup4\n        /* \"#utility.yul\":2997:3013   */\n      add\n        /* \"#utility.yul\":2991:3014   */\n      mload\n        /* \"#utility.yul\":3061:3064   */\n      dup5\n        /* \"#utility.yul\":3055:3059   */\n      dup3\n        /* \"#utility.yul\":3051:3065   */\n      sub\n        /* \"#utility.yul\":3044:3048   */\n      0x00\n        /* \"#utility.yul\":3039:3042   */\n      dup7\n        /* \"#utility.yul\":3035:3049   */\n      add\n        /* \"#utility.yul\":3028:3066   */\n      mstore\n        /* \"#utility.yul\":3087:3160   */\n      tag_116\n        /* \"#utility.yul\":3155:3159   */\n      dup3\n        /* \"#utility.yul\":3141:3153   */\n      dup3\n        /* \"#utility.yul\":3087:3160   */\n      tag_46\n      jump\t// in\n    tag_116:\n        /* \"#utility.yul\":3079:3160   */\n      swap2\n      pop\n        /* \"#utility.yul\":2936:3171   */\n      pop\n        /* \"#utility.yul\":3253:3257   */\n      0x20\n        /* \"#utility.yul\":3246:3251   */\n      dup4\n        /* \"#utility.yul\":3242:3258   */\n      add\n        /* \"#utility.yul\":3236:3259   */\n      mload\n        /* \"#utility.yul\":3272:3335   */\n      tag_117\n        /* \"#utility.yul\":3329:3333   */\n      0x20\n        /* \"#utility.yul\":3324:3327   */\n      dup7\n        /* \"#utility.yul\":3320:3334   */\n      add\n        /* \"#utility.yul\":3306:3318   */\n      dup3\n        /* \"#utility.yul\":3272:3335   */\n      tag_47\n      jump\t// in\n    tag_117:\n        /* \"#utility.yul\":3181:3345   */\n      pop\n        /* \"#utility.yul\":3427:3431   */\n      0x40\n        /* \"#utility.yul\":3420:3425   */\n      dup4\n        /* \"#utility.yul\":3416:3432   */\n      add\n        /* \"#utility.yul\":3410:3433   */\n      mload\n        /* \"#utility.yul\":3446:3503   */\n      tag_118\n        /* \"#utility.yul\":3497:3501   */\n      0x40\n        /* \"#utility.yul\":3492:3495   */\n      dup7\n        /* \"#utility.yul\":3488:3502   */\n      add\n        /* \"#utility.yul\":3474:3486   */\n      dup3\n        /* \"#utility.yul\":3446:3503   */\n      tag_48\n      jump\t// in\n    tag_118:\n        /* \"#utility.yul\":3355:3513   */\n      pop\n        /* \"#utility.yul\":3530:3534   */\n      dup1\n        /* \"#utility.yul\":3523:3534   */\n      swap2\n      pop\n        /* \"#utility.yul\":2890:3540   */\n      pop\n        /* \"#utility.yul\":2772:3540   */\n      swap3\n      swap2\n      pop\n      pop\n      jump\t// out\n        /* \"#utility.yul\":3546:3907   */\n    tag_13:\n        /* \"#utility.yul\":3683:3687   */\n      0x00\n        /* \"#utility.yul\":3721:3723   */\n      0x20\n        /* \"#utility.yul\":3710:3719   */\n      dup3\n        /* \"#utility.yul\":3706:3724   */\n      add\n        /* \"#utility.yul\":3698:3724   */\n      swap1\n      pop\n        /* \"#utility.yul\":3770:3779   */\n      dup2\n        /* \"#utility.yul\":3764:3768   */\n      dup2\n        /* \"#utility.yul\":3760:3780   */\n      sub\n        /* \"#utility.yul\":3756:3757   */\n      0x00\n        /* \"#utility.yul\":3745:3754   */\n      dup4\n        /* \"#utility.yul\":3741:3758   */\n      add\n        /* \"#utility.yul\":3734:3781   */\n      mstore\n        /* \"#utility.yul\":3798:3900   */\n      tag_120\n        /* \"#utility.yul\":3895:3899   */\n      dup2\n        /* \"#utility.yul\":3886:3892   */\n      dup5\n        /* \"#utility.yul\":3798:3900   */\n      tag_49\n      jump\t// in\n    tag_120:\n        /* \"#utility.yul\":3790:3900   */\n      swap1\n      pop\n        /* \"#utility.yul\":3546:3907   */\n      swap3\n      swap2\n      pop\n      pop\n      jump\t// out\n        /* \"#utility.yul\":3913:3988   */\n    tag_50:\n        /* \"#utility.yul\":3946:3952   */\n      0x00\n        /* \"#utility.yul\":3979:3981   */\n      0x40\n        /* \"#utility.yul\":3973:3982   */\n      mload\n        /* \"#utility.yul\":3963:3982   */\n      swap1\n      pop\n        /* \"#utility.yul\":3913:3988   */\n      swap1\n      jump\t// out\n        /* \"#utility.yul\":3994:4111   */\n    tag_51:\n        /* \"#utility.yul\":4103:4104   */\n      0x00\n        /* \"#utility.yul\":4100:4101   */\n      dup1\n        /* \"#utility.yul\":4093:4105   */\n      revert\n        /* \"#utility.yul\":4117:4234   */\n    tag_52:\n        /* \"#utility.yul\":4226:4227   */\n      0x00\n        /* \"#utility.yul\":4223:4224   */\n      dup1\n        /* \"#utility.yul\":4216:4228   */\n      revert\n        /* \"#utility.yul\":4240:4357   */\n    tag_53:\n        /* \"#utility.yul\":4349:4350   */\n      0x00\n        /* \"#utility.yul\":4346:4347   */\n      dup1\n        /* \"#utility.yul\":4339:4351   */\n      revert\n        /* \"#utility.yul\":4363:4480   */\n    tag_54:\n        /* \"#utility.yul\":4472:4473   */\n      0x00\n        /* \"#utility.yul\":4469:4470   */\n      dup1\n        /* \"#utility.yul\":4462:4474   */\n      revert\n        /* \"#utility.yul\":4486:4666   */\n    tag_55:\n        /* \"#utility.yul\":4534:4611   */\n      0x4e487b7100000000000000000000000000000000000000000000000000000000\n        /* \"#utility.yul\":4531:4532   */\n      0x00\n        /* \"#utility.yul\":4524:4612   */\n      mstore\n        /* \"#utility.yul\":4631:4635   */\n      0x41\n        /* \"#utility.yul\":4628:4629   */\n      0x04\n        /* \"#utility.yul\":4621:4636   */\n      mstore\n        /* \"#utility.yul\":4655:4659   */\n      0x24\n        /* \"#utility.yul\":4652:4653   */\n      0x00\n        /* \"#utility.yul\":4645:4660   */\n      revert\n        /* \"#utility.yul\":4672:4953   */\n    tag_56:\n        /* \"#utility.yul\":4755:4782   */\n      tag_128\n        /* \"#utility.yul\":4777:4781   */\n      dup3\n        /* \"#utility.yul\":4755:4782   */\n      tag_39\n      jump\t// in\n    tag_128:\n        /* \"#utility.yul\":4747:4753   */\n      dup2\n        /* \"#utility.yul\":4743:4783   */\n      add\n        /* \"#utility.yul\":4885:4891   */\n      dup2\n        /* \"#utility.yul\":4873:4883   */\n      dup2\n        /* \"#utility.yul\":4870:4892   */\n      lt\n        /* \"#utility.yul\":4849:4867   */\n      0xffffffffffffffff\n        /* \"#utility.yul\":4837:4847   */\n      dup3\n        /* \"#utility.yul\":4834:4868   */\n      gt\n        /* \"#utility.yul\":4831:4893   */\n      or\n        /* \"#utility.yul\":4828:4916   */\n      iszero\n      tag_129\n      jumpi\n        /* \"#utility.yul\":4896:4914   */\n      tag_130\n      tag_55\n      jump\t// in\n    tag_130:\n        /* \"#utility.yul\":4828:4916   */\n    tag_129:\n        /* \"#utility.yul\":4936:4946   */\n      dup1\n        /* \"#utility.yul\":4932:4934   */\n      0x40\n        /* \"#utility.yul\":4925:4947   */\n      mstore\n        /* \"#utility.yul\":4715:4953   */\n      pop\n        /* \"#utility.yul\":4672:4953   */\n      pop\n      pop\n      jump\t// out\n        /* \"#utility.yul\":4959:5088   */\n    tag_57:\n        /* \"#utility.yul\":4993:4999   */\n      0x00\n        /* \"#utility.yul\":5020:5040   */\n      tag_132\n      tag_50\n      jump\t// in\n    tag_132:\n        /* \"#utility.yul\":5010:5040   */\n      swap1\n      pop\n        /* \"#utility.yul\":5049:5082   */\n      tag_133\n        /* \"#utility.yul\":5077:5081   */\n      dup3\n        /* \"#utility.yul\":5069:5075   */\n      dup3\n        /* \"#utility.yul\":5049:5082   */\n      tag_56\n      jump\t// in\n    tag_133:\n        /* \"#utility.yul\":4959:5088   */\n      swap2\n      swap1\n      pop\n      jump\t// out\n        /* \"#utility.yul\":5094:5402   */\n    tag_58:\n        /* \"#utility.yul\":5156:5160   */\n      0x00\n        /* \"#utility.yul\":5246:5264   */\n      0xffffffffffffffff\n        /* \"#utility.yul\":5238:5244   */\n      dup3\n        /* \"#utility.yul\":5235:5265   */\n      gt\n        /* \"#utility.yul\":5232:5288   */\n      iszero\n      tag_135\n      jumpi\n        /* \"#utility.yul\":5268:5286   */\n      tag_136\n      tag_55\n      jump\t// in\n    tag_136:\n        /* \"#utility.yul\":5232:5288   */\n    tag_135:\n        /* \"#utility.yul\":5306:5335   */\n      tag_137\n        /* \"#utility.yul\":5328:5334   */\n      dup3\n        /* \"#utility.yul\":5306:5335   */\n      tag_39\n      jump\t// in\n    tag_137:\n        /* \"#utility.yul\":5298:5335   */\n      swap1\n      pop\n        /* \"#utility.yul\":5390:5394   */\n      0x20\n        /* \"#utility.yul\":5384:5388   */\n      dup2\n        /* \"#utility.yul\":5380:5395   */\n      add\n        /* \"#utility.yul\":5372:5395   */\n      swap1\n      pop\n        /* \"#utility.yul\":5094:5402   */\n      swap2\n      swap1\n      pop\n      jump\t// out\n        /* \"#utility.yul\":5408:5554   */\n    tag_59:\n        /* \"#utility.yul\":5505:5511   */\n      dup3\n        /* \"#utility.yul\":5500:5503   */\n      dup2\n        /* \"#utility.yul\":5495:5498   */\n      dup4\n        /* \"#utility.yul\":5482:5512   */\n      calldatacopy\n        /* \"#utility.yul\":5546:5547   */\n      0x00\n        /* \"#utility.yul\":5537:5543   */\n      dup4\n        /* \"#utility.yul\":5532:5535   */\n      dup4\n        /* \"#utility.yul\":5528:5544   */\n      add\n        /* \"#utility.yul\":5521:5548   */\n      mstore\n        /* \"#utility.yul\":5408:5554   */\n      pop\n      pop\n      pop\n      jump\t// out\n        /* \"#utility.yul\":5560:5985   */\n    tag_60:\n        /* \"#utility.yul\":5638:5643   */\n      0x00\n        /* \"#utility.yul\":5663:5729   */\n      tag_140\n        /* \"#utility.yul\":5679:5728   */\n      tag_141\n        /* \"#utility.yul\":5721:5727   */\n      dup5\n        /* \"#utility.yul\":5679:5728   */\n      tag_58\n      jump\t// in\n    tag_141:\n        /* \"#utility.yul\":5663:5729   */\n      tag_57\n      jump\t// in\n    tag_140:\n        /* \"#utility.yul\":5654:5729   */\n      swap1\n      pop\n        /* \"#utility.yul\":5752:5758   */\n      dup3\n        /* \"#utility.yul\":5745:5750   */\n      dup2\n        /* \"#utility.yul\":5738:5759   */\n      mstore\n        /* \"#utility.yul\":5790:5794   */\n      0x20\n        /* \"#utility.yul\":5783:5788   */\n      dup2\n        /* \"#utility.yul\":5779:5795   */\n      add\n        /* \"#utility.yul\":5828:5831   */\n      dup5\n        /* \"#utility.yul\":5819:5825   */\n      dup5\n        /* \"#utility.yul\":5814:5817   */\n      dup5\n        /* \"#utility.yul\":5810:5826   */\n      add\n        /* \"#utility.yul\":5807:5832   */\n      gt\n        /* \"#utility.yul\":5804:5916   */\n      iszero\n      tag_142\n      jumpi\n        /* \"#utility.yul\":5835:5914   */\n      tag_143\n      tag_54\n      jump\t// in\n    tag_143:\n        /* \"#utility.yul\":5804:5916   */\n    tag_142:\n        /* \"#utility.yul\":5925:5979   */\n      tag_144\n        /* \"#utility.yul\":5972:5978   */\n      dup5\n        /* \"#utility.yul\":5967:5970   */\n      dup3\n        /* \"#utility.yul\":5962:5965   */\n      dup6\n        /* \"#utility.yul\":5925:5979   */\n      tag_59\n      jump\t// in\n    tag_144:\n        /* \"#utility.yul\":5644:5985   */\n      pop\n        /* \"#utility.yul\":5560:5985   */\n      swap4\n      swap3\n      pop\n      pop\n      pop\n      jump\t// out\n        /* \"#utility.yul\":6005:6345   */\n    tag_61:\n        /* \"#utility.yul\":6061:6066   */\n      0x00\n        /* \"#utility.yul\":6110:6113   */\n      dup3\n        /* \"#utility.yul\":6103:6107   */\n      0x1f\n        /* \"#utility.yul\":6095:6101   */\n      dup4\n        /* \"#utility.yul\":6091:6108   */\n      add\n        /* \"#utility.yul\":6087:6114   */\n      slt\n        /* \"#utility.yul\":6077:6199   */\n      tag_146\n      jumpi\n        /* \"#utility.yul\":6118:6197   */\n      tag_147\n      tag_53\n      jump\t// in\n    tag_147:\n        /* \"#utility.yul\":6077:6199   */\n    tag_146:\n        /* \"#utility.yul\":6235:6241   */\n      dup2\n        /* \"#utility.yul\":6222:6242   */\n      calldataload\n        /* \"#utility.yul\":6260:6339   */\n      tag_148\n        /* \"#utility.yul\":6335:6338   */\n      dup5\n        /* \"#utility.yul\":6327:6333   */\n      dup3\n        /* \"#utility.yul\":6320:6324   */\n      0x20\n        /* \"#utility.yul\":6312:6318   */\n      dup7\n        /* \"#utility.yul\":6308:6325   */\n      add\n        /* \"#utility.yul\":6260:6339   */\n      tag_60\n      jump\t// in\n    tag_148:\n        /* \"#utility.yul\":6251:6339   */\n      swap2\n      pop\n        /* \"#utility.yul\":6067:6345   */\n      pop\n        /* \"#utility.yul\":6005:6345   */\n      swap3\n      swap2\n      pop\n      pop\n      jump\t// out\n        /* \"#utility.yul\":6351:6473   */\n    tag_62:\n        /* \"#utility.yul\":6424:6448   */\n      tag_150\n        /* \"#utility.yul\":6442:6447   */\n      dup2\n        /* \"#utility.yul\":6424:6448   */\n      tag_41\n      jump\t// in\n    tag_150:\n        /* \"#utility.yul\":6417:6422   */\n      dup2\n        /* \"#utility.yul\":6414:6449   */\n      eq\n        /* \"#utility.yul\":6404:6467   */\n      tag_151\n      jumpi\n        /* \"#utility.yul\":6463:6464   */\n      0x00\n        /* \"#utility.yul\":6460:6461   */\n      dup1\n        /* \"#utility.yul\":6453:6465   */\n      revert\n        /* \"#utility.yul\":6404:6467   */\n    tag_151:\n        /* \"#utility.yul\":6351:6473   */\n      pop\n      jump\t// out\n        /* \"#utility.yul\":6479:6618   */\n    tag_63:\n        /* \"#utility.yul\":6525:6530   */\n      0x00\n        /* \"#utility.yul\":6563:6569   */\n      dup2\n        /* \"#utility.yul\":6550:6570   */\n      calldataload\n        /* \"#utility.yul\":6541:6570   */\n      swap1\n      pop\n        /* \"#utility.yul\":6579:6612   */\n      tag_153\n        /* \"#utility.yul\":6606:6611   */\n      dup2\n        /* \"#utility.yul\":6579:6612   */\n      tag_62\n      jump\t// in\n    tag_153:\n        /* \"#utility.yul\":6479:6618   */\n      swap3\n      swap2\n      pop\n      pop\n      jump\t// out\n        /* \"#utility.yul\":6624:6740   */\n    tag_64:\n        /* \"#utility.yul\":6694:6715   */\n      tag_155\n        /* \"#utility.yul\":6709:6714   */\n      dup2\n        /* \"#utility.yul\":6694:6715   */\n      tag_43\n      jump\t// in\n    tag_155:\n        /* \"#utility.yul\":6687:6692   */\n      dup2\n        /* \"#utility.yul\":6684:6716   */\n      eq\n        /* \"#utility.yul\":6674:6734   */\n      tag_156\n      jumpi\n        /* \"#utility.yul\":6730:6731   */\n      0x00\n        /* \"#utility.yul\":6727:6728   */\n      dup1\n        /* \"#utility.yul\":6720:6732   */\n      revert\n        /* \"#utility.yul\":6674:6734   */\n    tag_156:\n        /* \"#utility.yul\":6624:6740   */\n      pop\n      jump\t// out\n        /* \"#utility.yul\":6746:6879   */\n    tag_65:\n        /* \"#utility.yul\":6789:6794   */\n      0x00\n        /* \"#utility.yul\":6827:6833   */\n      dup2\n        /* \"#utility.yul\":6814:6834   */\n      calldataload\n        /* \"#utility.yul\":6805:6834   */\n      swap1\n      pop\n        /* \"#utility.yul\":6843:6873   */\n      tag_158\n        /* \"#utility.yul\":6867:6872   */\n      dup2\n        /* \"#utility.yul\":6843:6873   */\n      tag_64\n      jump\t// in\n    tag_158:\n        /* \"#utility.yul\":6746:6879   */\n      swap3\n      swap2\n      pop\n      pop\n      jump\t// out\n        /* \"#utility.yul\":6885:7678   */\n    tag_16:\n        /* \"#utility.yul\":6969:6975   */\n      0x00\n        /* \"#utility.yul\":6977:6983   */\n      dup1\n        /* \"#utility.yul\":6985:6991   */\n      0x00\n        /* \"#utility.yul\":7034:7036   */\n      0x60\n        /* \"#utility.yul\":7022:7031   */\n      dup5\n        /* \"#utility.yul\":7013:7020   */\n      dup7\n        /* \"#utility.yul\":7009:7032   */\n      sub\n        /* \"#utility.yul\":7005:7037   */\n      slt\n        /* \"#utility.yul\":7002:7121   */\n      iszero\n      tag_160\n      jumpi\n        /* \"#utility.yul\":7040:7119   */\n      tag_161\n      tag_51\n      jump\t// in\n    tag_161:\n        /* \"#utility.yul\":7002:7121   */\n    tag_160:\n        /* \"#utility.yul\":7188:7189   */\n      0x00\n        /* \"#utility.yul\":7177:7186   */\n      dup5\n        /* \"#utility.yul\":7173:7190   */\n      add\n        /* \"#utility.yul\":7160:7191   */\n      calldataload\n        /* \"#utility.yul\":7218:7236   */\n      0xffffffffffffffff\n        /* \"#utility.yul\":7210:7216   */\n      dup2\n        /* \"#utility.yul\":7207:7237   */\n      gt\n        /* \"#utility.yul\":7204:7321   */\n      iszero\n      tag_162\n      jumpi\n        /* \"#utility.yul\":7240:7319   */\n      tag_163\n      tag_52\n      jump\t// in\n    tag_163:\n        /* \"#utility.yul\":7204:7321   */\n    tag_162:\n        /* \"#utility.yul\":7345:7408   */\n      tag_164\n        /* \"#utility.yul\":7400:7407   */\n      dup7\n        /* \"#utility.yul\":7391:7397   */\n      dup3\n        /* \"#utility.yul\":7380:7389   */\n      dup8\n        /* \"#utility.yul\":7376:7398   */\n      add\n        /* \"#utility.yul\":7345:7408   */\n      tag_61\n      jump\t// in\n    tag_164:\n        /* \"#utility.yul\":7335:7408   */\n      swap4\n      pop\n        /* \"#utility.yul\":7131:7418   */\n      pop\n        /* \"#utility.yul\":7457:7459   */\n      0x20\n        /* \"#utility.yul\":7483:7536   */\n      tag_165\n        /* \"#utility.yul\":7528:7535   */\n      dup7\n        /* \"#utility.yul\":7519:7525   */\n      dup3\n        /* \"#utility.yul\":7508:7517   */\n      dup8\n        /* \"#utility.yul\":7504:7526   */\n      add\n        /* \"#utility.yul\":7483:7536   */\n      tag_63\n      jump\t// in\n    tag_165:\n        /* \"#utility.yul\":7473:7536   */\n      swap3\n      pop\n        /* \"#utility.yul\":7428:7546   */\n      pop\n        /* \"#utility.yul\":7585:7587   */\n      0x40\n        /* \"#utility.yul\":7611:7661   */\n      tag_166\n        /* \"#utility.yul\":7653:7660   */\n      dup7\n        /* \"#utility.yul\":7644:7650   */\n      dup3\n        /* \"#utility.yul\":7633:7642   */\n      dup8\n        /* \"#utility.yul\":7629:7651   */\n      add\n        /* \"#utility.yul\":7611:7661   */\n      tag_65\n      jump\t// in\n    tag_166:\n        /* \"#utility.yul\":7601:7661   */\n      swap2\n      pop\n        /* \"#utility.yul\":7556:7671   */\n      pop\n        /* \"#utility.yul\":6885:7678   */\n      swap3\n      pop\n      swap3\n      pop\n      swap3\n      jump\t// out\n        /* \"#utility.yul\":7684:7864   */\n    tag_66:\n        /* \"#utility.yul\":7732:7809   */\n      0x4e487b7100000000000000000000000000000000000000000000000000000000\n        /* \"#utility.yul\":7729:7730   */\n      0x00\n        /* \"#utility.yul\":7722:7810   */\n      mstore\n        /* \"#utility.yul\":7829:7833   */\n      0x22\n        /* \"#utility.yul\":7826:7827   */\n      0x04\n        /* \"#utility.yul\":7819:7834   */\n      mstore\n        /* \"#utility.yul\":7853:7857   */\n      0x24\n        /* \"#utility.yul\":7850:7851   */\n      0x00\n        /* \"#utility.yul\":7843:7858   */\n      revert\n        /* \"#utility.yul\":7870:8190   */\n    tag_19:\n        /* \"#utility.yul\":7914:7920   */\n      0x00\n        /* \"#utility.yul\":7951:7952   */\n      0x02\n        /* \"#utility.yul\":7945:7949   */\n      dup3\n        /* \"#utility.yul\":7941:7953   */\n      div\n        /* \"#utility.yul\":7931:7953   */\n      swap1\n      pop\n        /* \"#utility.yul\":7998:7999   */\n      0x01\n        /* \"#utility.yul\":7992:7996   */\n      dup3\n        /* \"#utility.yul\":7988:8000   */\n      and\n        /* \"#utility.yul\":8019:8037   */\n      dup1\n        /* \"#utility.yul\":8009:8090   */\n      tag_169\n      jumpi\n        /* \"#utility.yul\":8075:8079   */\n      0x7f\n        /* \"#utility.yul\":8067:8073   */\n      dup3\n        /* \"#utility.yul\":8063:8080   */\n      and\n        /* \"#utility.yul\":8053:8080   */\n      swap2\n      pop\n        /* \"#utility.yul\":8009:8090   */\n    tag_169:\n        /* \"#utility.yul\":8137:8139   */\n      0x20\n        /* \"#utility.yul\":8129:8135   */\n      dup3\n        /* \"#utility.yul\":8126:8140   */\n      lt\n        /* \"#utility.yul\":8106:8124   */\n      dup2\n        /* \"#utility.yul\":8103:8141   */\n      sub\n        /* \"#utility.yul\":8100:8184   */\n      tag_170\n      jumpi\n        /* \"#utility.yul\":8156:8174   */\n      tag_171\n      tag_66\n      jump\t// in\n    tag_171:\n        /* \"#utility.yul\":8100:8184   */\n    tag_170:\n        /* \"#utility.yul\":7921:8190   */\n      pop\n        /* \"#utility.yul\":7870:8190   */\n      swap2\n      swap1\n      pop\n      jump\t// out\n        /* \"#utility.yul\":8196:8337   */\n    tag_67:\n        /* \"#utility.yul\":8245:8249   */\n      0x00\n        /* \"#utility.yul\":8268:8271   */\n      dup2\n        /* \"#utility.yul\":8260:8271   */\n      swap1\n      pop\n        /* \"#utility.yul\":8291:8294   */\n      dup2\n        /* \"#utility.yul\":8288:8289   */\n      0x00\n        /* \"#utility.yul\":8281:8295   */\n      mstore\n        /* \"#utility.yul\":8325:8329   */\n      0x20\n        /* \"#utility.yul\":8322:8323   */\n      0x00\n        /* \"#utility.yul\":8312:8330   */\n      keccak256\n        /* \"#utility.yul\":8304:8330   */\n      swap1\n      pop\n        /* \"#utility.yul\":8196:8337   */\n      swap2\n      swap1\n      pop\n      jump\t// out\n        /* \"#utility.yul\":8343:8436   */\n    tag_68:\n        /* \"#utility.yul\":8380:8386   */\n      0x00\n        /* \"#utility.yul\":8427:8429   */\n      0x20\n        /* \"#utility.yul\":8422:8424   */\n      0x1f\n        /* \"#utility.yul\":8415:8420   */\n      dup4\n        /* \"#utility.yul\":8411:8425   */\n      add\n        /* \"#utility.yul\":8407:8430   */\n      div\n        /* \"#utility.yul\":8397:8430   */\n      swap1\n      pop\n        /* \"#utility.yul\":8343:8436   */\n      swap2\n      swap1\n      pop\n      jump\t// out\n        /* \"#utility.yul\":8442:8549   */\n    tag_69:\n        /* \"#utility.yul\":8486:8494   */\n      0x00\n        /* \"#utility.yul\":8536:8541   */\n      dup3\n        /* \"#utility.yul\":8530:8534   */\n      dup3\n        /* \"#utility.yul\":8526:8542   */\n      shl\n        /* \"#utility.yul\":8505:8542   */\n      swap1\n      pop\n        /* \"#utility.yul\":8442:8549   */\n      swap3\n      swap2\n      pop\n      pop\n      jump\t// out\n        /* \"#utility.yul\":8555:8948   */\n    tag_70:\n        /* \"#utility.yul\":8624:8630   */\n      0x00\n        /* \"#utility.yul\":8674:8675   */\n      0x08\n        /* \"#utility.yul\":8662:8672   */\n      dup4\n        /* \"#utility.yul\":8658:8676   */\n      mul\n        /* \"#utility.yul\":8697:8794   */\n      tag_176\n        /* \"#utility.yul\":8727:8793   */\n      0xffffffffffffffffffffffffffffffffffffffffffffffffffffffffffffffff\n        /* \"#utility.yul\":8716:8725   */\n      dup3\n        /* \"#utility.yul\":8697:8794   */\n      tag_69\n      jump\t// in\n    tag_176:\n        /* \"#utility.yul\":8815:8854   */\n      tag_177\n        /* \"#utility.yul\":8845:8853   */\n      dup7\n        /* \"#utility.yul\":8834:8843   */\n      dup4\n        /* \"#utility.yul\":8815:8854   */\n      tag_69\n      jump\t// in\n    tag_177:\n        /* \"#utility.yul\":8803:8854   */\n      swap6\n      pop\n        /* \"#utility.yul\":8887:8891   */\n      dup1\n        /* \"#utility.yul\":8883:8892   */\n      not\n        /* \"#utility.yul\":8876:8881   */\n      dup5\n        /* \"#utility.yul\":8872:8893   */\n      and\n        /* \"#utility.yul\":8863:8893   */\n      swap4\n      pop\n        /* \"#utility.yul\":8936:8940   */\n      dup1\n        /* \"#utility.yul\":8926:8934   */\n      dup7\n        /* \"#utility.yul\":8922:8941   */\n      and\n        /* \"#utility.yul\":8915:8920   */\n      dup5\n        /* \"#utility.yul\":8912:8942   */\n      or\n        /* \"#utility.yul\":8902:8942   */\n      swap3\n      pop\n        /* \"#utility.yul\":8631:8948   */\n      pop\n      pop\n        /* \"#utility.yul\":8555:8948   */\n      swap4\n      swap3\n      pop\n      pop\n      pop\n      jump\t// out\n        /* \"#utility.yul\":8954:9014   */\n    tag_71:\n        /* \"#utility.yul\":8982:8985   */\n      0x00\n        /* \"#utility.yul\":9003:9008   */\n      dup2\n        /* \"#utility.yul\":8996:9008   */\n      swap1\n      pop\n        /* \"#utility.yul\":8954:9014   */\n      swap2\n      swap1\n      pop\n      jump\t// out\n        /* \"#utility.yul\":9020:9162   */\n    tag_72:\n        /* \"#utility.yul\":9070:9079   */\n      0x00\n        /* \"#utility.yul\":9103:9156   */\n      tag_180\n        /* \"#utility.yul\":9121:9155   */\n      tag_181\n        /* \"#utility.yul\":9130:9154   */\n      tag_182\n        /* \"#utility.yul\":9148:9153   */\n      dup5\n        /* \"#utility.yul\":9130:9154   */\n      tag_41\n      jump\t// in\n    tag_182:\n        /* \"#utility.yul\":9121:9155   */\n      tag_71\n      jump\t// in\n    tag_181:\n        /* \"#utility.yul\":9103:9156   */\n      tag_41\n      jump\t// in\n    tag_180:\n        /* \"#utility.yul\":9090:9156   */\n      swap1\n      pop\n        /* \"#utility.yul\":9020:9162   */\n      swap2\n      swap1\n      pop\n      jump\t// out\n        /* \"#utility.yul\":9168:9243   */\n    tag_73:\n        /* \"#utility.yul\":9211:9214   */\n      0x00\n        /* \"#utility.yul\":9232:9237   */\n      dup2\n        /* \"#utility.yul\":9225:9237   */\n      swap1\n      pop\n        /* \"#utility.yul\":9168:9243   */\n      swap2\n      swap1\n      pop\n      jump\t// out\n        /* \"#utility.yul\":9249:9518   */\n    tag_74:\n        /* \"#utility.yul\":9359:9398   */\n      tag_185\n        /* \"#utility.yul\":9390:9397   */\n      dup4\n        /* \"#utility.yul\":9359:9398   */\n      tag_72\n      jump\t// in\n    tag_185:\n        /* \"#utility.yul\":9420:9511   */\n      tag_186\n        /* \"#utility.yul\":9469:9510   */\n      tag_187\n        /* \"#utility.yul\":9493:9509   */\n      dup3\n        /* \"#utility.yul\":9469:9510   */\n      tag_73\n      jump\t// in\n    tag_187:\n        /* \"#utility.yul\":9461:9467   */\n      dup5\n        /* \"#utility.yul\":9454:9458   */\n      dup5\n        /* \"#utility.yul\":9448:9459   */\n      sload\n        /* \"#utility.yul\":9420:9511   */\n      tag_70\n      jump\t// in\n    tag_186:\n        /* \"#utility.yul\":9414:9418   */\n      dup3\n        /* \"#utility.yul\":9407:9512   */\n      sstore\n        /* \"#utility.yul\":9325:9518   */\n      pop\n        /* \"#utility.yul\":9249:9518   */\n      pop\n      pop\n      pop\n      jump\t// out\n        /* \"#utility.yul\":9524:9597   */\n    tag_75:\n        /* \"#utility.yul\":9569:9572   */\n      0x00\n        /* \"#utility.yul\":9524:9597   */\n      swap1\n      jump\t// out\n        /* \"#utility.yul\":9603:9792   */\n    tag_76:\n        /* \"#utility.yul\":9680:9712   */\n      tag_190\n      tag_75\n      jump\t// in\n    tag_190:\n        /* \"#utility.yul\":9721:9786   */\n      tag_191\n        /* \"#utility.yul\":9779:9785   */\n      dup2\n        /* \"#utility.yul\":9771:9777   */\n      dup5\n        /* \"#utility.yul\":9765:9769   */\n      dup5\n        /* \"#utility.yul\":9721:9786   */\n      tag_74\n      jump\t// in\n    tag_191:\n        /* \"#utility.yul\":9656:9792   */\n      pop\n        /* \"#utility.yul\":9603:9792   */\n      pop\n      pop\n      jump\t// out\n        /* \"#utility.yul\":9798:9984   */\n    tag_77:\n        /* \"#utility.yul\":9858:9978   */\n    tag_193:\n        /* \"#utility.yul\":9875:9878   */\n      dup2\n        /* \"#utility.yul\":9868:9873   */\n      dup2\n        /* \"#utility.yul\":9865:9879   */\n      lt\n        /* \"#utility.yul\":9858:9978   */\n      iszero\n      tag_195\n      jumpi\n        /* \"#utility.yul\":9929:9968   */\n      tag_196\n        /* \"#utility.yul\":9966:9967   */\n      0x00\n        /* \"#utility.yul\":9959:9964   */\n      dup3\n        /* \"#utility.yul\":9929:9968   */\n      tag_76\n      jump\t// in\n    tag_196:\n        /* \"#utility.yul\":9902:9903   */\n      0x01\n        /* \"#utility.yul\":9895:9900   */\n      dup2\n        /* \"#utility.yul\":9891:9904   */\n      add\n        /* \"#utility.yul\":9882:9904   */\n      swap1\n      pop\n        /* \"#utility.yul\":9858:9978   */\n      jump(tag_193)\n    tag_195:\n        /* \"#utility.yul\":9798:9984   */\n      pop\n      pop\n      jump\t// out\n        /* \"#utility.yul\":9990:10533   */\n    tag_78:\n        /* \"#utility.yul\":10091:10093   */\n      0x1f\n        /* \"#utility.yul\":10086:10089   */\n      dup3\n        /* \"#utility.yul\":10083:10094   */\n      gt\n        /* \"#utility.yul\":10080:10526   */\n      iszero\n      tag_198\n      jumpi\n        /* \"#utility.yul\":10125:10163   */\n      tag_199\n        /* \"#utility.yul\":10157:10162   */\n      dup2\n        /* \"#utility.yul\":10125:10163   */\n      tag_67\n      jump\t// in\n    tag_199:\n        /* \"#utility.yul\":10209:10238   */\n      tag_200\n        /* \"#utility.yul\":10227:10237   */\n      dup5\n        /* \"#utility.yul\":10209:10238   */\n      tag_68\n      jump\t// in\n    tag_200:\n        /* \"#utility.yul\":10199:10207   */\n      dup2\n        /* \"#utility.yul\":10195:10239   */\n      add\n        /* \"#utility.yul\":10392:10394   */\n      0x20\n        /* \"#utility.yul\":10380:10390   */\n      dup6\n        /* \"#utility.yul\":10377:10395   */\n      lt\n        /* \"#utility.yul\":10374:10423   */\n      iszero\n      tag_201\n      jumpi\n        /* \"#utility.yul\":10413:10421   */\n      dup2\n        /* \"#utility.yul\":10398:10421   */\n      swap1\n      pop\n        /* \"#utility.yul\":10374:10423   */\n    tag_201:\n        /* \"#utility.yul\":10436:10516   */\n      tag_202\n        /* \"#utility.yul\":10492:10514   */\n      tag_203\n        /* \"#utility.yul\":10510:10513   */\n      dup6\n        /* \"#utility.yul\":10492:10514   */\n      tag_68\n      jump\t// in\n    tag_203:\n        /* \"#utility.yul\":10482:10490   */\n      dup4\n        /* \"#utility.yul\":10478:10515   */\n      add\n        /* \"#utility.yul\":10465:10476   */\n      dup3\n        /* \"#utility.yul\":10436:10516   */\n      tag_77\n      jump\t// in\n    tag_202:\n        /* \"#utility.yul\":10095:10526   */\n      pop\n      pop\n        /* \"#utility.yul\":10080:10526   */\n    tag_198:\n        /* \"#utility.yul\":9990:10533   */\n      pop\n      pop\n      pop\n      jump\t// out\n        /* \"#utility.yul\":10539:10656   */\n    tag_79:\n        /* \"#utility.yul\":10593:10601   */\n      0x00\n        /* \"#utility.yul\":10643:10648   */\n      dup3\n        /* \"#utility.yul\":10637:10641   */\n      dup3\n        /* \"#utility.yul\":10633:10649   */\n      shr\n        /* \"#utility.yul\":10612:10649   */\n      swap1\n      pop\n        /* \"#utility.yul\":10539:10656   */\n      swap3\n      swap2\n      pop\n      pop\n      jump\t// out\n        /* \"#utility.yul\":10662:10831   */\n    tag_80:\n        /* \"#utility.yul\":10706:10712   */\n      0x00\n        /* \"#utility.yul\":10739:10790   */\n      tag_206\n        /* \"#utility.yul\":10787:10788   */\n      0x00\n        /* \"#utility.yul\":10783:10789   */\n      not\n        /* \"#utility.yul\":10775:10780   */\n      dup5\n        /* \"#utility.yul\":10772:10773   */\n      0x08\n        /* \"#utility.yul\":10768:10781   */\n      mul\n        /* \"#utility.yul\":10739:10790   */\n      tag_79\n      jump\t// in\n    tag_206:\n        /* \"#utility.yul\":10735:10791   */\n      not\n        /* \"#utility.yul\":10820:10824   */\n      dup1\n        /* \"#utility.yul\":10814:10818   */\n      dup4\n        /* \"#utility.yul\":10810:10825   */\n      and\n        /* \"#utility.yul\":10800:10825   */\n      swap2\n      pop\n        /* \"#utility.yul\":10713:10831   */\n      pop\n        /* \"#utility.yul\":10662:10831   */\n      swap3\n      swap2\n      pop\n      pop\n      jump\t// out\n        /* \"#utility.yul\":10836:11131   */\n    tag_81:\n        /* \"#utility.yul\":10912:10916   */\n      0x00\n        /* \"#utility.yul\":11058:11087   */\n      tag_208\n        /* \"#utility.yul\":11083:11086   */\n      dup4\n        /* \"#utility.yul\":11077:11081   */\n      dup4\n        /* \"#utility.yul\":11058:11087   */\n      tag_80\n      jump\t// in\n    tag_208:\n        /* \"#utility.yul\":11050:11087   */\n      swap2\n      pop\n        /* \"#utility.yul\":11120:11123   */\n      dup3\n        /* \"#utility.yul\":11117:11118   */\n      0x02\n        /* \"#utility.yul\":11113:11124   */\n      mul\n        /* \"#utility.yul\":11107:11111   */\n      dup3\n        /* \"#utility.yul\":11104:11125   */\n      or\n        /* \"#utility.yul\":11096:11125   */\n      swap1\n      pop\n        /* \"#utility.yul\":10836:11131   */\n      swap3\n      swap2\n      pop\n      pop\n      jump\t// out\n        /* \"#utility.yul\":11136:12531   */\n    tag_34:\n        /* \"#utility.yul\":11253:11290   */\n      tag_210\n        /* \"#utility.yul\":11286:11289   */\n      dup3\n        /* \"#utility.yul\":11253:11290   */\n      tag_36\n      jump\t// in\n    tag_210:\n        /* \"#utility.yul\":11355:11373   */\n      0xffffffffffffffff\n        /* \"#utility.yul\":11347:11353   */\n      dup2\n        /* \"#utility.yul\":11344:11374   */\n      gt\n        /* \"#utility.yul\":11341:11397   */\n      iszero\n      tag_211\n      jumpi\n        /* \"#utility.yul\":11377:11395   */\n      tag_212\n      tag_55\n      jump\t// in\n    tag_212:\n        /* \"#utility.yul\":11341:11397   */\n    tag_211:\n        /* \"#utility.yul\":11421:11459   */\n      tag_213\n        /* \"#utility.yul\":11453:11457   */\n      dup3\n        /* \"#utility.yul\":11447:11458   */\n      sload\n        /* \"#utility.yul\":11421:11459   */\n      tag_19\n      jump\t// in\n    tag_213:\n        /* \"#utility.yul\":11506:11573   */\n      tag_214\n        /* \"#utility.yul\":11566:11572   */\n      dup3\n        /* \"#utility.yul\":11558:11564   */\n      dup3\n        /* \"#utility.yul\":11552:11556   */\n      dup6\n        /* \"#utility.yul\":11506:11573   */\n      tag_78\n      jump\t// in\n    tag_214:\n        /* \"#utility.yul\":11600:11601   */\n      0x00\n        /* \"#utility.yul\":11624:11628   */\n      0x20\n        /* \"#utility.yul\":11611:11628   */\n      swap1\n      pop\n        /* \"#utility.yul\":11656:11658   */\n      0x1f\n        /* \"#utility.yul\":11648:11654   */\n      dup4\n        /* \"#utility.yul\":11645:11659   */\n      gt\n        /* \"#utility.yul\":11673:11674   */\n      0x01\n        /* \"#utility.yul\":11668:12286   */\n      dup2\n      eq\n      tag_216\n      jumpi\n        /* \"#utility.yul\":12330:12331   */\n      0x00\n        /* \"#utility.yul\":12347:12353   */\n      dup5\n        /* \"#utility.yul\":12344:12421   */\n      iszero\n      tag_217\n      jumpi\n        /* \"#utility.yul\":12396:12405   */\n      dup3\n        /* \"#utility.yul\":12391:12394   */\n      dup8\n        /* \"#utility.yul\":12387:12406   */\n      add\n        /* \"#utility.yul\":12381:12407   */\n      mload\n        /* \"#utility.yul\":12372:12407   */\n      swap1\n      pop\n        /* \"#utility.yul\":12344:12421   */\n    tag_217:\n        /* \"#utility.yul\":12447:12514   */\n      tag_218\n        /* \"#utility.yul\":12507:12513   */\n      dup6\n        /* \"#utility.yul\":12500:12505   */\n      dup3\n        /* \"#utility.yul\":12447:12514   */\n      tag_81\n      jump\t// in\n    tag_218:\n        /* \"#utility.yul\":12441:12445   */\n      dup7\n        /* \"#utility.yul\":12434:12515   */\n      sstore\n        /* \"#utility.yul\":12303:12525   */\n      pop\n        /* \"#utility.yul\":11638:12525   */\n      jump(tag_215)\n        /* \"#utility.yul\":11668:12286   */\n    tag_216:\n        /* \"#utility.yul\":11720:11724   */\n      0x1f\n        /* \"#utility.yul\":11716:11725   */\n      not\n        /* \"#utility.yul\":11708:11714   */\n      dup5\n        /* \"#utility.yul\":11704:11726   */\n      and\n        /* \"#utility.yul\":11754:11791   */\n      tag_219\n        /* \"#utility.yul\":11786:11790   */\n      dup7\n        /* \"#utility.yul\":11754:11791   */\n      tag_67\n      jump\t// in\n    tag_219:\n        /* \"#utility.yul\":11813:11814   */\n      0x00\n        /* \"#utility.yul\":11827:12035   */\n    tag_220:\n        /* \"#utility.yul\":11841:11848   */\n      dup3\n        /* \"#utility.yul\":11838:11839   */\n      dup2\n        /* \"#utility.yul\":11835:11849   */\n      lt\n        /* \"#utility.yul\":11827:12035   */\n      iszero\n      tag_222\n      jumpi\n        /* \"#utility.yul\":11920:11929   */\n      dup5\n        /* \"#utility.yul\":11915:11918   */\n      dup10\n        /* \"#utility.yul\":11911:11930   */\n      add\n        /* \"#utility.yul\":11905:11931   */\n      mload\n        /* \"#utility.yul\":11897:11903   */\n      dup3\n        /* \"#utility.yul\":11890:11932   */\n      sstore\n        /* \"#utility.yul\":11971:11972   */\n      0x01\n        /* \"#utility.yul\":11963:11969   */\n      dup3\n        /* \"#utility.yul\":11959:11973   */\n      add\n        /* \"#utility.yul\":11949:11973   */\n      swap2\n      pop\n        /* \"#utility.yul\":12018:12020   */\n      0x20\n        /* \"#utility.yul\":12007:12016   */\n      dup6\n        /* \"#utility.yul\":12003:12021   */\n      add\n        /* \"#utility.yul\":11990:12021   */\n      swap5\n      pop\n        /* \"#utility.yul\":11864:11868   */\n      0x20\n        /* \"#utility.yul\":11861:11862   */\n      dup2\n        /* \"#utility.yul\":11857:11869   */\n      add\n        /* \"#utility.yul\":11852:11869   */\n      swap1\n      pop\n        /* \"#utility.yul\":11827:12035   */\n      jump(tag_220)\n    tag_222:\n        /* \"#utility.yul\":12063:12069   */\n      dup7\n        /* \"#utility.yul\":12054:12061   */\n      dup4\n        /* \"#utility.yul\":12051:12070   */\n      lt\n        /* \"#utility.yul\":12048:12227   */\n      iszero\n      tag_223\n      jumpi\n        /* \"#utility.yul\":12121:12130   */\n      dup5\n        /* \"#utility.yul\":12116:12119   */\n      dup10\n        /* \"#utility.yul\":12112:12131   */\n      add\n        /* \"#utility.yul\":12106:12132   */\n      mload\n        /* \"#utility.yul\":12164:12212   */\n      tag_224\n        /* \"#utility.yul\":12206:12210   */\n      0x1f\n        /* \"#utility.yul\":12198:12204   */\n      dup10\n        /* \"#utility.yul\":12194:12211   */\n      and\n        /* \"#utility.yul\":12183:12192   */\n      dup3\n        /* \"#utility.yul\":12164:12212   */\n      tag_80\n      jump\t// in\n    tag_224:\n        /* \"#utility.yul\":12156:12162   */\n      dup4\n        /* \"#utility.yul\":12149:12213   */\n      sstore\n        /* \"#utility.yul\":12071:12227   */\n      pop\n        /* \"#utility.yul\":12048:12227   */\n    tag_223:\n        /* \"#utility.yul\":12273:12274   */\n      0x01\n        /* \"#utility.yul\":12269:12270   */\n      0x02\n        /* \"#utility.yul\":12261:12267   */\n      dup9\n        /* \"#utility.yul\":12257:12271   */\n      mul\n        /* \"#utility.yul\":12253:12275   */\n      add\n        /* \"#utility.yul\":12247:12251   */\n      dup9\n        /* \"#utility.yul\":12240:12276   */\n      sstore\n        /* \"#utility.yul\":11675:12286   */\n      pop\n      pop\n      pop\n        /* \"#utility.yul\":11638:12525   */\n    tag_215:\n      pop\n        /* \"#utility.yul\":11228:12531   */\n      pop\n      pop\n      pop\n        /* \"#utility.yul\":11136:12531   */\n      pop\n      pop\n      jump\t// out\n\n    auxdata: 0xa264697066735822122034b502371b148e85feba17b1fd15baefb427453d4df7110353211932cd8d18d264736f6c63430008160033\n}\n",
				"bytecode": {
					"linkReferences": {},
					"object": "608060405234801561000f575f80fd5b506109918061001d5f395ff3fe608060405234801561000f575f80fd5b506004361061003f575f3560e01c80636cc014de14610043578063a31f796514610063578063ab214f6a14610081575b5f80fd5b61004b61009d565b60405161005a93929190610386565b60405180910390f35b61006b610145565b6040516100789190610475565b60405180910390f35b61009b60048036038101906100969190610626565b610211565b005b5f805f0180546100ac906106bf565b80601f01602080910402602001604051908101604052809291908181526020018280546100d8906106bf565b80156101235780601f106100fa57610100808354040283529160200191610123565b820191905f5260205f20905b81548152906001019060200180831161010657829003601f168201915b505050505090806001015490806002015f9054906101000a900460ff16905083565b61014d6102a9565b5f6040518060600160405290815f82018054610168906106bf565b80601f0160208091040260200160405190810160405280929190818152602001828054610194906106bf565b80156101df5780601f106101b6576101008083540402835291602001916101df565b820191905f5260205f20905b8154815290600101906020018083116101c257829003601f168201915b5050505050815260200160018201548152602001600282015f9054906101000a900460ff161515151581525050905090565b825f80019081610221919061088c565b50815f60010181905550805f6002015f6101000a81548160ff02191690831515021790555060405180606001604052808481526020018381526020018215158152505f80820151815f019081610277919061088c565b50602082015181600101556040820151816002015f6101000a81548160ff021916908315150217905550905050505050565b6040518060600160405280606081526020015f81526020015f151581525090565b5f81519050919050565b5f82825260208201905092915050565b5f5b838110156103015780820151818401526020810190506102e6565b5f8484015250505050565b5f601f19601f8301169050919050565b5f610326826102ca565b61033081856102d4565b93506103408185602086016102e4565b6103498161030c565b840191505092915050565b5f819050919050565b61036681610354565b82525050565b5f8115159050919050565b6103808161036c565b82525050565b5f6060820190508181035f83015261039e818661031c565b90506103ad602083018561035d565b6103ba6040830184610377565b949350505050565b5f82825260208201905092915050565b5f6103dc826102ca565b6103e681856103c2565b93506103f68185602086016102e4565b6103ff8161030c565b840191505092915050565b61041381610354565b82525050565b6104228161036c565b82525050565b5f606083015f8301518482035f86015261044282826103d2565b9150506020830151610457602086018261040a565b50604083015161046a6040860182610419565b508091505092915050565b5f6020820190508181035f83015261048d8184610428565b905092915050565b5f604051905090565b5f80fd5b5f80fd5b5f80fd5b5f80fd5b7f4e487b71000000000000000000000000000000000000000000000000000000005f52604160045260245ffd5b6104e48261030c565b810181811067ffffffffffffffff82111715610503576105026104ae565b5b80604052505050565b5f610515610495565b905061052182826104db565b919050565b5f67ffffffffffffffff8211156105405761053f6104ae565b5b6105498261030c565b9050602081019050919050565b828183375f83830152505050565b5f61057661057184610526565b61050c565b905082815260208101848484011115610592576105916104aa565b5b61059d848285610556565b509392505050565b5f82601f8301126105b9576105b86104a6565b5b81356105c9848260208601610564565b91505092915050565b6105db81610354565b81146105e5575f80fd5b50565b5f813590506105f6816105d2565b92915050565b6106058161036c565b811461060f575f80fd5b50565b5f81359050610620816105fc565b92915050565b5f805f6060848603121561063d5761063c61049e565b5b5f84013567ffffffffffffffff81111561065a576106596104a2565b5b610666868287016105a5565b9350506020610677868287016105e8565b925050604061068886828701610612565b9150509250925092565b7f4e487b71000000000000000000000000000000000000000000000000000000005f52602260045260245ffd5b5f60028204905060018216806106d657607f821691505b6020821081036106e9576106e8610692565b5b50919050565b5f819050815f5260205f209050919050565b5f6020601f8301049050919050565b5f82821b905092915050565b5f6008830261074b7fffffffffffffffffffffffffffffffffffffffffffffffffffffffffffffffff82610710565b6107558683610710565b95508019841693508086168417925050509392505050565b5f819050919050565b5f61079061078b61078684610354565b61076d565b610354565b9050919050565b5f819050919050565b6107a983610776565b6107bd6107b582610797565b84845461071c565b825550505050565b5f90565b6107d16107c5565b6107dc8184846107a0565b505050565b5b818110156107ff576107f45f826107c9565b6001810190506107e2565b5050565b601f82111561084457610815816106ef565b61081e84610701565b8101602085101561082d578190505b61084161083985610701565b8301826107e1565b50505b505050565b5f82821c905092915050565b5f6108645f1984600802610849565b1980831691505092915050565b5f61087c8383610855565b9150826002028217905092915050565b610895826102ca565b67ffffffffffffffff8111156108ae576108ad6104ae565b5b6108b882546106bf565b6108c3828285610803565b5f60209050601f8311600181146108f4575f84156108e2578287015190505b6108ec8582610871565b865550610953565b601f198416610902866106ef565b5f5b8281101561092957848901518255600182019150602085019450602081019050610904565b868310156109465784890151610942601f891682610855565b8355505b6001600288020188555050505b50505050505056fea264697066735822122034b502371b148e85feba17b1fd15baefb427453d4df7110353211932cd8d18d264736f6c63430008160033",
					"opcodes": "PUSH1 0x80 PUSH1 0x40 MSTORE CALLVALUE DUP1 ISZERO PUSH2 0xF JUMPI PUSH0 DUP1 REVERT JUMPDEST POP PUSH2 0x991 DUP1 PUSH2 0x1D PUSH0 CODECOPY PUSH0 RETURN INVALID PUSH1 0x80 PUSH1 0x40 MSTORE CALLVALUE DUP1 ISZERO PUSH2 0xF JUMPI PUSH0 DUP1 REVERT JUMPDEST POP PUSH1 0x4 CALLDATASIZE LT PUSH2 0x3F JUMPI PUSH0 CALLDATALOAD PUSH1 0xE0 SHR DUP1 PUSH4 0x6CC014DE EQ PUSH2 0x43 JUMPI DUP1 PUSH4 0xA31F7965 EQ PUSH2 0x63 JUMPI DUP1 PUSH4 0xAB214F6A EQ PUSH2 0x81 JUMPI JUMPDEST PUSH0 DUP1 REVERT JUMPDEST PUSH2 0x4B PUSH2 0x9D JUMP JUMPDEST PUSH1 0x40 MLOAD PUSH2 0x5A SWAP4 SWAP3 SWAP2 SWAP1 PUSH2 0x386 JUMP JUMPDEST PUSH1 0x40 MLOAD DUP1 SWAP2 SUB SWAP1 RETURN JUMPDEST PUSH2 0x6B PUSH2 0x145 JUMP JUMPDEST PUSH1 0x40 MLOAD PUSH2 0x78 SWAP2 SWAP1 PUSH2 0x475 JUMP JUMPDEST PUSH1 0x40 MLOAD DUP1 SWAP2 SUB SWAP1 RETURN JUMPDEST PUSH2 0x9B PUSH1 0x4 DUP1 CALLDATASIZE SUB DUP2 ADD SWAP1 PUSH2 0x96 SWAP2 SWAP1 PUSH2 0x626 JUMP JUMPDEST PUSH2 0x211 JUMP JUMPDEST STOP JUMPDEST PUSH0 DUP1 PUSH0 ADD DUP1 SLOAD PUSH2 0xAC SWAP1 PUSH2 0x6BF JUMP JUMPDEST DUP1 PUSH1 0x1F ADD PUSH1 0x20 DUP1 SWAP2 DIV MUL PUSH1 0x20 ADD PUSH1 0x40 MLOAD SWAP1 DUP2 ADD PUSH1 0x40 MSTORE DUP1 SWAP3 SWAP2 SWAP1 DUP2 DUP2 MSTORE PUSH1 0x20 ADD DUP3 DUP1 SLOAD PUSH2 0xD8 SWAP1 PUSH2 0x6BF JUMP JUMPDEST DUP1 ISZERO PUSH2 0x123 JUMPI DUP1 PUSH1 0x1F LT PUSH2 0xFA JUMPI PUSH2 0x100 DUP1 DUP4 SLOAD DIV MUL DUP4 MSTORE SWAP2 PUSH1 0x20 ADD SWAP2 PUSH2 0x123 JUMP JUMPDEST DUP3 ADD SWAP2 SWAP1 PUSH0 MSTORE PUSH1 0x20 PUSH0 KECCAK256 SWAP1 JUMPDEST DUP2 SLOAD DUP2 MSTORE SWAP1 PUSH1 0x1 ADD SWAP1 PUSH1 0x20 ADD DUP1 DUP4 GT PUSH2 0x106 JUMPI DUP3 SWAP1 SUB PUSH1 0x1F AND DUP3 ADD SWAP2 JUMPDEST POP POP POP POP POP SWAP1 DUP1 PUSH1 0x1 ADD SLOAD SWAP1 DUP1 PUSH1 0x2 ADD PUSH0 SWAP1 SLOAD SWAP1 PUSH2 0x100 EXP SWAP1 DIV PUSH1 0xFF AND SWAP1 POP DUP4 JUMP JUMPDEST PUSH2 0x14D PUSH2 0x2A9 JUMP JUMPDEST PUSH0 PUSH1 0x40 MLOAD DUP1 PUSH1 0x60 ADD PUSH1 0x40 MSTORE SWAP1 DUP2 PUSH0 DUP3 ADD DUP1 SLOAD PUSH2 0x168 SWAP1 PUSH2 0x6BF JUMP JUMPDEST DUP1 PUSH1 0x1F ADD PUSH1 0x20 DUP1 SWAP2 DIV MUL PUSH1 0x20 ADD PUSH1 0x40 MLOAD SWAP1 DUP2 ADD PUSH1 0x40 MSTORE DUP1 SWAP3 SWAP2 SWAP1 DUP2 DUP2 MSTORE PUSH1 0x20 ADD DUP3 DUP1 SLOAD PUSH2 0x194 SWAP1 PUSH2 0x6BF JUMP JUMPDEST DUP1 ISZERO PUSH2 0x1DF JUMPI DUP1 PUSH1 0x1F LT PUSH2 0x1B6 JUMPI PUSH2 0x100 DUP1 DUP4 SLOAD DIV MUL DUP4 MSTORE SWAP2 PUSH1 0x20 ADD SWAP2 PUSH2 0x1DF JUMP JUMPDEST DUP3 ADD SWAP2 SWAP1 PUSH0 MSTORE PUSH1 0x20 PUSH0 KECCAK256 SWAP1 JUMPDEST DUP2 SLOAD DUP2 MSTORE SWAP1 PUSH1 0x1 ADD SWAP1 PUSH1 0x20 ADD DUP1 DUP4 GT PUSH2 0x1C2 JUMPI DUP3 SWAP1 SUB PUSH1 0x1F AND DUP3 ADD SWAP2 JUMPDEST POP POP POP POP POP DUP2 MSTORE PUSH1 0x20 ADD PUSH1 0x1 DUP3 ADD SLOAD DUP2 MSTORE PUSH1 0x20 ADD PUSH1 0x2 DUP3 ADD PUSH0 SWAP1 SLOAD SWAP1 PUSH2 0x100 EXP SWAP1 DIV PUSH1 0xFF AND ISZERO ISZERO ISZERO ISZERO DUP2 MSTORE POP POP SWAP1 POP SWAP1 JUMP JUMPDEST DUP3 PUSH0 DUP1 ADD SWAP1 DUP2 PUSH2 0x221 SWAP2 SWAP1 PUSH2 0x88C JUMP JUMPDEST POP DUP2 PUSH0 PUSH1 0x1 ADD DUP2 SWAP1 SSTORE POP DUP1 PUSH0 PUSH1 0x2 ADD PUSH0 PUSH2 0x100 EXP DUP2 SLOAD DUP2 PUSH1 0xFF MUL NOT AND SWAP1 DUP4 ISZERO ISZERO MUL OR SWAP1 SSTORE POP PUSH1 0x40 MLOAD DUP1 PUSH1 0x60 ADD PUSH1 0x40 MSTORE DUP1 DUP5 DUP2 MSTORE PUSH1 0x20 ADD DUP4 DUP2 MSTORE PUSH1 0x20 ADD DUP3 ISZERO ISZERO DUP2 MSTORE POP PUSH0 DUP1 DUP3 ADD MLOAD DUP2 PUSH0 ADD SWAP1 DUP2 PUSH2 0x277 SWAP2 SWAP1 PUSH2 0x88C JUMP JUMPDEST POP PUSH1 0x20 DUP3 ADD MLOAD DUP2 PUSH1 0x1 ADD SSTORE PUSH1 0x40 DUP3 ADD MLOAD DUP2 PUSH1 0x2 ADD PUSH0 PUSH2 0x100 EXP DUP2 SLOAD DUP2 PUSH1 0xFF MUL NOT AND SWAP1 DUP4 ISZERO ISZERO MUL OR SWAP1 SSTORE POP SWAP1 POP POP POP POP POP JUMP JUMPDEST PUSH1 0x40 MLOAD DUP1 PUSH1 0x60 ADD PUSH1 0x40 MSTORE DUP1 PUSH1 0x60 DUP2 MSTORE PUSH1 0x20 ADD PUSH0 DUP2 MSTORE PUSH1 0x20 ADD PUSH0 ISZERO ISZERO DUP2 MSTORE POP SWAP1 JUMP JUMPDEST PUSH0 DUP2 MLOAD SWAP1 POP SWAP2 SWAP1 POP JUMP JUMPDEST PUSH0 DUP3 DUP3 MSTORE PUSH1 0x20 DUP3 ADD SWAP1 POP SWAP3 SWAP2 POP POP JUMP JUMPDEST PUSH0 JUMPDEST DUP4 DUP2 LT ISZERO PUSH2 0x301 JUMPI DUP1 DUP3 ADD MLOAD DUP2 DUP5 ADD MSTORE PUSH1 0x20 DUP2 ADD SWAP1 POP PUSH2 0x2E6 JUMP JUMPDEST PUSH0 DUP5 DUP5 ADD MSTORE POP POP POP POP JUMP JUMPDEST PUSH0 PUSH1 0x1F NOT PUSH1 0x1F DUP4 ADD AND SWAP1 POP SWAP2 SWAP1 POP JUMP JUMPDEST PUSH0 PUSH2 0x326 DUP3 PUSH2 0x2CA JUMP JUMPDEST PUSH2 0x330 DUP2 DUP6 PUSH2 0x2D4 JUMP JUMPDEST SWAP4 POP PUSH2 0x340 DUP2 DUP6 PUSH1 0x20 DUP7 ADD PUSH2 0x2E4 JUMP JUMPDEST PUSH2 0x349 DUP2 PUSH2 0x30C JUMP JUMPDEST DUP5 ADD SWAP2 POP POP SWAP3 SWAP2 POP POP JUMP JUMPDEST PUSH0 DUP2 SWAP1 POP SWAP2 SWAP1 POP JUMP JUMPDEST PUSH2 0x366 DUP2 PUSH2 0x354 JUMP JUMPDEST DUP3 MSTORE POP POP JUMP JUMPDEST PUSH0 DUP2 ISZERO ISZERO SWAP1 POP SWAP2 SWAP1 POP JUMP JUMPDEST PUSH2 0x380 DUP2 PUSH2 0x36C JUMP JUMPDEST DUP3 MSTORE POP POP JUMP JUMPDEST PUSH0 PUSH1 0x60 DUP3 ADD SWAP1 POP DUP2 DUP2 SUB PUSH0 DUP4 ADD MSTORE PUSH2 0x39E DUP2 DUP7 PUSH2 0x31C JUMP JUMPDEST SWAP1 POP PUSH2 0x3AD PUSH1 0x20 DUP4 ADD DUP6 PUSH2 0x35D JUMP JUMPDEST PUSH2 0x3BA PUSH1 0x40 DUP4 ADD DUP5 PUSH2 0x377 JUMP JUMPDEST SWAP5 SWAP4 POP POP POP POP JUMP JUMPDEST PUSH0 DUP3 DUP3 MSTORE PUSH1 0x20 DUP3 ADD SWAP1 POP SWAP3 SWAP2 POP POP JUMP JUMPDEST PUSH0 PUSH2 0x3DC DUP3 PUSH2 0x2CA JUMP JUMPDEST PUSH2 0x3E6 DUP2 DUP6 PUSH2 0x3C2 JUMP JUMPDEST SWAP4 POP PUSH2 0x3F6 DUP2 DUP6 PUSH1 0x20 DUP7 ADD PUSH2 0x2E4 JUMP JUMPDEST PUSH2 0x3FF DUP2 PUSH2 0x30C JUMP JUMPDEST DUP5 ADD SWAP2 POP POP SWAP3 SWAP2 POP POP JUMP JUMPDEST PUSH2 0x413 DUP2 PUSH2 0x354 JUMP JUMPDEST DUP3 MSTORE POP POP JUMP JUMPDEST PUSH2 0x422 DUP2 PUSH2 0x36C JUMP JUMPDEST DUP3 MSTORE POP POP JUMP JUMPDEST PUSH0 PUSH1 0x60 DUP4 ADD PUSH0 DUP4 ADD MLOAD DUP5 DUP3 SUB PUSH0 DUP7 ADD MSTORE PUSH2 0x442 DUP3 DUP3 PUSH2 0x3D2 JUMP JUMPDEST SWAP2 POP POP PUSH1 0x20 DUP4 ADD MLOAD PUSH2 0x457 PUSH1 0x20 DUP7 ADD DUP3 PUSH2 0x40A JUMP JUMPDEST POP PUSH1 0x40 DUP4 ADD MLOAD PUSH2 0x46A PUSH1 0x40 DUP7 ADD DUP3 PUSH2 0x419 JUMP JUMPDEST POP DUP1 SWAP2 POP POP SWAP3 SWAP2 POP POP JUMP JUMPDEST PUSH0 PUSH1 0x20 DUP3 ADD SWAP1 POP DUP2 DUP2 SUB PUSH0 DUP4 ADD MSTORE PUSH2 0x48D DUP2 DUP5 PUSH2 0x428 JUMP JUMPDEST SWAP1 POP SWAP3 SWAP2 POP POP JUMP JUMPDEST PUSH0 PUSH1 0x40 MLOAD SWAP1 POP SWAP1 JUMP JUMPDEST PUSH0 DUP1 REVERT JUMPDEST PUSH0 DUP1 REVERT JUMPDEST PUSH0 DUP1 REVERT JUMPDEST PUSH0 DUP1 REVERT JUMPDEST PUSH32 0x4E487B7100000000000000000000000000000000000000000000000000000000 PUSH0 MSTORE PUSH1 0x41 PUSH1 0x4 MSTORE PUSH1 0x24 PUSH0 REVERT JUMPDEST PUSH2 0x4E4 DUP3 PUSH2 0x30C JUMP JUMPDEST DUP2 ADD DUP2 DUP2 LT PUSH8 0xFFFFFFFFFFFFFFFF DUP3 GT OR ISZERO PUSH2 0x503 JUMPI PUSH2 0x502 PUSH2 0x4AE JUMP JUMPDEST JUMPDEST DUP1 PUSH1 0x40 MSTORE POP POP POP JUMP JUMPDEST PUSH0 PUSH2 0x515 PUSH2 0x495 JUMP JUMPDEST SWAP1 POP PUSH2 0x521 DUP3 DUP3 PUSH2 0x4DB JUMP JUMPDEST SWAP2 SWAP1 POP JUMP JUMPDEST PUSH0 PUSH8 0xFFFFFFFFFFFFFFFF DUP3 GT ISZERO PUSH2 0x540 JUMPI PUSH2 0x53F PUSH2 0x4AE JUMP JUMPDEST JUMPDEST PUSH2 0x549 DUP3 PUSH2 0x30C JUMP JUMPDEST SWAP1 POP PUSH1 0x20 DUP2 ADD SWAP1 POP SWAP2 SWAP1 POP JUMP JUMPDEST DUP3 DUP2 DUP4 CALLDATACOPY PUSH0 DUP4 DUP4 ADD MSTORE POP POP POP JUMP JUMPDEST PUSH0 PUSH2 0x576 PUSH2 0x571 DUP5 PUSH2 0x526 JUMP JUMPDEST PUSH2 0x50C JUMP JUMPDEST SWAP1 POP DUP3 DUP2 MSTORE PUSH1 0x20 DUP2 ADD DUP5 DUP5 DUP5 ADD GT ISZERO PUSH2 0x592 JUMPI PUSH2 0x591 PUSH2 0x4AA JUMP JUMPDEST JUMPDEST PUSH2 0x59D DUP5 DUP3 DUP6 PUSH2 0x556 JUMP JUMPDEST POP SWAP4 SWAP3 POP POP POP JUMP JUMPDEST PUSH0 DUP3 PUSH1 0x1F DUP4 ADD SLT PUSH2 0x5B9 JUMPI PUSH2 0x5B8 PUSH2 0x4A6 JUMP JUMPDEST JUMPDEST DUP2 CALLDATALOAD PUSH2 0x5C9 DUP5 DUP3 PUSH1 0x20 DUP7 ADD PUSH2 0x564 JUMP JUMPDEST SWAP2 POP POP SWAP3 SWAP2 POP POP JUMP JUMPDEST PUSH2 0x5DB DUP2 PUSH2 0x354 JUMP JUMPDEST DUP2 EQ PUSH2 0x5E5 JUMPI PUSH0 DUP1 REVERT JUMPDEST POP JUMP JUMPDEST PUSH0 DUP2 CALLDATALOAD SWAP1 POP PUSH2 0x5F6 DUP2 PUSH2 0x5D2 JUMP JUMPDEST SWAP3 SWAP2 POP POP JUMP JUMPDEST PUSH2 0x605 DUP2 PUSH2 0x36C JUMP JUMPDEST DUP2 EQ PUSH2 0x60F JUMPI PUSH0 DUP1 REVERT JUMPDEST POP JUMP JUMPDEST PUSH0 DUP2 CALLDATALOAD SWAP1 POP PUSH2 0x620 DUP2 PUSH2 0x5FC JUMP JUMPDEST SWAP3 SWAP2 POP POP JUMP JUMPDEST PUSH0 DUP1 PUSH0 PUSH1 0x60 DUP5 DUP7 SUB SLT ISZERO PUSH2 0x63D JUMPI PUSH2 0x63C PUSH2 0x49E JUMP JUMPDEST JUMPDEST PUSH0 DUP5 ADD CALLDATALOAD PUSH8 0xFFFFFFFFFFFFFFFF DUP2 GT ISZERO PUSH2 0x65A JUMPI PUSH2 0x659 PUSH2 0x4A2 JUMP JUMPDEST JUMPDEST PUSH2 0x666 DUP7 DUP3 DUP8 ADD PUSH2 0x5A5 JUMP JUMPDEST SWAP4 POP POP PUSH1 0x20 PUSH2 0x677 DUP7 DUP3 DUP8 ADD PUSH2 0x5E8 JUMP JUMPDEST SWAP3 POP POP PUSH1 0x40 PUSH2 0x688 DUP7 DUP3 DUP8 ADD PUSH2 0x612 JUMP JUMPDEST SWAP2 POP POP SWAP3 POP SWAP3 POP SWAP3 JUMP JUMPDEST PUSH32 0x4E487B7100000000000000000000000000000000000000000000000000000000 PUSH0 MSTORE PUSH1 0x22 PUSH1 0x4 MSTORE PUSH1 0x24 PUSH0 REVERT JUMPDEST PUSH0 PUSH1 0x2 DUP3 DIV SWAP1 POP PUSH1 0x1 DUP3 AND DUP1 PUSH2 0x6D6 JUMPI PUSH1 0x7F DUP3 AND SWAP2 POP JUMPDEST PUSH1 0x20 DUP3 LT DUP2 SUB PUSH2 0x6E9 JUMPI PUSH2 0x6E8 PUSH2 0x692 JUMP JUMPDEST JUMPDEST POP SWAP2 SWAP1 POP JUMP JUMPDEST PUSH0 DUP2 SWAP1 POP DUP2 PUSH0 MSTORE PUSH1 0x20 PUSH0 KECCAK256 SWAP1 POP SWAP2 SWAP1 POP JUMP JUMPDEST PUSH0 PUSH1 0x20 PUSH1 0x1F DUP4 ADD DIV SWAP1 POP SWAP2 SWAP1 POP JUMP JUMPDEST PUSH0 DUP3 DUP3 SHL SWAP1 POP SWAP3 SWAP2 POP POP JUMP JUMPDEST PUSH0 PUSH1 0x8 DUP4 MUL PUSH2 0x74B PUSH32 0xFFFFFFFFFFFFFFFFFFFFFFFFFFFFFFFFFFFFFFFFFFFFFFFFFFFFFFFFFFFFFFFF DUP3 PUSH2 0x710 JUMP JUMPDEST PUSH2 0x755 DUP7 DUP4 PUSH2 0x710 JUMP JUMPDEST SWAP6 POP DUP1 NOT DUP5 AND SWAP4 POP DUP1 DUP7 AND DUP5 OR SWAP3 POP POP POP SWAP4 SWAP3 POP POP POP JUMP JUMPDEST PUSH0 DUP2 SWAP1 POP SWAP2 SWAP1 POP JUMP JUMPDEST PUSH0 PUSH2 0x790 PUSH2 0x78B PUSH2 0x786 DUP5 PUSH2 0x354 JUMP JUMPDEST PUSH2 0x76D JUMP JUMPDEST PUSH2 0x354 JUMP JUMPDEST SWAP1 POP SWAP2 SWAP1 POP JUMP JUMPDEST PUSH0 DUP2 SWAP1 POP SWAP2 SWAP1 POP JUMP JUMPDEST PUSH2 0x7A9 DUP4 PUSH2 0x776 JUMP JUMPDEST PUSH2 0x7BD PUSH2 0x7B5 DUP3 PUSH2 0x797 JUMP JUMPDEST DUP5 DUP5 SLOAD PUSH2 0x71C JUMP JUMPDEST DUP3 SSTORE POP POP POP POP JUMP JUMPDEST PUSH0 SWAP1 JUMP JUMPDEST PUSH2 0x7D1 PUSH2 0x7C5 JUMP JUMPDEST PUSH2 0x7DC DUP2 DUP5 DUP5 PUSH2 0x7A0 JUMP JUMPDEST POP POP POP JUMP JUMPDEST JUMPDEST DUP2 DUP2 LT ISZERO PUSH2 0x7FF JUMPI PUSH2 0x7F4 PUSH0 DUP3 PUSH2 0x7C9 JUMP JUMPDEST PUSH1 0x1 DUP2 ADD SWAP1 POP PUSH2 0x7E2 JUMP JUMPDEST POP POP JUMP JUMPDEST PUSH1 0x1F DUP3 GT ISZERO PUSH2 0x844 JUMPI PUSH2 0x815 DUP2 PUSH2 0x6EF JUMP JUMPDEST PUSH2 0x81E DUP5 PUSH2 0x701 JUMP JUMPDEST DUP2 ADD PUSH1 0x20 DUP6 LT ISZERO PUSH2 0x82D JUMPI DUP2 SWAP1 POP JUMPDEST PUSH2 0x841 PUSH2 0x839 DUP6 PUSH2 0x701 JUMP JUMPDEST DUP4 ADD DUP3 PUSH2 0x7E1 JUMP JUMPDEST POP POP JUMPDEST POP POP POP JUMP JUMPDEST PUSH0 DUP3 DUP3 SHR SWAP1 POP SWAP3 SWAP2 POP POP JUMP JUMPDEST PUSH0 PUSH2 0x864 PUSH0 NOT DUP5 PUSH1 0x8 MUL PUSH2 0x849 JUMP JUMPDEST NOT DUP1 DUP4 AND SWAP2 POP POP SWAP3 SWAP2 POP POP JUMP JUMPDEST PUSH0 PUSH2 0x87C DUP4 DUP4 PUSH2 0x855 JUMP JUMPDEST SWAP2 POP DUP3 PUSH1 0x2 MUL DUP3 OR SWAP1 POP SWAP3 SWAP2 POP POP JUMP JUMPDEST PUSH2 0x895 DUP3 PUSH2 0x2CA JUMP JUMPDEST PUSH8 0xFFFFFFFFFFFFFFFF DUP2 GT ISZERO PUSH2 0x8AE JUMPI PUSH2 0x8AD PUSH2 0x4AE JUMP JUMPDEST JUMPDEST PUSH2 0x8B8 DUP3 SLOAD PUSH2 0x6BF JUMP JUMPDEST PUSH2 0x8C3 DUP3 DUP3 DUP6 PUSH2 0x803 JUMP JUMPDEST PUSH0 PUSH1 0x20 SWAP1 POP PUSH1 0x1F DUP4 GT PUSH1 0x1 DUP2 EQ PUSH2 0x8F4 JUMPI PUSH0 DUP5 ISZERO PUSH2 0x8E2 JUMPI DUP3 DUP8 ADD MLOAD SWAP1 POP JUMPDEST PUSH2 0x8EC DUP6 DUP3 PUSH2 0x871 JUMP JUMPDEST DUP7 SSTORE POP PUSH2 0x953 JUMP JUMPDEST PUSH1 0x1F NOT DUP5 AND PUSH2 0x902 DUP7 PUSH2 0x6EF JUMP JUMPDEST PUSH0 JUMPDEST DUP3 DUP2 LT ISZERO PUSH2 0x929 JUMPI DUP5 DUP10 ADD MLOAD DUP3 SSTORE PUSH1 0x1 DUP3 ADD SWAP2 POP PUSH1 0x20 DUP6 ADD SWAP5 POP PUSH1 0x20 DUP2 ADD SWAP1 POP PUSH2 0x904 JUMP JUMPDEST DUP7 DUP4 LT ISZERO PUSH2 0x946 JUMPI DUP5 DUP10 ADD MLOAD PUSH2 0x942 PUSH1 0x1F DUP10 AND DUP3 PUSH2 0x855 JUMP JUMPDEST DUP4 SSTORE POP JUMPDEST PUSH1 0x1 PUSH1 0x2 DUP9 MUL ADD DUP9 SSTORE POP POP POP JUMPDEST POP POP POP POP POP POP JUMP INVALID LOG2 PUSH5 0x6970667358 0x22 SLT KECCAK256 CALLVALUE 0xB5 MUL CALLDATACOPY SHL EQ DUP15 DUP6 INVALID 0xBA OR 0xB1 REVERT ISZERO 0xBA 0xEF 0xB4 0x27 GASLIMIT RETURNDATASIZE 0x4D 0xF7 GT SUB MSTORE8 0x21 NOT ORIGIN 0xCD DUP14 XOR 0xD2 PUSH5 0x736F6C6343 STOP ADDMOD AND STOP CALLER "
				},
				"gasEstimates": {
					"creation": {
						"codeDepositCost": "489800",
						"executionCost": "522",
						"totalCost": "490322"
					},
					"external": {
						"insertStudentData(string,uint256,bool)": "infinite",
						"returnStudenData()": "infinite",
						"s1()": "infinite"
					}
				},
				"methodIdentifiers": {
					"insertStudentData(string,uint256,bool)": "ab214f6a",
					"returnStudenData()": "a31f7965",
					"s1()": "6cc014de"
				}
			},
			"storageLayout": {
				"storage": [
					{
						"astId": 11,
						"contract": "Solidity Advance/5struct.sol:demo",
						"label": "s1",
						"offset": 0,
						"slot": "0",
						"type": "t_struct(Student)8_storage"
					}
				],
				"types": {
					"t_bool": {
						"encoding": "inplace",
						"label": "bool",
						"numberOfBytes": "1"
					},
					"t_string_storage": {
						"encoding": "bytes",
						"label": "string",
						"numberOfBytes": "32"
					},
					"t_struct(Student)8_storage": {
						"encoding": "inplace",
						"label": "struct demo.Student",
						"members": [
							{
								"astId": 3,
								"contract": "Solidity Advance/5struct.sol:demo",
								"label": "name",
								"offset": 0,
								"slot": "0",
								"type": "t_string_storage"
							},
							{
								"astId": 5,
								"contract": "Solidity Advance/5struct.sol:demo",
								"label": "roll",
								"offset": 0,
								"slot": "1",
								"type": "t_uint256"
							},
							{
								"astId": 7,
								"contract": "Solidity Advance/5struct.sol:demo",
								"label": "pass",
								"offset": 0,
								"slot": "2",
								"type": "t_bool"
							}
						],
						"numberOfBytes": "96"
					},
					"t_uint256": {
						"encoding": "inplace",
						"label": "uint256",
						"numberOfBytes": "32"
					}
				}
			},
			"userdoc": {
				"kind": "user",
				"methods": {},
				"version": 1
			}
		}
	}
}