{
	"Solidity Advance/1memoryArea.sol": {
		"memArea": {
			"abi": [
				{
					"inputs": [
						{
							"internalType": "uint256",
							"name": "",
							"type": "uint256"
						}
					],
					"name": "arr",
					"outputs": [
						{
							"internalType": "uint256",
							"name": "",
							"type": "uint256"
						}
					],
					"stateMutability": "view",
					"type": "function"
				},
				{
					"inputs": [
						{
							"internalType": "uint256[3]",
							"name": "brr",
							"type": "uint256[3]"
						}
					],
					"name": "multiply",
					"outputs": [],
					"stateMutability": "pure",
					"type": "function"
				},
				{
					"inputs": [],
					"name": "returnArr",
					"outputs": [
						{
							"internalType": "uint256[3]",
							"name": "",
							"type": "uint256[3]"
						}
					],
					"stateMutability": "view",
					"type": "function"
				}
			],
			"devdoc": {
				"kind": "dev",
				"methods": {},
				"version": 1
			},
			"evm": {
				"assembly": "    /* \"Solidity Advance/1memoryArea.sol\":70:439  contract memArea{... */\n  mstore(0x40, 0x80)\n    /* \"Solidity Advance/1memoryArea.sol\":150:181  uint[3] public arr = [10,20,30] */\n  mload(0x40)\n  dup1\n  0x60\n  add\n  0x40\n  mstore\n  dup1\n    /* \"Solidity Advance/1memoryArea.sol\":172:174  10 */\n  0x0a\n    /* \"Solidity Advance/1memoryArea.sol\":150:181  uint[3] public arr = [10,20,30] */\n  0xff\n  and\n  dup2\n  mstore\n  0x20\n  add\n    /* \"Solidity Advance/1memoryArea.sol\":175:177  20 */\n  0x14\n    /* \"Solidity Advance/1memoryArea.sol\":150:181  uint[3] public arr = [10,20,30] */\n  0xff\n  and\n  dup2\n  mstore\n  0x20\n  add\n    /* \"Solidity Advance/1memoryArea.sol\":178:180  30 */\n  0x1e\n    /* \"Solidity Advance/1memoryArea.sol\":150:181  uint[3] public arr = [10,20,30] */\n  0xff\n  and\n  dup2\n  mstore\n  pop\n  0x00\n  swap1\n  0x03\n  tag_1\n  swap3\n  swap2\n  swap1\n  tag_2\n  jump\t// in\ntag_1:\n  pop\n    /* \"Solidity Advance/1memoryArea.sol\":70:439  contract memArea{... */\n  callvalue\n  dup1\n  iszero\n  tag_3\n  jumpi\n  0x00\n  dup1\n  revert\ntag_3:\n  pop\n  jump(tag_4)\ntag_2:\n  dup3\n  0x03\n  dup2\n  add\n  swap3\n  dup3\n  iszero\n  tag_5\n  jumpi\n  swap2\n  0x20\n  mul\n  dup3\n  add\ntag_6:\n  dup3\n  dup2\n  gt\n  iszero\n  tag_7\n  jumpi\n  dup3\n  mload\n  dup3\n  swap1\n  0xff\n  and\n  swap1\n  sstore\n  swap2\n  0x20\n  add\n  swap2\n  swap1\n  0x01\n  add\n  swap1\n  jump(tag_6)\ntag_7:\ntag_5:\n  pop\n  swap1\n  pop\n  tag_8\n  swap2\n  swap1\n  tag_9\n  jump\t// in\ntag_8:\n  pop\n  swap1\n  jump\t// out\ntag_9:\ntag_10:\n  dup1\n  dup3\n  gt\n  iszero\n  tag_11\n  jumpi\n  0x00\n  dup2\n  0x00\n  swap1\n  sstore\n  pop\n  0x01\n  add\n  jump(tag_10)\ntag_11:\n  pop\n  swap1\n  jump\t// out\ntag_4:\n  dataSize(sub_0)\n  dup1\n  dataOffset(sub_0)\n  0x00\n  codecopy\n  0x00\n  return\nstop\n\nsub_0: assembly {\n        /* \"Solidity Advance/1memoryArea.sol\":70:439  contract memArea{... */\n      mstore(0x40, 0x80)\n      callvalue\n      dup1\n      iszero\n      tag_1\n      jumpi\n      0x00\n      dup1\n      revert\n    tag_1:\n      pop\n      jumpi(tag_2, lt(calldatasize, 0x04))\n      shr(0xe0, calldataload(0x00))\n      dup1\n      0x71e5ee5f\n      eq\n      tag_3\n      jumpi\n      dup1\n      0x88046c6a\n      eq\n      tag_4\n      jumpi\n      dup1\n      0xfc2b9690\n      eq\n      tag_5\n      jumpi\n    tag_2:\n      0x00\n      dup1\n      revert\n        /* \"Solidity Advance/1memoryArea.sol\":150:181  uint[3] public arr = [10,20,30] */\n    tag_3:\n      tag_6\n      0x04\n      dup1\n      calldatasize\n      sub\n      dup2\n      add\n      swap1\n      tag_7\n      swap2\n      swap1\n      tag_8\n      jump\t// in\n    tag_7:\n      tag_9\n      jump\t// in\n    tag_6:\n      mload(0x40)\n      tag_10\n      swap2\n      swap1\n      tag_11\n      jump\t// in\n    tag_10:\n      mload(0x40)\n      dup1\n      swap2\n      sub\n      swap1\n      return\n        /* \"Solidity Advance/1memoryArea.sol\":349:434  function returnArr() public view returns(uint[3] memory){... */\n    tag_4:\n      tag_12\n      tag_13\n      jump\t// in\n    tag_12:\n      mload(0x40)\n      tag_14\n      swap2\n      swap1\n      tag_15\n      jump\t// in\n    tag_14:\n      mload(0x40)\n      dup1\n      swap2\n      sub\n      swap1\n      return\n        /* \"Solidity Advance/1memoryArea.sol\":243:341  function multiply(uint[3] memory brr) public pure {... */\n    tag_5:\n      tag_16\n      0x04\n      dup1\n      calldatasize\n      sub\n      dup2\n      add\n      swap1\n      tag_17\n      swap2\n      swap1\n      tag_18\n      jump\t// in\n    tag_17:\n      tag_19\n      jump\t// in\n    tag_16:\n      stop\n        /* \"Solidity Advance/1memoryArea.sol\":150:181  uint[3] public arr = [10,20,30] */\n    tag_9:\n      0x00\n      dup2\n      0x03\n      dup2\n      lt\n      tag_20\n      jumpi\n      0x00\n      dup1\n      revert\n    tag_20:\n      add\n      0x00\n      swap2\n      pop\n      swap1\n      pop\n      sload\n      dup2\n      jump\t// out\n        /* \"Solidity Advance/1memoryArea.sol\":349:434  function returnArr() public view returns(uint[3] memory){... */\n    tag_13:\n        /* \"Solidity Advance/1memoryArea.sol\":390:404  uint[3] memory */\n      tag_22\n      tag_23\n      jump\t// in\n    tag_22:\n        /* \"Solidity Advance/1memoryArea.sol\":423:426  arr */\n      0x00\n        /* \"Solidity Advance/1memoryArea.sol\":416:426  return arr */\n      0x03\n      dup1\n      0x20\n      mul\n      mload(0x40)\n      swap1\n      dup2\n      add\n      0x40\n      mstore\n      dup1\n      swap3\n      swap2\n      swap1\n      dup3\n      0x03\n      dup1\n      iszero\n      tag_25\n      jumpi\n      0x20\n      mul\n      dup3\n      add\n      swap2\n    tag_26:\n      dup2\n      sload\n      dup2\n      mstore\n      0x20\n      add\n      swap1\n      0x01\n      add\n      swap1\n      dup1\n      dup4\n      gt\n      tag_26\n      jumpi\n    tag_25:\n      pop\n      pop\n      pop\n      pop\n      pop\n      swap1\n      pop\n        /* \"Solidity Advance/1memoryArea.sol\":349:434  function returnArr() public view returns(uint[3] memory){... */\n      swap1\n      jump\t// out\n        /* \"Solidity Advance/1memoryArea.sol\":243:341  function multiply(uint[3] memory brr) public pure {... */\n    tag_19:\n        /* \"Solidity Advance/1memoryArea.sol\":315:318  brr */\n      dup1\n        /* \"Solidity Advance/1memoryArea.sol\":319:320  1 */\n      0x01\n        /* \"Solidity Advance/1memoryArea.sol\":315:321  brr[1] */\n      0x03\n      dup2\n      lt\n      tag_28\n      jumpi\n      tag_29\n      tag_30\n      jump\t// in\n    tag_29:\n    tag_28:\n      0x20\n      mul\n      add\n      mload\n        /* \"Solidity Advance/1memoryArea.sol\":313:314  2 */\n      0x02\n        /* \"Solidity Advance/1memoryArea.sol\":313:321  2*brr[1] */\n      tag_31\n      swap2\n      swap1\n      tag_32\n      jump\t// in\n    tag_31:\n        /* \"Solidity Advance/1memoryArea.sol\":304:307  brr */\n      dup2\n        /* \"Solidity Advance/1memoryArea.sol\":308:309  1 */\n      0x01\n        /* \"Solidity Advance/1memoryArea.sol\":304:310  brr[1] */\n      0x03\n      dup2\n      lt\n      tag_33\n      jumpi\n      tag_34\n      tag_30\n      jump\t// in\n    tag_34:\n    tag_33:\n      0x20\n      mul\n      add\n        /* \"Solidity Advance/1memoryArea.sol\":304:321  brr[1] = 2*brr[1] */\n      dup2\n      dup2\n      mstore\n      pop\n      pop\n        /* \"Solidity Advance/1memoryArea.sol\":243:341  function multiply(uint[3] memory brr) public pure {... */\n      pop\n      jump\t// out\n    tag_23:\n      mload(0x40)\n      dup1\n      0x60\n      add\n      0x40\n      mstore\n      dup1\n      0x03\n      swap1\n      0x20\n      dup3\n      mul\n      dup1\n      calldatasize\n      dup4\n      calldatacopy\n      dup1\n      dup3\n      add\n      swap2\n      pop\n      pop\n      swap1\n      pop\n      pop\n      swap1\n      jump\t// out\n        /* \"#utility.yul\":7:82   */\n    tag_35:\n        /* \"#utility.yul\":40:46   */\n      0x00\n        /* \"#utility.yul\":73:75   */\n      0x40\n        /* \"#utility.yul\":67:76   */\n      mload\n        /* \"#utility.yul\":57:76   */\n      swap1\n      pop\n        /* \"#utility.yul\":7:82   */\n      swap1\n      jump\t// out\n        /* \"#utility.yul\":88:205   */\n    tag_36:\n        /* \"#utility.yul\":197:198   */\n      0x00\n        /* \"#utility.yul\":194:195   */\n      dup1\n        /* \"#utility.yul\":187:199   */\n      revert\n        /* \"#utility.yul\":334:411   */\n    tag_38:\n        /* \"#utility.yul\":371:378   */\n      0x00\n        /* \"#utility.yul\":400:405   */\n      dup2\n        /* \"#utility.yul\":389:405   */\n      swap1\n      pop\n        /* \"#utility.yul\":334:411   */\n      swap2\n      swap1\n      pop\n      jump\t// out\n        /* \"#utility.yul\":417:539   */\n    tag_39:\n        /* \"#utility.yul\":490:514   */\n      tag_65\n        /* \"#utility.yul\":508:513   */\n      dup2\n        /* \"#utility.yul\":490:514   */\n      tag_38\n      jump\t// in\n    tag_65:\n        /* \"#utility.yul\":483:488   */\n      dup2\n        /* \"#utility.yul\":480:515   */\n      eq\n        /* \"#utility.yul\":470:533   */\n      tag_66\n      jumpi\n        /* \"#utility.yul\":529:530   */\n      0x00\n        /* \"#utility.yul\":526:527   */\n      dup1\n        /* \"#utility.yul\":519:531   */\n      revert\n        /* \"#utility.yul\":470:533   */\n    tag_66:\n        /* \"#utility.yul\":417:539   */\n      pop\n      jump\t// out\n        /* \"#utility.yul\":545:684   */\n    tag_40:\n        /* \"#utility.yul\":591:596   */\n      0x00\n        /* \"#utility.yul\":629:635   */\n      dup2\n        /* \"#utility.yul\":616:636   */\n      calldataload\n        /* \"#utility.yul\":607:636   */\n      swap1\n      pop\n        /* \"#utility.yul\":645:678   */\n      tag_68\n        /* \"#utility.yul\":672:677   */\n      dup2\n        /* \"#utility.yul\":645:678   */\n      tag_39\n      jump\t// in\n    tag_68:\n        /* \"#utility.yul\":545:684   */\n      swap3\n      swap2\n      pop\n      pop\n      jump\t// out\n        /* \"#utility.yul\":690:1019   */\n    tag_8:\n        /* \"#utility.yul\":749:755   */\n      0x00\n        /* \"#utility.yul\":798:800   */\n      0x20\n        /* \"#utility.yul\":786:795   */\n      dup3\n        /* \"#utility.yul\":777:784   */\n      dup5\n        /* \"#utility.yul\":773:796   */\n      sub\n        /* \"#utility.yul\":769:801   */\n      slt\n        /* \"#utility.yul\":766:885   */\n      iszero\n      tag_70\n      jumpi\n        /* \"#utility.yul\":804:883   */\n      tag_71\n      tag_36\n      jump\t// in\n    tag_71:\n        /* \"#utility.yul\":766:885   */\n    tag_70:\n        /* \"#utility.yul\":924:925   */\n      0x00\n        /* \"#utility.yul\":949:1002   */\n      tag_72\n        /* \"#utility.yul\":994:1001   */\n      dup5\n        /* \"#utility.yul\":985:991   */\n      dup3\n        /* \"#utility.yul\":974:983   */\n      dup6\n        /* \"#utility.yul\":970:992   */\n      add\n        /* \"#utility.yul\":949:1002   */\n      tag_40\n      jump\t// in\n    tag_72:\n        /* \"#utility.yul\":939:1002   */\n      swap2\n      pop\n        /* \"#utility.yul\":895:1012   */\n      pop\n        /* \"#utility.yul\":690:1019   */\n      swap3\n      swap2\n      pop\n      pop\n      jump\t// out\n        /* \"#utility.yul\":1025:1143   */\n    tag_41:\n        /* \"#utility.yul\":1112:1136   */\n      tag_74\n        /* \"#utility.yul\":1130:1135   */\n      dup2\n        /* \"#utility.yul\":1112:1136   */\n      tag_38\n      jump\t// in\n    tag_74:\n        /* \"#utility.yul\":1107:1110   */\n      dup3\n        /* \"#utility.yul\":1100:1137   */\n      mstore\n        /* \"#utility.yul\":1025:1143   */\n      pop\n      pop\n      jump\t// out\n        /* \"#utility.yul\":1149:1371   */\n    tag_11:\n        /* \"#utility.yul\":1242:1246   */\n      0x00\n        /* \"#utility.yul\":1280:1282   */\n      0x20\n        /* \"#utility.yul\":1269:1278   */\n      dup3\n        /* \"#utility.yul\":1265:1283   */\n      add\n        /* \"#utility.yul\":1257:1283   */\n      swap1\n      pop\n        /* \"#utility.yul\":1293:1364   */\n      tag_76\n        /* \"#utility.yul\":1361:1362   */\n      0x00\n        /* \"#utility.yul\":1350:1359   */\n      dup4\n        /* \"#utility.yul\":1346:1363   */\n      add\n        /* \"#utility.yul\":1337:1343   */\n      dup5\n        /* \"#utility.yul\":1293:1364   */\n      tag_41\n      jump\t// in\n    tag_76:\n        /* \"#utility.yul\":1149:1371   */\n      swap3\n      swap2\n      pop\n      pop\n      jump\t// out\n        /* \"#utility.yul\":1377:1481   */\n    tag_42:\n        /* \"#utility.yul\":1442:1448   */\n      0x00\n        /* \"#utility.yul\":1470:1474   */\n      0x03\n        /* \"#utility.yul\":1460:1474   */\n      swap1\n      pop\n        /* \"#utility.yul\":1377:1481   */\n      swap2\n      swap1\n      pop\n      jump\t// out\n        /* \"#utility.yul\":1487:1630   */\n    tag_43:\n        /* \"#utility.yul\":1584:1595   */\n      0x00\n        /* \"#utility.yul\":1621:1624   */\n      dup2\n        /* \"#utility.yul\":1606:1624   */\n      swap1\n      pop\n        /* \"#utility.yul\":1487:1630   */\n      swap3\n      swap2\n      pop\n      pop\n      jump\t// out\n        /* \"#utility.yul\":1636:1734   */\n    tag_44:\n        /* \"#utility.yul\":1701:1705   */\n      0x00\n        /* \"#utility.yul\":1724:1727   */\n      dup2\n        /* \"#utility.yul\":1716:1727   */\n      swap1\n      pop\n        /* \"#utility.yul\":1636:1734   */\n      swap2\n      swap1\n      pop\n      jump\t// out\n        /* \"#utility.yul\":1740:1848   */\n    tag_45:\n        /* \"#utility.yul\":1817:1841   */\n      tag_81\n        /* \"#utility.yul\":1835:1840   */\n      dup2\n        /* \"#utility.yul\":1817:1841   */\n      tag_38\n      jump\t// in\n    tag_81:\n        /* \"#utility.yul\":1812:1815   */\n      dup3\n        /* \"#utility.yul\":1805:1842   */\n      mstore\n        /* \"#utility.yul\":1740:1848   */\n      pop\n      pop\n      jump\t// out\n        /* \"#utility.yul\":1854:2033   */\n    tag_46:\n        /* \"#utility.yul\":1923:1933   */\n      0x00\n        /* \"#utility.yul\":1944:1990   */\n      tag_83\n        /* \"#utility.yul\":1986:1989   */\n      dup4\n        /* \"#utility.yul\":1978:1984   */\n      dup4\n        /* \"#utility.yul\":1944:1990   */\n      tag_45\n      jump\t// in\n    tag_83:\n        /* \"#utility.yul\":2022:2026   */\n      0x20\n        /* \"#utility.yul\":2017:2020   */\n      dup4\n        /* \"#utility.yul\":2013:2027   */\n      add\n        /* \"#utility.yul\":1999:2027   */\n      swap1\n      pop\n        /* \"#utility.yul\":1854:2033   */\n      swap3\n      swap2\n      pop\n      pop\n      jump\t// out\n        /* \"#utility.yul\":2039:2150   */\n    tag_47:\n        /* \"#utility.yul\":2107:2111   */\n      0x00\n        /* \"#utility.yul\":2139:2143   */\n      0x20\n        /* \"#utility.yul\":2134:2137   */\n      dup3\n        /* \"#utility.yul\":2130:2144   */\n      add\n        /* \"#utility.yul\":2122:2144   */\n      swap1\n      pop\n        /* \"#utility.yul\":2039:2150   */\n      swap2\n      swap1\n      pop\n      jump\t// out\n        /* \"#utility.yul\":2188:2882   */\n    tag_48:\n        /* \"#utility.yul\":2324:2376   */\n      tag_86\n        /* \"#utility.yul\":2370:2375   */\n      dup2\n        /* \"#utility.yul\":2324:2376   */\n      tag_42\n      jump\t// in\n    tag_86:\n        /* \"#utility.yul\":2392:2476   */\n      tag_87\n        /* \"#utility.yul\":2469:2475   */\n      dup2\n        /* \"#utility.yul\":2464:2467   */\n      dup5\n        /* \"#utility.yul\":2392:2476   */\n      tag_43\n      jump\t// in\n    tag_87:\n        /* \"#utility.yul\":2385:2476   */\n      swap3\n      pop\n        /* \"#utility.yul\":2500:2554   */\n      tag_88\n        /* \"#utility.yul\":2548:2553   */\n      dup3\n        /* \"#utility.yul\":2500:2554   */\n      tag_44\n      jump\t// in\n    tag_88:\n        /* \"#utility.yul\":2577:2584   */\n      dup1\n        /* \"#utility.yul\":2608:2609   */\n      0x00\n        /* \"#utility.yul\":2593:2875   */\n    tag_89:\n        /* \"#utility.yul\":2618:2624   */\n      dup4\n        /* \"#utility.yul\":2615:2616   */\n      dup2\n        /* \"#utility.yul\":2612:2625   */\n      lt\n        /* \"#utility.yul\":2593:2875   */\n      iszero\n      tag_91\n      jumpi\n        /* \"#utility.yul\":2694:2700   */\n      dup2\n        /* \"#utility.yul\":2688:2701   */\n      mload\n        /* \"#utility.yul\":2721:2784   */\n      tag_92\n        /* \"#utility.yul\":2780:2783   */\n      dup8\n        /* \"#utility.yul\":2765:2778   */\n      dup3\n        /* \"#utility.yul\":2721:2784   */\n      tag_46\n      jump\t// in\n    tag_92:\n        /* \"#utility.yul\":2714:2784   */\n      swap7\n      pop\n        /* \"#utility.yul\":2807:2865   */\n      tag_93\n        /* \"#utility.yul\":2858:2864   */\n      dup4\n        /* \"#utility.yul\":2807:2865   */\n      tag_47\n      jump\t// in\n    tag_93:\n        /* \"#utility.yul\":2797:2865   */\n      swap3\n      pop\n        /* \"#utility.yul\":2653:2875   */\n      pop\n        /* \"#utility.yul\":2640:2641   */\n      0x01\n        /* \"#utility.yul\":2637:2638   */\n      dup2\n        /* \"#utility.yul\":2633:2642   */\n      add\n        /* \"#utility.yul\":2628:2642   */\n      swap1\n      pop\n        /* \"#utility.yul\":2593:2875   */\n      jump(tag_89)\n    tag_91:\n        /* \"#utility.yul\":2597:2611   */\n      pop\n        /* \"#utility.yul\":2300:2882   */\n      pop\n      pop\n      pop\n        /* \"#utility.yul\":2188:2882   */\n      pop\n      pop\n      jump\t// out\n        /* \"#utility.yul\":2888:3202   */\n    tag_15:\n        /* \"#utility.yul\":3027:3031   */\n      0x00\n        /* \"#utility.yul\":3065:3067   */\n      0x60\n        /* \"#utility.yul\":3054:3063   */\n      dup3\n        /* \"#utility.yul\":3050:3068   */\n      add\n        /* \"#utility.yul\":3042:3068   */\n      swap1\n      pop\n        /* \"#utility.yul\":3078:3195   */\n      tag_95\n        /* \"#utility.yul\":3192:3193   */\n      0x00\n        /* \"#utility.yul\":3181:3190   */\n      dup4\n        /* \"#utility.yul\":3177:3194   */\n      add\n        /* \"#utility.yul\":3168:3174   */\n      dup5\n        /* \"#utility.yul\":3078:3195   */\n      tag_48\n      jump\t// in\n    tag_95:\n        /* \"#utility.yul\":2888:3202   */\n      swap3\n      swap2\n      pop\n      pop\n      jump\t// out\n        /* \"#utility.yul\":3208:3325   */\n    tag_49:\n        /* \"#utility.yul\":3317:3318   */\n      0x00\n        /* \"#utility.yul\":3314:3315   */\n      dup1\n        /* \"#utility.yul\":3307:3319   */\n      revert\n        /* \"#utility.yul\":3331:3433   */\n    tag_50:\n        /* \"#utility.yul\":3372:3378   */\n      0x00\n        /* \"#utility.yul\":3423:3425   */\n      0x1f\n        /* \"#utility.yul\":3419:3426   */\n      not\n        /* \"#utility.yul\":3414:3416   */\n      0x1f\n        /* \"#utility.yul\":3407:3412   */\n      dup4\n        /* \"#utility.yul\":3403:3417   */\n      add\n        /* \"#utility.yul\":3399:3427   */\n      and\n        /* \"#utility.yul\":3389:3427   */\n      swap1\n      pop\n        /* \"#utility.yul\":3331:3433   */\n      swap2\n      swap1\n      pop\n      jump\t// out\n        /* \"#utility.yul\":3439:3619   */\n    tag_51:\n        /* \"#utility.yul\":3487:3564   */\n      0x4e487b7100000000000000000000000000000000000000000000000000000000\n        /* \"#utility.yul\":3484:3485   */\n      0x00\n        /* \"#utility.yul\":3477:3565   */\n      mstore\n        /* \"#utility.yul\":3584:3588   */\n      0x41\n        /* \"#utility.yul\":3581:3582   */\n      0x04\n        /* \"#utility.yul\":3574:3589   */\n      mstore\n        /* \"#utility.yul\":3608:3612   */\n      0x24\n        /* \"#utility.yul\":3605:3606   */\n      0x00\n        /* \"#utility.yul\":3598:3613   */\n      revert\n        /* \"#utility.yul\":3625:3906   */\n    tag_52:\n        /* \"#utility.yul\":3708:3735   */\n      tag_100\n        /* \"#utility.yul\":3730:3734   */\n      dup3\n        /* \"#utility.yul\":3708:3735   */\n      tag_50\n      jump\t// in\n    tag_100:\n        /* \"#utility.yul\":3700:3706   */\n      dup2\n        /* \"#utility.yul\":3696:3736   */\n      add\n        /* \"#utility.yul\":3838:3844   */\n      dup2\n        /* \"#utility.yul\":3826:3836   */\n      dup2\n        /* \"#utility.yul\":3823:3845   */\n      lt\n        /* \"#utility.yul\":3802:3820   */\n      0xffffffffffffffff\n        /* \"#utility.yul\":3790:3800   */\n      dup3\n        /* \"#utility.yul\":3787:3821   */\n      gt\n        /* \"#utility.yul\":3784:3846   */\n      or\n        /* \"#utility.yul\":3781:3869   */\n      iszero\n      tag_101\n      jumpi\n        /* \"#utility.yul\":3849:3867   */\n      tag_102\n      tag_51\n      jump\t// in\n    tag_102:\n        /* \"#utility.yul\":3781:3869   */\n    tag_101:\n        /* \"#utility.yul\":3889:3899   */\n      dup1\n        /* \"#utility.yul\":3885:3887   */\n      0x40\n        /* \"#utility.yul\":3878:3900   */\n      mstore\n        /* \"#utility.yul\":3668:3906   */\n      pop\n        /* \"#utility.yul\":3625:3906   */\n      pop\n      pop\n      jump\t// out\n        /* \"#utility.yul\":3912:4041   */\n    tag_53:\n        /* \"#utility.yul\":3946:3952   */\n      0x00\n        /* \"#utility.yul\":3973:3993   */\n      tag_104\n      tag_35\n      jump\t// in\n    tag_104:\n        /* \"#utility.yul\":3963:3993   */\n      swap1\n      pop\n        /* \"#utility.yul\":4002:4035   */\n      tag_105\n        /* \"#utility.yul\":4030:4034   */\n      dup3\n        /* \"#utility.yul\":4022:4028   */\n      dup3\n        /* \"#utility.yul\":4002:4035   */\n      tag_52\n      jump\t// in\n    tag_105:\n        /* \"#utility.yul\":3912:4041   */\n      swap2\n      swap1\n      pop\n      jump\t// out\n        /* \"#utility.yul\":4047:4296   */\n    tag_54:\n        /* \"#utility.yul\":4122:4126   */\n      0x00\n        /* \"#utility.yul\":4212:4230   */\n      0xffffffffffffffff\n        /* \"#utility.yul\":4204:4210   */\n      dup3\n        /* \"#utility.yul\":4201:4231   */\n      gt\n        /* \"#utility.yul\":4198:4254   */\n      iszero\n      tag_107\n      jumpi\n        /* \"#utility.yul\":4234:4252   */\n      tag_108\n      tag_51\n      jump\t// in\n    tag_108:\n        /* \"#utility.yul\":4198:4254   */\n    tag_107:\n        /* \"#utility.yul\":4284:4288   */\n      0x20\n        /* \"#utility.yul\":4276:4282   */\n      dup3\n        /* \"#utility.yul\":4272:4289   */\n      mul\n        /* \"#utility.yul\":4264:4289   */\n      swap1\n      pop\n        /* \"#utility.yul\":4047:4296   */\n      swap2\n      swap1\n      pop\n      jump\t// out\n        /* \"#utility.yul\":4302:4419   */\n    tag_55:\n        /* \"#utility.yul\":4411:4412   */\n      0x00\n        /* \"#utility.yul\":4408:4409   */\n      dup1\n        /* \"#utility.yul\":4401:4413   */\n      revert\n        /* \"#utility.yul\":4443:5086   */\n    tag_56:\n        /* \"#utility.yul\":4537:4542   */\n      0x00\n        /* \"#utility.yul\":4562:4641   */\n      tag_111\n        /* \"#utility.yul\":4578:4640   */\n      tag_112\n        /* \"#utility.yul\":4633:4639   */\n      dup5\n        /* \"#utility.yul\":4578:4640   */\n      tag_54\n      jump\t// in\n    tag_112:\n        /* \"#utility.yul\":4562:4641   */\n      tag_53\n      jump\t// in\n    tag_111:\n        /* \"#utility.yul\":4553:4641   */\n      swap1\n      pop\n        /* \"#utility.yul\":4661:4666   */\n      dup1\n        /* \"#utility.yul\":4714:4718   */\n      0x20\n        /* \"#utility.yul\":4706:4712   */\n      dup5\n        /* \"#utility.yul\":4702:4719   */\n      mul\n        /* \"#utility.yul\":4694:4700   */\n      dup4\n        /* \"#utility.yul\":4690:4720   */\n      add\n        /* \"#utility.yul\":4743:4746   */\n      dup6\n        /* \"#utility.yul\":4735:4741   */\n      dup2\n        /* \"#utility.yul\":4732:4747   */\n      gt\n        /* \"#utility.yul\":4729:4851   */\n      iszero\n      tag_113\n      jumpi\n        /* \"#utility.yul\":4762:4841   */\n      tag_114\n      tag_55\n      jump\t// in\n    tag_114:\n        /* \"#utility.yul\":4729:4851   */\n    tag_113:\n        /* \"#utility.yul\":4877:4883   */\n      dup4\n        /* \"#utility.yul\":4860:5080   */\n    tag_115:\n        /* \"#utility.yul\":4894:4900   */\n      dup2\n        /* \"#utility.yul\":4889:4892   */\n      dup2\n        /* \"#utility.yul\":4886:4901   */\n      lt\n        /* \"#utility.yul\":4860:5080   */\n      iszero\n      tag_117\n      jumpi\n        /* \"#utility.yul\":4969:4972   */\n      dup1\n        /* \"#utility.yul\":4998:5035   */\n      tag_118\n        /* \"#utility.yul\":5031:5034   */\n      dup9\n        /* \"#utility.yul\":5019:5029   */\n      dup3\n        /* \"#utility.yul\":4998:5035   */\n      tag_40\n      jump\t// in\n    tag_118:\n        /* \"#utility.yul\":4993:4996   */\n      dup5\n        /* \"#utility.yul\":4986:5036   */\n      mstore\n        /* \"#utility.yul\":5065:5069   */\n      0x20\n        /* \"#utility.yul\":5060:5063   */\n      dup5\n        /* \"#utility.yul\":5056:5070   */\n      add\n        /* \"#utility.yul\":5049:5070   */\n      swap4\n      pop\n        /* \"#utility.yul\":4936:5080   */\n      pop\n        /* \"#utility.yul\":4920:4924   */\n      0x20\n        /* \"#utility.yul\":4915:4918   */\n      dup2\n        /* \"#utility.yul\":4911:4925   */\n      add\n        /* \"#utility.yul\":4904:4925   */\n      swap1\n      pop\n        /* \"#utility.yul\":4860:5080   */\n      jump(tag_115)\n    tag_117:\n        /* \"#utility.yul\":4864:4885   */\n      pop\n        /* \"#utility.yul\":4543:5086   */\n      pop\n      pop\n        /* \"#utility.yul\":4443:5086   */\n      swap4\n      swap3\n      pop\n      pop\n      pop\n      jump\t// out\n        /* \"#utility.yul\":5110:5449   */\n    tag_57:\n        /* \"#utility.yul\":5179:5184   */\n      0x00\n        /* \"#utility.yul\":5228:5231   */\n      dup3\n        /* \"#utility.yul\":5221:5225   */\n      0x1f\n        /* \"#utility.yul\":5213:5219   */\n      dup4\n        /* \"#utility.yul\":5209:5226   */\n      add\n        /* \"#utility.yul\":5205:5232   */\n      slt\n        /* \"#utility.yul\":5195:5317   */\n      tag_120\n      jumpi\n        /* \"#utility.yul\":5236:5315   */\n      tag_121\n      tag_49\n      jump\t// in\n    tag_121:\n        /* \"#utility.yul\":5195:5317   */\n    tag_120:\n        /* \"#utility.yul\":5340:5344   */\n      0x03\n        /* \"#utility.yul\":5362:5443   */\n      tag_122\n        /* \"#utility.yul\":5439:5442   */\n      dup5\n        /* \"#utility.yul\":5431:5437   */\n      dup3\n        /* \"#utility.yul\":5423:5429   */\n      dup6\n        /* \"#utility.yul\":5362:5443   */\n      tag_56\n      jump\t// in\n    tag_122:\n        /* \"#utility.yul\":5353:5443   */\n      swap2\n      pop\n        /* \"#utility.yul\":5185:5449   */\n      pop\n        /* \"#utility.yul\":5110:5449   */\n      swap3\n      swap2\n      pop\n      pop\n      jump\t// out\n        /* \"#utility.yul\":5455:5830   */\n    tag_18:\n        /* \"#utility.yul\":5537:5543   */\n      0x00\n        /* \"#utility.yul\":5586:5588   */\n      0x60\n        /* \"#utility.yul\":5574:5583   */\n      dup3\n        /* \"#utility.yul\":5565:5572   */\n      dup5\n        /* \"#utility.yul\":5561:5584   */\n      sub\n        /* \"#utility.yul\":5557:5589   */\n      slt\n        /* \"#utility.yul\":5554:5673   */\n      iszero\n      tag_124\n      jumpi\n        /* \"#utility.yul\":5592:5671   */\n      tag_125\n      tag_36\n      jump\t// in\n    tag_125:\n        /* \"#utility.yul\":5554:5673   */\n    tag_124:\n        /* \"#utility.yul\":5712:5713   */\n      0x00\n        /* \"#utility.yul\":5737:5813   */\n      tag_126\n        /* \"#utility.yul\":5805:5812   */\n      dup5\n        /* \"#utility.yul\":5796:5802   */\n      dup3\n        /* \"#utility.yul\":5785:5794   */\n      dup6\n        /* \"#utility.yul\":5781:5803   */\n      add\n        /* \"#utility.yul\":5737:5813   */\n      tag_57\n      jump\t// in\n    tag_126:\n        /* \"#utility.yul\":5727:5813   */\n      swap2\n      pop\n        /* \"#utility.yul\":5683:5823   */\n      pop\n        /* \"#utility.yul\":5455:5830   */\n      swap3\n      swap2\n      pop\n      pop\n      jump\t// out\n        /* \"#utility.yul\":5836:6016   */\n    tag_30:\n        /* \"#utility.yul\":5884:5961   */\n      0x4e487b7100000000000000000000000000000000000000000000000000000000\n        /* \"#utility.yul\":5881:5882   */\n      0x00\n        /* \"#utility.yul\":5874:5962   */\n      mstore\n        /* \"#utility.yul\":5981:5985   */\n      0x32\n        /* \"#utility.yul\":5978:5979   */\n      0x04\n        /* \"#utility.yul\":5971:5986   */\n      mstore\n        /* \"#utility.yul\":6005:6009   */\n      0x24\n        /* \"#utility.yul\":6002:6003   */\n      0x00\n        /* \"#utility.yul\":5995:6010   */\n      revert\n        /* \"#utility.yul\":6022:6202   */\n    tag_58:\n        /* \"#utility.yul\":6070:6147   */\n      0x4e487b7100000000000000000000000000000000000000000000000000000000\n        /* \"#utility.yul\":6067:6068   */\n      0x00\n        /* \"#utility.yul\":6060:6148   */\n      mstore\n        /* \"#utility.yul\":6167:6171   */\n      0x11\n        /* \"#utility.yul\":6164:6165   */\n      0x04\n        /* \"#utility.yul\":6157:6172   */\n      mstore\n        /* \"#utility.yul\":6191:6195   */\n      0x24\n        /* \"#utility.yul\":6188:6189   */\n      0x00\n        /* \"#utility.yul\":6181:6196   */\n      revert\n        /* \"#utility.yul\":6208:6618   */\n    tag_32:\n        /* \"#utility.yul\":6248:6255   */\n      0x00\n        /* \"#utility.yul\":6271:6291   */\n      tag_130\n        /* \"#utility.yul\":6289:6290   */\n      dup3\n        /* \"#utility.yul\":6271:6291   */\n      tag_38\n      jump\t// in\n    tag_130:\n        /* \"#utility.yul\":6266:6291   */\n      swap2\n      pop\n        /* \"#utility.yul\":6305:6325   */\n      tag_131\n        /* \"#utility.yul\":6323:6324   */\n      dup4\n        /* \"#utility.yul\":6305:6325   */\n      tag_38\n      jump\t// in\n    tag_131:\n        /* \"#utility.yul\":6300:6325   */\n      swap3\n      pop\n        /* \"#utility.yul\":6360:6361   */\n      dup3\n        /* \"#utility.yul\":6357:6358   */\n      dup3\n        /* \"#utility.yul\":6353:6362   */\n      mul\n        /* \"#utility.yul\":6382:6412   */\n      tag_132\n        /* \"#utility.yul\":6400:6411   */\n      dup2\n        /* \"#utility.yul\":6382:6412   */\n      tag_38\n      jump\t// in\n    tag_132:\n        /* \"#utility.yul\":6371:6412   */\n      swap2\n      pop\n        /* \"#utility.yul\":6561:6562   */\n      dup3\n        /* \"#utility.yul\":6552:6559   */\n      dup3\n        /* \"#utility.yul\":6548:6563   */\n      div\n        /* \"#utility.yul\":6545:6546   */\n      dup5\n        /* \"#utility.yul\":6542:6564   */\n      eq\n        /* \"#utility.yul\":6522:6523   */\n      dup4\n        /* \"#utility.yul\":6515:6524   */\n      iszero\n        /* \"#utility.yul\":6495:6578   */\n      or\n        /* \"#utility.yul\":6472:6611   */\n      tag_133\n      jumpi\n        /* \"#utility.yul\":6591:6609   */\n      tag_134\n      tag_58\n      jump\t// in\n    tag_134:\n        /* \"#utility.yul\":6472:6611   */\n    tag_133:\n        /* \"#utility.yul\":6256:6618   */\n      pop\n        /* \"#utility.yul\":6208:6618   */\n      swap3\n      swap2\n      pop\n      pop\n      jump\t// out\n\n    auxdata: 0xa2646970667358221220ec835a25f9c5f65601bfc5992f360504d28de278070a7573dddc68202399c62764736f6c63430008160033\n}\n",
				"bytecode": {
					"linkReferences": {},
					"object": "60806040526040518060600160405280600a60ff168152602001601460ff168152602001601e60ff168152505f90600361003a92919061004c565b50348015610046575f80fd5b506100ac565b8260038101928215610080579160200282015b8281111561007f578251829060ff1690559160200191906001019061005f565b5b50905061008d9190610091565b5090565b5b808211156100a8575f815f905550600101610092565b5090565b610501806100b95f395ff3fe608060405234801561000f575f80fd5b506004361061003f575f3560e01c806371e5ee5f1461004357806388046c6a14610073578063fc2b969014610091575b5f80fd5b61005d600480360381019061005891906101b6565b6100ad565b60405161006a91906101f0565b60405180910390f35b61007b6100c5565b60405161008891906102ae565b60405180910390f35b6100ab60048036038101906100a69190610405565b61010f565b005b5f81600381106100bb575f80fd5b015f915090505481565b6100cd610154565b5f600380602002604051908101604052809291908260038015610105576020028201915b8154815260200190600101908083116100f1575b5050505050905090565b8060016003811061012357610122610430565b5b60200201516002610134919061048a565b8160016003811061014857610147610430565b5b60200201818152505050565b6040518060600160405280600390602082028036833780820191505090505090565b5f604051905090565b5f80fd5b5f819050919050565b61019581610183565b811461019f575f80fd5b50565b5f813590506101b08161018c565b92915050565b5f602082840312156101cb576101ca61017f565b5b5f6101d8848285016101a2565b91505092915050565b6101ea81610183565b82525050565b5f6020820190506102035f8301846101e1565b92915050565b5f60039050919050565b5f81905092915050565b5f819050919050565b61022f81610183565b82525050565b5f6102408383610226565b60208301905092915050565b5f602082019050919050565b61026181610209565b61026b8184610213565b92506102768261021d565b805f5b838110156102a657815161028d8782610235565b96506102988361024c565b925050600181019050610279565b505050505050565b5f6060820190506102c15f830184610258565b92915050565b5f80fd5b5f601f19601f8301169050919050565b7f4e487b71000000000000000000000000000000000000000000000000000000005f52604160045260245ffd5b610311826102cb565b810181811067ffffffffffffffff821117156103305761032f6102db565b5b80604052505050565b5f610342610176565b905061034e8282610308565b919050565b5f67ffffffffffffffff82111561036d5761036c6102db565b5b602082029050919050565b5f80fd5b5f61038e61038984610353565b610339565b905080602084028301858111156103a8576103a7610378565b5b835b818110156103d157806103bd88826101a2565b8452602084019350506020810190506103aa565b5050509392505050565b5f82601f8301126103ef576103ee6102c7565b5b60036103fc84828561037c565b91505092915050565b5f6060828403121561041a5761041961017f565b5b5f610427848285016103db565b91505092915050565b7f4e487b71000000000000000000000000000000000000000000000000000000005f52603260045260245ffd5b7f4e487b71000000000000000000000000000000000000000000000000000000005f52601160045260245ffd5b5f61049482610183565b915061049f83610183565b92508282026104ad81610183565b915082820484148315176104c4576104c361045d565b5b509291505056fea2646970667358221220ec835a25f9c5f65601bfc5992f360504d28de278070a7573dddc68202399c62764736f6c63430008160033",
					"opcodes": "PUSH1 0x80 PUSH1 0x40 MSTORE PUSH1 0x40 MLOAD DUP1 PUSH1 0x60 ADD PUSH1 0x40 MSTORE DUP1 PUSH1 0xA PUSH1 0xFF AND DUP2 MSTORE PUSH1 0x20 ADD PUSH1 0x14 PUSH1 0xFF AND DUP2 MSTORE PUSH1 0x20 ADD PUSH1 0x1E PUSH1 0xFF AND DUP2 MSTORE POP PUSH0 SWAP1 PUSH1 0x3 PUSH2 0x3A SWAP3 SWAP2 SWAP1 PUSH2 0x4C JUMP JUMPDEST POP CALLVALUE DUP1 ISZERO PUSH2 0x46 JUMPI PUSH0 DUP1 REVERT JUMPDEST POP PUSH2 0xAC JUMP JUMPDEST DUP3 PUSH1 0x3 DUP2 ADD SWAP3 DUP3 ISZERO PUSH2 0x80 JUMPI SWAP2 PUSH1 0x20 MUL DUP3 ADD JUMPDEST DUP3 DUP2 GT ISZERO PUSH2 0x7F JUMPI DUP3 MLOAD DUP3 SWAP1 PUSH1 0xFF AND SWAP1 SSTORE SWAP2 PUSH1 0x20 ADD SWAP2 SWAP1 PUSH1 0x1 ADD SWAP1 PUSH2 0x5F JUMP JUMPDEST JUMPDEST POP SWAP1 POP PUSH2 0x8D SWAP2 SWAP1 PUSH2 0x91 JUMP JUMPDEST POP SWAP1 JUMP JUMPDEST JUMPDEST DUP1 DUP3 GT ISZERO PUSH2 0xA8 JUMPI PUSH0 DUP2 PUSH0 SWAP1 SSTORE POP PUSH1 0x1 ADD PUSH2 0x92 JUMP JUMPDEST POP SWAP1 JUMP JUMPDEST PUSH2 0x501 DUP1 PUSH2 0xB9 PUSH0 CODECOPY PUSH0 RETURN INVALID PUSH1 0x80 PUSH1 0x40 MSTORE CALLVALUE DUP1 ISZERO PUSH2 0xF JUMPI PUSH0 DUP1 REVERT JUMPDEST POP PUSH1 0x4 CALLDATASIZE LT PUSH2 0x3F JUMPI PUSH0 CALLDATALOAD PUSH1 0xE0 SHR DUP1 PUSH4 0x71E5EE5F EQ PUSH2 0x43 JUMPI DUP1 PUSH4 0x88046C6A EQ PUSH2 0x73 JUMPI DUP1 PUSH4 0xFC2B9690 EQ PUSH2 0x91 JUMPI JUMPDEST PUSH0 DUP1 REVERT JUMPDEST PUSH2 0x5D PUSH1 0x4 DUP1 CALLDATASIZE SUB DUP2 ADD SWAP1 PUSH2 0x58 SWAP2 SWAP1 PUSH2 0x1B6 JUMP JUMPDEST PUSH2 0xAD JUMP JUMPDEST PUSH1 0x40 MLOAD PUSH2 0x6A SWAP2 SWAP1 PUSH2 0x1F0 JUMP JUMPDEST PUSH1 0x40 MLOAD DUP1 SWAP2 SUB SWAP1 RETURN JUMPDEST PUSH2 0x7B PUSH2 0xC5 JUMP JUMPDEST PUSH1 0x40 MLOAD PUSH2 0x88 SWAP2 SWAP1 PUSH2 0x2AE JUMP JUMPDEST PUSH1 0x40 MLOAD DUP1 SWAP2 SUB SWAP1 RETURN JUMPDEST PUSH2 0xAB PUSH1 0x4 DUP1 CALLDATASIZE SUB DUP2 ADD SWAP1 PUSH2 0xA6 SWAP2 SWAP1 PUSH2 0x405 JUMP JUMPDEST PUSH2 0x10F JUMP JUMPDEST STOP JUMPDEST PUSH0 DUP2 PUSH1 0x3 DUP2 LT PUSH2 0xBB JUMPI PUSH0 DUP1 REVERT JUMPDEST ADD PUSH0 SWAP2 POP SWAP1 POP SLOAD DUP2 JUMP JUMPDEST PUSH2 0xCD PUSH2 0x154 JUMP JUMPDEST PUSH0 PUSH1 0x3 DUP1 PUSH1 0x20 MUL PUSH1 0x40 MLOAD SWAP1 DUP2 ADD PUSH1 0x40 MSTORE DUP1 SWAP3 SWAP2 SWAP1 DUP3 PUSH1 0x3 DUP1 ISZERO PUSH2 0x105 JUMPI PUSH1 0x20 MUL DUP3 ADD SWAP2 JUMPDEST DUP2 SLOAD DUP2 MSTORE PUSH1 0x20 ADD SWAP1 PUSH1 0x1 ADD SWAP1 DUP1 DUP4 GT PUSH2 0xF1 JUMPI JUMPDEST POP POP POP POP POP SWAP1 POP SWAP1 JUMP JUMPDEST DUP1 PUSH1 0x1 PUSH1 0x3 DUP2 LT PUSH2 0x123 JUMPI PUSH2 0x122 PUSH2 0x430 JUMP JUMPDEST JUMPDEST PUSH1 0x20 MUL ADD MLOAD PUSH1 0x2 PUSH2 0x134 SWAP2 SWAP1 PUSH2 0x48A JUMP JUMPDEST DUP2 PUSH1 0x1 PUSH1 0x3 DUP2 LT PUSH2 0x148 JUMPI PUSH2 0x147 PUSH2 0x430 JUMP JUMPDEST JUMPDEST PUSH1 0x20 MUL ADD DUP2 DUP2 MSTORE POP POP POP JUMP JUMPDEST PUSH1 0x40 MLOAD DUP1 PUSH1 0x60 ADD PUSH1 0x40 MSTORE DUP1 PUSH1 0x3 SWAP1 PUSH1 0x20 DUP3 MUL DUP1 CALLDATASIZE DUP4 CALLDATACOPY DUP1 DUP3 ADD SWAP2 POP POP SWAP1 POP POP SWAP1 JUMP JUMPDEST PUSH0 PUSH1 0x40 MLOAD SWAP1 POP SWAP1 JUMP JUMPDEST PUSH0 DUP1 REVERT JUMPDEST PUSH0 DUP2 SWAP1 POP SWAP2 SWAP1 POP JUMP JUMPDEST PUSH2 0x195 DUP2 PUSH2 0x183 JUMP JUMPDEST DUP2 EQ PUSH2 0x19F JUMPI PUSH0 DUP1 REVERT JUMPDEST POP JUMP JUMPDEST PUSH0 DUP2 CALLDATALOAD SWAP1 POP PUSH2 0x1B0 DUP2 PUSH2 0x18C JUMP JUMPDEST SWAP3 SWAP2 POP POP JUMP JUMPDEST PUSH0 PUSH1 0x20 DUP3 DUP5 SUB SLT ISZERO PUSH2 0x1CB JUMPI PUSH2 0x1CA PUSH2 0x17F JUMP JUMPDEST JUMPDEST PUSH0 PUSH2 0x1D8 DUP5 DUP3 DUP6 ADD PUSH2 0x1A2 JUMP JUMPDEST SWAP2 POP POP SWAP3 SWAP2 POP POP JUMP JUMPDEST PUSH2 0x1EA DUP2 PUSH2 0x183 JUMP JUMPDEST DUP3 MSTORE POP POP JUMP JUMPDEST PUSH0 PUSH1 0x20 DUP3 ADD SWAP1 POP PUSH2 0x203 PUSH0 DUP4 ADD DUP5 PUSH2 0x1E1 JUMP JUMPDEST SWAP3 SWAP2 POP POP JUMP JUMPDEST PUSH0 PUSH1 0x3 SWAP1 POP SWAP2 SWAP1 POP JUMP JUMPDEST PUSH0 DUP2 SWAP1 POP SWAP3 SWAP2 POP POP JUMP JUMPDEST PUSH0 DUP2 SWAP1 POP SWAP2 SWAP1 POP JUMP JUMPDEST PUSH2 0x22F DUP2 PUSH2 0x183 JUMP JUMPDEST DUP3 MSTORE POP POP JUMP JUMPDEST PUSH0 PUSH2 0x240 DUP4 DUP4 PUSH2 0x226 JUMP JUMPDEST PUSH1 0x20 DUP4 ADD SWAP1 POP SWAP3 SWAP2 POP POP JUMP JUMPDEST PUSH0 PUSH1 0x20 DUP3 ADD SWAP1 POP SWAP2 SWAP1 POP JUMP JUMPDEST PUSH2 0x261 DUP2 PUSH2 0x209 JUMP JUMPDEST PUSH2 0x26B DUP2 DUP5 PUSH2 0x213 JUMP JUMPDEST SWAP3 POP PUSH2 0x276 DUP3 PUSH2 0x21D JUMP JUMPDEST DUP1 PUSH0 JUMPDEST DUP4 DUP2 LT ISZERO PUSH2 0x2A6 JUMPI DUP2 MLOAD PUSH2 0x28D DUP8 DUP3 PUSH2 0x235 JUMP JUMPDEST SWAP7 POP PUSH2 0x298 DUP4 PUSH2 0x24C JUMP JUMPDEST SWAP3 POP POP PUSH1 0x1 DUP2 ADD SWAP1 POP PUSH2 0x279 JUMP JUMPDEST POP POP POP POP POP POP JUMP JUMPDEST PUSH0 PUSH1 0x60 DUP3 ADD SWAP1 POP PUSH2 0x2C1 PUSH0 DUP4 ADD DUP5 PUSH2 0x258 JUMP JUMPDEST SWAP3 SWAP2 POP POP JUMP JUMPDEST PUSH0 DUP1 REVERT JUMPDEST PUSH0 PUSH1 0x1F NOT PUSH1 0x1F DUP4 ADD AND SWAP1 POP SWAP2 SWAP1 POP JUMP JUMPDEST PUSH32 0x4E487B7100000000000000000000000000000000000000000000000000000000 PUSH0 MSTORE PUSH1 0x41 PUSH1 0x4 MSTORE PUSH1 0x24 PUSH0 REVERT JUMPDEST PUSH2 0x311 DUP3 PUSH2 0x2CB JUMP JUMPDEST DUP2 ADD DUP2 DUP2 LT PUSH8 0xFFFFFFFFFFFFFFFF DUP3 GT OR ISZERO PUSH2 0x330 JUMPI PUSH2 0x32F PUSH2 0x2DB JUMP JUMPDEST JUMPDEST DUP1 PUSH1 0x40 MSTORE POP POP POP JUMP JUMPDEST PUSH0 PUSH2 0x342 PUSH2 0x176 JUMP JUMPDEST SWAP1 POP PUSH2 0x34E DUP3 DUP3 PUSH2 0x308 JUMP JUMPDEST SWAP2 SWAP1 POP JUMP JUMPDEST PUSH0 PUSH8 0xFFFFFFFFFFFFFFFF DUP3 GT ISZERO PUSH2 0x36D JUMPI PUSH2 0x36C PUSH2 0x2DB JUMP JUMPDEST JUMPDEST PUSH1 0x20 DUP3 MUL SWAP1 POP SWAP2 SWAP1 POP JUMP JUMPDEST PUSH0 DUP1 REVERT JUMPDEST PUSH0 PUSH2 0x38E PUSH2 0x389 DUP5 PUSH2 0x353 JUMP JUMPDEST PUSH2 0x339 JUMP JUMPDEST SWAP1 POP DUP1 PUSH1 0x20 DUP5 MUL DUP4 ADD DUP6 DUP2 GT ISZERO PUSH2 0x3A8 JUMPI PUSH2 0x3A7 PUSH2 0x378 JUMP JUMPDEST JUMPDEST DUP4 JUMPDEST DUP2 DUP2 LT ISZERO PUSH2 0x3D1 JUMPI DUP1 PUSH2 0x3BD DUP9 DUP3 PUSH2 0x1A2 JUMP JUMPDEST DUP5 MSTORE PUSH1 0x20 DUP5 ADD SWAP4 POP POP PUSH1 0x20 DUP2 ADD SWAP1 POP PUSH2 0x3AA JUMP JUMPDEST POP POP POP SWAP4 SWAP3 POP POP POP JUMP JUMPDEST PUSH0 DUP3 PUSH1 0x1F DUP4 ADD SLT PUSH2 0x3EF JUMPI PUSH2 0x3EE PUSH2 0x2C7 JUMP JUMPDEST JUMPDEST PUSH1 0x3 PUSH2 0x3FC DUP5 DUP3 DUP6 PUSH2 0x37C JUMP JUMPDEST SWAP2 POP POP SWAP3 SWAP2 POP POP JUMP JUMPDEST PUSH0 PUSH1 0x60 DUP3 DUP5 SUB SLT ISZERO PUSH2 0x41A JUMPI PUSH2 0x419 PUSH2 0x17F JUMP JUMPDEST JUMPDEST PUSH0 PUSH2 0x427 DUP5 DUP3 DUP6 ADD PUSH2 0x3DB JUMP JUMPDEST SWAP2 POP POP SWAP3 SWAP2 POP POP JUMP JUMPDEST PUSH32 0x4E487B7100000000000000000000000000000000000000000000000000000000 PUSH0 MSTORE PUSH1 0x32 PUSH1 0x4 MSTORE PUSH1 0x24 PUSH0 REVERT JUMPDEST PUSH32 0x4E487B7100000000000000000000000000000000000000000000000000000000 PUSH0 MSTORE PUSH1 0x11 PUSH1 0x4 MSTORE PUSH1 0x24 PUSH0 REVERT JUMPDEST PUSH0 PUSH2 0x494 DUP3 PUSH2 0x183 JUMP JUMPDEST SWAP2 POP PUSH2 0x49F DUP4 PUSH2 0x183 JUMP JUMPDEST SWAP3 POP DUP3 DUP3 MUL PUSH2 0x4AD DUP2 PUSH2 0x183 JUMP JUMPDEST SWAP2 POP DUP3 DUP3 DIV DUP5 EQ DUP4 ISZERO OR PUSH2 0x4C4 JUMPI PUSH2 0x4C3 PUSH2 0x45D JUMP JUMPDEST JUMPDEST POP SWAP3 SWAP2 POP POP JUMP INVALID LOG2 PUSH5 0x6970667358 0x22 SLT KECCAK256 0xEC DUP4 GAS 0x25 0xF9 0xC5 0xF6 JUMP ADD 0xBF 0xC5 SWAP10 0x2F CALLDATASIZE SDIV DIV 0xD2 DUP14 0xE2 PUSH25 0x70A7573DDDC68202399C62764736F6C634300081600330000 "
				},
				"gasEstimates": {
					"creation": {
						"codeDepositCost": "256200",
						"executionCost": "infinite",
						"totalCost": "infinite"
					},
					"external": {
						"arr(uint256)": "infinite",
						"multiply(uint256[3])": "infinite",
						"returnArr()": "infinite"
					}
				},
				"methodIdentifiers": {
					"arr(uint256)": "71e5ee5f",
					"multiply(uint256[3])": "fc2b9690",
					"returnArr()": "88046c6a"
				}
			},
			"storageLayout": {
				"storage": [
					{
						"astId": 9,
						"contract": "Solidity Advance/1memoryArea.sol:memArea",
						"label": "arr",
						"offset": 0,
						"slot": "0",
						"type": "t_array(t_uint256)3_storage"
					}
				],
				"types": {
					"t_array(t_uint256)3_storage": {
						"base": "t_uint256",
						"encoding": "inplace",
						"label": "uint256[3]",
						"numberOfBytes": "96"
					},
					"t_uint256": {
						"encoding": "inplace",
						"label": "uint256",
						"numberOfBytes": "32"
					}
				}
			},
			"userdoc": {
				"kind": "user",
				"methods": {},
				"version": 1
			}
		}
	}
}