{
	"Solidity Advance/x12.enum.sol": {
		"demo": {
			"abi": [
				{
					"inputs": [],
					"stateMutability": "nonpayable",
					"type": "constructor"
				},
				{
					"inputs": [],
					"name": "currentState",
					"outputs": [
						{
							"internalType": "enum demo.State",
							"name": "",
							"type": "uint8"
						}
					],
					"stateMutability": "view",
					"type": "function"
				},
				{
					"inputs": [
						{
							"internalType": "enum demo.State",
							"name": "newState",
							"type": "uint8"
						}
					],
					"name": "updateState",
					"outputs": [],
					"stateMutability": "nonpayable",
					"type": "function"
				}
			],
			"devdoc": {
				"kind": "dev",
				"methods": {},
				"version": 1
			},
			"evm": {
				"assembly": "    /* \"Solidity Advance/x12.enum.sol\":70:527  contract demo{... */\n  mstore(0x40, 0x80)\n    /* \"Solidity Advance/x12.enum.sol\":338:396  constructor(){... */\n  callvalue\n  dup1\n  iszero\n  tag_1\n  jumpi\n  0x00\n  dup1\n  revert\ntag_1:\n  pop\n    /* \"Solidity Advance/x12.enum.sol\":376:388  State.active */\n  0x01\n    /* \"Solidity Advance/x12.enum.sol\":362:374  currentState */\n  0x00\n  dup1\n    /* \"Solidity Advance/x12.enum.sol\":362:388  currentState= State.active */\n  0x0100\n  exp\n  dup2\n  sload\n  dup2\n  0xff\n  mul\n  not\n  and\n  swap1\n  dup4\n  0x02\n  dup2\n  gt\n  iszero\n  tag_4\n  jumpi\n  tag_5\n  tag_6\n  jump\t// in\ntag_5:\ntag_4:\n  mul\n  or\n  swap1\n  sstore\n  pop\n    /* \"Solidity Advance/x12.enum.sol\":70:527  contract demo{... */\n  jump(tag_7)\n    /* \"#utility.yul\":7:187   */\ntag_6:\n    /* \"#utility.yul\":55:132   */\n  0x4e487b7100000000000000000000000000000000000000000000000000000000\n    /* \"#utility.yul\":52:53   */\n  0x00\n    /* \"#utility.yul\":45:133   */\n  mstore\n    /* \"#utility.yul\":152:156   */\n  0x21\n    /* \"#utility.yul\":149:150   */\n  0x04\n    /* \"#utility.yul\":142:157   */\n  mstore\n    /* \"#utility.yul\":176:180   */\n  0x24\n    /* \"#utility.yul\":173:174   */\n  0x00\n    /* \"#utility.yul\":166:181   */\n  revert\n    /* \"Solidity Advance/x12.enum.sol\":70:527  contract demo{... */\ntag_7:\n  dataSize(sub_0)\n  dup1\n  dataOffset(sub_0)\n  0x00\n  codecopy\n  0x00\n  return\nstop\n\nsub_0: assembly {\n        /* \"Solidity Advance/x12.enum.sol\":70:527  contract demo{... */\n      mstore(0x40, 0x80)\n      callvalue\n      dup1\n      iszero\n      tag_1\n      jumpi\n      0x00\n      dup1\n      revert\n    tag_1:\n      pop\n      jumpi(tag_2, lt(calldatasize, 0x04))\n      shr(0xe0, calldataload(0x00))\n      dup1\n      0x0591d3ab\n      eq\n      tag_3\n      jumpi\n      dup1\n      0x0c3f6acf\n      eq\n      tag_4\n      jumpi\n    tag_2:\n      0x00\n      dup1\n      revert\n        /* \"Solidity Advance/x12.enum.sol\":437:522  function updateState(State newState) public {... */\n    tag_3:\n      tag_5\n      0x04\n      dup1\n      calldatasize\n      sub\n      dup2\n      add\n      swap1\n      tag_6\n      swap2\n      swap1\n      tag_7\n      jump\t// in\n    tag_6:\n      tag_8\n      jump\t// in\n    tag_5:\n      stop\n        /* \"Solidity Advance/x12.enum.sol\":253:278  State public currentState */\n    tag_4:\n      tag_9\n      tag_10\n      jump\t// in\n    tag_9:\n      mload(0x40)\n      tag_11\n      swap2\n      swap1\n      tag_12\n      jump\t// in\n    tag_11:\n      mload(0x40)\n      dup1\n      swap2\n      sub\n      swap1\n      return\n        /* \"Solidity Advance/x12.enum.sol\":437:522  function updateState(State newState) public {... */\n    tag_8:\n        /* \"Solidity Advance/x12.enum.sol\":506:514  newState */\n      dup1\n        /* \"Solidity Advance/x12.enum.sol\":492:504  currentState */\n      0x00\n      dup1\n        /* \"Solidity Advance/x12.enum.sol\":492:514  currentState= newState */\n      0x0100\n      exp\n      dup2\n      sload\n      dup2\n      0xff\n      mul\n      not\n      and\n      swap1\n      dup4\n      0x02\n      dup2\n      gt\n      iszero\n      tag_14\n      jumpi\n      tag_15\n      tag_16\n      jump\t// in\n    tag_15:\n    tag_14:\n      mul\n      or\n      swap1\n      sstore\n      pop\n        /* \"Solidity Advance/x12.enum.sol\":437:522  function updateState(State newState) public {... */\n      pop\n      jump\t// out\n        /* \"Solidity Advance/x12.enum.sol\":253:278  State public currentState */\n    tag_10:\n      0x00\n      dup1\n      sload\n      swap1\n      0x0100\n      exp\n      swap1\n      div\n      0xff\n      and\n      dup2\n      jump\t// out\n        /* \"#utility.yul\":88:205   */\n    tag_18:\n        /* \"#utility.yul\":197:198   */\n      0x00\n        /* \"#utility.yul\":194:195   */\n      dup1\n        /* \"#utility.yul\":187:199   */\n      revert\n        /* \"#utility.yul\":334:440   */\n    tag_20:\n        /* \"#utility.yul\":414:415   */\n      0x03\n        /* \"#utility.yul\":407:412   */\n      dup2\n        /* \"#utility.yul\":404:416   */\n      lt\n        /* \"#utility.yul\":394:434   */\n      tag_31\n      jumpi\n        /* \"#utility.yul\":430:431   */\n      0x00\n        /* \"#utility.yul\":427:428   */\n      dup1\n        /* \"#utility.yul\":420:432   */\n      revert\n        /* \"#utility.yul\":394:434   */\n    tag_31:\n        /* \"#utility.yul\":334:440   */\n      pop\n      jump\t// out\n        /* \"#utility.yul\":446:599   */\n    tag_21:\n        /* \"#utility.yul\":499:504   */\n      0x00\n        /* \"#utility.yul\":537:543   */\n      dup2\n        /* \"#utility.yul\":524:544   */\n      calldataload\n        /* \"#utility.yul\":515:544   */\n      swap1\n      pop\n        /* \"#utility.yul\":553:593   */\n      tag_33\n        /* \"#utility.yul\":587:592   */\n      dup2\n        /* \"#utility.yul\":553:593   */\n      tag_20\n      jump\t// in\n    tag_33:\n        /* \"#utility.yul\":446:599   */\n      swap3\n      swap2\n      pop\n      pop\n      jump\t// out\n        /* \"#utility.yul\":605:948   */\n    tag_7:\n        /* \"#utility.yul\":671:677   */\n      0x00\n        /* \"#utility.yul\":720:722   */\n      0x20\n        /* \"#utility.yul\":708:717   */\n      dup3\n        /* \"#utility.yul\":699:706   */\n      dup5\n        /* \"#utility.yul\":695:718   */\n      sub\n        /* \"#utility.yul\":691:723   */\n      slt\n        /* \"#utility.yul\":688:807   */\n      iszero\n      tag_35\n      jumpi\n        /* \"#utility.yul\":726:805   */\n      tag_36\n      tag_18\n      jump\t// in\n    tag_36:\n        /* \"#utility.yul\":688:807   */\n    tag_35:\n        /* \"#utility.yul\":846:847   */\n      0x00\n        /* \"#utility.yul\":871:931   */\n      tag_37\n        /* \"#utility.yul\":923:930   */\n      dup5\n        /* \"#utility.yul\":914:920   */\n      dup3\n        /* \"#utility.yul\":903:912   */\n      dup6\n        /* \"#utility.yul\":899:921   */\n      add\n        /* \"#utility.yul\":871:931   */\n      tag_21\n      jump\t// in\n    tag_37:\n        /* \"#utility.yul\":861:931   */\n      swap2\n      pop\n        /* \"#utility.yul\":817:941   */\n      pop\n        /* \"#utility.yul\":605:948   */\n      swap3\n      swap2\n      pop\n      pop\n      jump\t// out\n        /* \"#utility.yul\":954:1134   */\n    tag_16:\n        /* \"#utility.yul\":1002:1079   */\n      0x4e487b7100000000000000000000000000000000000000000000000000000000\n        /* \"#utility.yul\":999:1000   */\n      0x00\n        /* \"#utility.yul\":992:1080   */\n      mstore\n        /* \"#utility.yul\":1099:1103   */\n      0x21\n        /* \"#utility.yul\":1096:1097   */\n      0x04\n        /* \"#utility.yul\":1089:1104   */\n      mstore\n        /* \"#utility.yul\":1123:1127   */\n      0x24\n        /* \"#utility.yul\":1120:1121   */\n      0x00\n        /* \"#utility.yul\":1113:1128   */\n      revert\n        /* \"#utility.yul\":1140:1252   */\n    tag_22:\n        /* \"#utility.yul\":1220:1221   */\n      0x03\n        /* \"#utility.yul\":1213:1218   */\n      dup2\n        /* \"#utility.yul\":1210:1222   */\n      lt\n        /* \"#utility.yul\":1200:1246   */\n      tag_40\n      jumpi\n        /* \"#utility.yul\":1226:1244   */\n      tag_41\n      tag_16\n      jump\t// in\n    tag_41:\n        /* \"#utility.yul\":1200:1246   */\n    tag_40:\n        /* \"#utility.yul\":1140:1252   */\n      pop\n      jump\t// out\n        /* \"#utility.yul\":1258:1383   */\n    tag_23:\n        /* \"#utility.yul\":1302:1309   */\n      0x00\n        /* \"#utility.yul\":1331:1336   */\n      dup2\n        /* \"#utility.yul\":1320:1336   */\n      swap1\n      pop\n        /* \"#utility.yul\":1337:1377   */\n      tag_43\n        /* \"#utility.yul\":1371:1376   */\n      dup3\n        /* \"#utility.yul\":1337:1377   */\n      tag_22\n      jump\t// in\n    tag_43:\n        /* \"#utility.yul\":1258:1383   */\n      swap2\n      swap1\n      pop\n      jump\t// out\n        /* \"#utility.yul\":1389:1514   */\n    tag_24:\n        /* \"#utility.yul\":1444:1453   */\n      0x00\n        /* \"#utility.yul\":1477:1508   */\n      tag_45\n        /* \"#utility.yul\":1502:1507   */\n      dup3\n        /* \"#utility.yul\":1477:1508   */\n      tag_23\n      jump\t// in\n    tag_45:\n        /* \"#utility.yul\":1464:1508   */\n      swap1\n      pop\n        /* \"#utility.yul\":1389:1514   */\n      swap2\n      swap1\n      pop\n      jump\t// out\n        /* \"#utility.yul\":1520:1661   */\n    tag_25:\n        /* \"#utility.yul\":1612:1654   */\n      tag_47\n        /* \"#utility.yul\":1648:1653   */\n      dup2\n        /* \"#utility.yul\":1612:1654   */\n      tag_24\n      jump\t// in\n    tag_47:\n        /* \"#utility.yul\":1607:1610   */\n      dup3\n        /* \"#utility.yul\":1600:1655   */\n      mstore\n        /* \"#utility.yul\":1520:1661   */\n      pop\n      pop\n      jump\t// out\n        /* \"#utility.yul\":1667:1899   */\n    tag_12:\n        /* \"#utility.yul\":1765:1769   */\n      0x00\n        /* \"#utility.yul\":1803:1805   */\n      0x20\n        /* \"#utility.yul\":1792:1801   */\n      dup3\n        /* \"#utility.yul\":1788:1806   */\n      add\n        /* \"#utility.yul\":1780:1806   */\n      swap1\n      pop\n        /* \"#utility.yul\":1816:1892   */\n      tag_49\n        /* \"#utility.yul\":1889:1890   */\n      0x00\n        /* \"#utility.yul\":1878:1887   */\n      dup4\n        /* \"#utility.yul\":1874:1891   */\n      add\n        /* \"#utility.yul\":1865:1871   */\n      dup5\n        /* \"#utility.yul\":1816:1892   */\n      tag_25\n      jump\t// in\n    tag_49:\n        /* \"#utility.yul\":1667:1899   */\n      swap3\n      swap2\n      pop\n      pop\n      jump\t// out\n\n    auxdata: 0xa2646970667358221220b66c1ab4bfc150f451bc3036e8c36d5a9ba7facfb71d32c3931b566580dde5cb64736f6c63430008160033\n}\n",
				"bytecode": {
					"linkReferences": {},
					"object": "608060405234801561000f575f80fd5b5060015f806101000a81548160ff021916908360028111156100345761003361003e565b5b021790555061006b565b7f4e487b71000000000000000000000000000000000000000000000000000000005f52602160045260245ffd5b6101c1806100785f395ff3fe608060405234801561000f575f80fd5b5060043610610034575f3560e01c80630591d3ab146100385780630c3f6acf14610054575b5f80fd5b610052600480360381019061004d91906100d4565b610072565b005b61005c61009d565b6040516100699190610172565b60405180910390f35b805f806101000a81548160ff02191690836002811115610095576100946100ff565b5b021790555050565b5f8054906101000a900460ff1681565b5f80fd5b600381106100bd575f80fd5b50565b5f813590506100ce816100b1565b92915050565b5f602082840312156100e9576100e86100ad565b5b5f6100f6848285016100c0565b91505092915050565b7f4e487b71000000000000000000000000000000000000000000000000000000005f52602160045260245ffd5b6003811061013d5761013c6100ff565b5b50565b5f81905061014d8261012c565b919050565b5f61015c82610140565b9050919050565b61016c81610152565b82525050565b5f6020820190506101855f830184610163565b9291505056fea2646970667358221220b66c1ab4bfc150f451bc3036e8c36d5a9ba7facfb71d32c3931b566580dde5cb64736f6c63430008160033",
					"opcodes": "PUSH1 0x80 PUSH1 0x40 MSTORE CALLVALUE DUP1 ISZERO PUSH2 0xF JUMPI PUSH0 DUP1 REVERT JUMPDEST POP PUSH1 0x1 PUSH0 DUP1 PUSH2 0x100 EXP DUP2 SLOAD DUP2 PUSH1 0xFF MUL NOT AND SWAP1 DUP4 PUSH1 0x2 DUP2 GT ISZERO PUSH2 0x34 JUMPI PUSH2 0x33 PUSH2 0x3E JUMP JUMPDEST JUMPDEST MUL OR SWAP1 SSTORE POP PUSH2 0x6B JUMP JUMPDEST PUSH32 0x4E487B7100000000000000000000000000000000000000000000000000000000 PUSH0 MSTORE PUSH1 0x21 PUSH1 0x4 MSTORE PUSH1 0x24 PUSH0 REVERT JUMPDEST PUSH2 0x1C1 DUP1 PUSH2 0x78 PUSH0 CODECOPY PUSH0 RETURN INVALID PUSH1 0x80 PUSH1 0x40 MSTORE CALLVALUE DUP1 ISZERO PUSH2 0xF JUMPI PUSH0 DUP1 REVERT JUMPDEST POP PUSH1 0x4 CALLDATASIZE LT PUSH2 0x34 JUMPI PUSH0 CALLDATALOAD PUSH1 0xE0 SHR DUP1 PUSH4 0x591D3AB EQ PUSH2 0x38 JUMPI DUP1 PUSH4 0xC3F6ACF EQ PUSH2 0x54 JUMPI JUMPDEST PUSH0 DUP1 REVERT JUMPDEST PUSH2 0x52 PUSH1 0x4 DUP1 CALLDATASIZE SUB DUP2 ADD SWAP1 PUSH2 0x4D SWAP2 SWAP1 PUSH2 0xD4 JUMP JUMPDEST PUSH2 0x72 JUMP JUMPDEST STOP JUMPDEST PUSH2 0x5C PUSH2 0x9D JUMP JUMPDEST PUSH1 0x40 MLOAD PUSH2 0x69 SWAP2 SWAP1 PUSH2 0x172 JUMP JUMPDEST PUSH1 0x40 MLOAD DUP1 SWAP2 SUB SWAP1 RETURN JUMPDEST DUP1 PUSH0 DUP1 PUSH2 0x100 EXP DUP2 SLOAD DUP2 PUSH1 0xFF MUL NOT AND SWAP1 DUP4 PUSH1 0x2 DUP2 GT ISZERO PUSH2 0x95 JUMPI PUSH2 0x94 PUSH2 0xFF JUMP JUMPDEST JUMPDEST MUL OR SWAP1 SSTORE POP POP JUMP JUMPDEST PUSH0 DUP1 SLOAD SWAP1 PUSH2 0x100 EXP SWAP1 DIV PUSH1 0xFF AND DUP2 JUMP JUMPDEST PUSH0 DUP1 REVERT JUMPDEST PUSH1 0x3 DUP2 LT PUSH2 0xBD JUMPI PUSH0 DUP1 REVERT JUMPDEST POP JUMP JUMPDEST PUSH0 DUP2 CALLDATALOAD SWAP1 POP PUSH2 0xCE DUP2 PUSH2 0xB1 JUMP JUMPDEST SWAP3 SWAP2 POP POP JUMP JUMPDEST PUSH0 PUSH1 0x20 DUP3 DUP5 SUB SLT ISZERO PUSH2 0xE9 JUMPI PUSH2 0xE8 PUSH2 0xAD JUMP JUMPDEST JUMPDEST PUSH0 PUSH2 0xF6 DUP5 DUP3 DUP6 ADD PUSH2 0xC0 JUMP JUMPDEST SWAP2 POP POP SWAP3 SWAP2 POP POP JUMP JUMPDEST PUSH32 0x4E487B7100000000000000000000000000000000000000000000000000000000 PUSH0 MSTORE PUSH1 0x21 PUSH1 0x4 MSTORE PUSH1 0x24 PUSH0 REVERT JUMPDEST PUSH1 0x3 DUP2 LT PUSH2 0x13D JUMPI PUSH2 0x13C PUSH2 0xFF JUMP JUMPDEST JUMPDEST POP JUMP JUMPDEST PUSH0 DUP2 SWAP1 POP PUSH2 0x14D DUP3 PUSH2 0x12C JUMP JUMPDEST SWAP2 SWAP1 POP JUMP JUMPDEST PUSH0 PUSH2 0x15C DUP3 PUSH2 0x140 JUMP JUMPDEST SWAP1 POP SWAP2 SWAP1 POP JUMP JUMPDEST PUSH2 0x16C DUP2 PUSH2 0x152 JUMP JUMPDEST DUP3 MSTORE POP POP JUMP JUMPDEST PUSH0 PUSH1 0x20 DUP3 ADD SWAP1 POP PUSH2 0x185 PUSH0 DUP4 ADD DUP5 PUSH2 0x163 JUMP JUMPDEST SWAP3 SWAP2 POP POP JUMP INVALID LOG2 PUSH5 0x6970667358 0x22 SLT KECCAK256 0xB6 PUSH13 0x1AB4BFC150F451BC3036E8C36D GAS SWAP12 0xA7 STATICCALL 0xCF 0xB7 SAR ORIGIN 0xC3 SWAP4 SHL JUMP PUSH6 0x80DDE5CB6473 PUSH16 0x6C634300081600330000000000000000 "
				},
				"gasEstimates": {
					"creation": {
						"codeDepositCost": "89800",
						"executionCost": "24437",
						"totalCost": "114237"
					},
					"external": {
						"currentState()": "2551",
						"updateState(uint8)": "24623"
					}
				},
				"methodIdentifiers": {
					"currentState()": "0c3f6acf",
					"updateState(uint8)": "0591d3ab"
				}
			},
			"storageLayout": {
				"storage": [
					{
						"astId": 8,
						"contract": "Solidity Advance/x12.enum.sol:demo",
						"label": "currentState",
						"offset": 0,
						"slot": "0",
						"type": "t_enum(State)5"
					}
				],
				"types": {
					"t_enum(State)5": {
						"encoding": "inplace",
						"label": "enum demo.State",
						"numberOfBytes": "1"
					}
				}
			},
			"userdoc": {
				"kind": "user",
				"methods": {},
				"version": 1
			}
		}
	}
}