{
	"Solidity Advance/6structArray.sol": {
		"demo": {
			"abi": [
				{
					"inputs": [
						{
							"internalType": "uint256",
							"name": "index",
							"type": "uint256"
						},
						{
							"internalType": "string",
							"name": "_name",
							"type": "string"
						},
						{
							"internalType": "uint256",
							"name": "_roll",
							"type": "uint256"
						},
						{
							"internalType": "bool",
							"name": "_pass",
							"type": "bool"
						}
					],
					"name": "insertData",
					"outputs": [],
					"stateMutability": "nonpayable",
					"type": "function"
				},
				{
					"inputs": [
						{
							"internalType": "uint256",
							"name": "index",
							"type": "uint256"
						}
					],
					"name": "nameAccess",
					"outputs": [
						{
							"internalType": "string",
							"name": "",
							"type": "string"
						}
					],
					"stateMutability": "view",
					"type": "function"
				},
				{
					"inputs": [
						{
							"internalType": "uint256",
							"name": "",
							"type": "uint256"
						}
					],
					"name": "s",
					"outputs": [
						{
							"internalType": "string",
							"name": "name",
							"type": "string"
						},
						{
							"internalType": "uint256",
							"name": "roll",
							"type": "uint256"
						},
						{
							"internalType": "bool",
							"name": "pass",
							"type": "bool"
						}
					],
					"stateMutability": "view",
					"type": "function"
				}
			],
			"devdoc": {
				"kind": "dev",
				"methods": {},
				"version": 1
			},
			"evm": {
				"assembly": "    /* \"Solidity Advance/6structArray.sol\":70:465  contract demo{... */\n  mstore(0x40, 0x80)\n  callvalue\n  dup1\n  iszero\n  tag_1\n  jumpi\n  0x00\n  dup1\n  revert\ntag_1:\n  pop\n  dataSize(sub_0)\n  dup1\n  dataOffset(sub_0)\n  0x00\n  codecopy\n  0x00\n  return\nstop\n\nsub_0: assembly {\n        /* \"Solidity Advance/6structArray.sol\":70:465  contract demo{... */\n      mstore(0x40, 0x80)\n      callvalue\n      dup1\n      iszero\n      tag_1\n      jumpi\n      0x00\n      dup1\n      revert\n    tag_1:\n      pop\n      jumpi(tag_2, lt(calldatasize, 0x04))\n      shr(0xe0, calldataload(0x00))\n      dup1\n      0x3188b173\n      eq\n      tag_3\n      jumpi\n      dup1\n      0x52efd685\n      eq\n      tag_4\n      jumpi\n      dup1\n      0xaaa97d08\n      eq\n      tag_5\n      jumpi\n    tag_2:\n      0x00\n      dup1\n      revert\n        /* \"Solidity Advance/6structArray.sol\":210:346  function insertData(uint index,string memory _name, uint _roll, bool _pass) public{... */\n    tag_3:\n      tag_6\n      0x04\n      dup1\n      calldatasize\n      sub\n      dup2\n      add\n      swap1\n      tag_7\n      swap2\n      swap1\n      tag_8\n      jump\t// in\n    tag_7:\n      tag_9\n      jump\t// in\n    tag_6:\n      stop\n        /* \"Solidity Advance/6structArray.sol\":182:201  Student[3] public s */\n    tag_4:\n      tag_10\n      0x04\n      dup1\n      calldatasize\n      sub\n      dup2\n      add\n      swap1\n      tag_11\n      swap2\n      swap1\n      tag_12\n      jump\t// in\n    tag_11:\n      tag_13\n      jump\t// in\n    tag_10:\n      mload(0x40)\n      tag_14\n      swap4\n      swap3\n      swap2\n      swap1\n      tag_15\n      jump\t// in\n    tag_14:\n      mload(0x40)\n      dup1\n      swap2\n      sub\n      swap1\n      return\n        /* \"Solidity Advance/6structArray.sol\":354:460  function nameAccess(uint index) public view returns (string memory){... */\n    tag_5:\n      tag_16\n      0x04\n      dup1\n      calldatasize\n      sub\n      dup2\n      add\n      swap1\n      tag_17\n      swap2\n      swap1\n      tag_12\n      jump\t// in\n    tag_17:\n      tag_18\n      jump\t// in\n    tag_16:\n      mload(0x40)\n      tag_19\n      swap2\n      swap1\n      tag_20\n      jump\t// in\n    tag_19:\n      mload(0x40)\n      dup1\n      swap2\n      sub\n      swap1\n      return\n        /* \"Solidity Advance/6structArray.sol\":210:346  function insertData(uint index,string memory _name, uint _roll, bool _pass) public{... */\n    tag_9:\n        /* \"Solidity Advance/6structArray.sol\":312:338  Student(_name,_roll,_pass) */\n      mload(0x40)\n      dup1\n      0x60\n      add\n      0x40\n      mstore\n      dup1\n        /* \"Solidity Advance/6structArray.sol\":320:325  _name */\n      dup5\n        /* \"Solidity Advance/6structArray.sol\":312:338  Student(_name,_roll,_pass) */\n      dup2\n      mstore\n      0x20\n      add\n        /* \"Solidity Advance/6structArray.sol\":326:331  _roll */\n      dup4\n        /* \"Solidity Advance/6structArray.sol\":312:338  Student(_name,_roll,_pass) */\n      dup2\n      mstore\n      0x20\n      add\n        /* \"Solidity Advance/6structArray.sol\":332:337  _pass */\n      dup3\n        /* \"Solidity Advance/6structArray.sol\":312:338  Student(_name,_roll,_pass) */\n      iszero\n      iszero\n      dup2\n      mstore\n      pop\n        /* \"Solidity Advance/6structArray.sol\":303:304  s */\n      0x00\n        /* \"Solidity Advance/6structArray.sol\":305:310  index */\n      dup6\n        /* \"Solidity Advance/6structArray.sol\":303:311  s[index] */\n      0x03\n      dup2\n      lt\n      tag_22\n      jumpi\n      tag_23\n      tag_24\n      jump\t// in\n    tag_23:\n    tag_22:\n      0x03\n      mul\n      add\n        /* \"Solidity Advance/6structArray.sol\":303:338  s[index]=Student(_name,_roll,_pass) */\n      0x00\n      dup3\n      add\n      mload\n      dup2\n      0x00\n      add\n      swap1\n      dup2\n      tag_26\n      swap2\n      swap1\n      tag_27\n      jump\t// in\n    tag_26:\n      pop\n      0x20\n      dup3\n      add\n      mload\n      dup2\n      0x01\n      add\n      sstore\n      0x40\n      dup3\n      add\n      mload\n      dup2\n      0x02\n      add\n      exp(0x0100, 0x00)\n      dup2\n      sload\n      dup2\n      0xff\n      mul\n      not\n      and\n      swap1\n      dup4\n      iszero\n      iszero\n      mul\n      or\n      swap1\n      sstore\n      pop\n      swap1\n      pop\n      pop\n        /* \"Solidity Advance/6structArray.sol\":210:346  function insertData(uint index,string memory _name, uint _roll, bool _pass) public{... */\n      pop\n      pop\n      pop\n      pop\n      jump\t// out\n        /* \"Solidity Advance/6structArray.sol\":182:201  Student[3] public s */\n    tag_13:\n      0x00\n      dup2\n      0x03\n      dup2\n      lt\n      tag_28\n      jumpi\n      0x00\n      dup1\n      revert\n    tag_28:\n      0x03\n      mul\n      add\n      0x00\n      swap2\n      pop\n      swap1\n      pop\n      dup1\n      0x00\n      add\n      dup1\n      sload\n      tag_30\n      swap1\n      tag_31\n      jump\t// in\n    tag_30:\n      dup1\n      0x1f\n      add\n      0x20\n      dup1\n      swap2\n      div\n      mul\n      0x20\n      add\n      mload(0x40)\n      swap1\n      dup2\n      add\n      0x40\n      mstore\n      dup1\n      swap3\n      swap2\n      swap1\n      dup2\n      dup2\n      mstore\n      0x20\n      add\n      dup3\n      dup1\n      sload\n      tag_32\n      swap1\n      tag_31\n      jump\t// in\n    tag_32:\n      dup1\n      iszero\n      tag_33\n      jumpi\n      dup1\n      0x1f\n      lt\n      tag_34\n      jumpi\n      0x0100\n      dup1\n      dup4\n      sload\n      div\n      mul\n      dup4\n      mstore\n      swap2\n      0x20\n      add\n      swap2\n      jump(tag_33)\n    tag_34:\n      dup3\n      add\n      swap2\n      swap1\n      0x00\n      mstore\n      keccak256(0x00, 0x20)\n      swap1\n    tag_35:\n      dup2\n      sload\n      dup2\n      mstore\n      swap1\n      0x01\n      add\n      swap1\n      0x20\n      add\n      dup1\n      dup4\n      gt\n      tag_35\n      jumpi\n      dup3\n      swap1\n      sub\n      0x1f\n      and\n      dup3\n      add\n      swap2\n    tag_33:\n      pop\n      pop\n      pop\n      pop\n      pop\n      swap1\n      dup1\n      0x01\n      add\n      sload\n      swap1\n      dup1\n      0x02\n      add\n      0x00\n      swap1\n      sload\n      swap1\n      0x0100\n      exp\n      swap1\n      div\n      0xff\n      and\n      swap1\n      pop\n      dup4\n      jump\t// out\n        /* \"Solidity Advance/6structArray.sol\":354:460  function nameAccess(uint index) public view returns (string memory){... */\n    tag_18:\n        /* \"Solidity Advance/6structArray.sol\":407:420  string memory */\n      0x60\n        /* \"Solidity Advance/6structArray.sol\":439:440  s */\n      0x00\n        /* \"Solidity Advance/6structArray.sol\":441:446  index */\n      dup3\n        /* \"Solidity Advance/6structArray.sol\":439:447  s[index] */\n      0x03\n      dup2\n      lt\n      tag_37\n      jumpi\n      tag_38\n      tag_24\n      jump\t// in\n    tag_38:\n    tag_37:\n      0x03\n      mul\n      add\n        /* \"Solidity Advance/6structArray.sol\":439:452  s[index].name */\n      0x00\n      add\n        /* \"Solidity Advance/6structArray.sol\":432:452  return s[index].name */\n      dup1\n      sload\n      tag_40\n      swap1\n      tag_31\n      jump\t// in\n    tag_40:\n      dup1\n      0x1f\n      add\n      0x20\n      dup1\n      swap2\n      div\n      mul\n      0x20\n      add\n      mload(0x40)\n      swap1\n      dup2\n      add\n      0x40\n      mstore\n      dup1\n      swap3\n      swap2\n      swap1\n      dup2\n      dup2\n      mstore\n      0x20\n      add\n      dup3\n      dup1\n      sload\n      tag_41\n      swap1\n      tag_31\n      jump\t// in\n    tag_41:\n      dup1\n      iszero\n      tag_42\n      jumpi\n      dup1\n      0x1f\n      lt\n      tag_43\n      jumpi\n      0x0100\n      dup1\n      dup4\n      sload\n      div\n      mul\n      dup4\n      mstore\n      swap2\n      0x20\n      add\n      swap2\n      jump(tag_42)\n    tag_43:\n      dup3\n      add\n      swap2\n      swap1\n      0x00\n      mstore\n      keccak256(0x00, 0x20)\n      swap1\n    tag_44:\n      dup2\n      sload\n      dup2\n      mstore\n      swap1\n      0x01\n      add\n      swap1\n      0x20\n      add\n      dup1\n      dup4\n      gt\n      tag_44\n      jumpi\n      dup3\n      swap1\n      sub\n      0x1f\n      and\n      dup3\n      add\n      swap2\n    tag_42:\n      pop\n      pop\n      pop\n      pop\n      pop\n      swap1\n      pop\n        /* \"Solidity Advance/6structArray.sol\":354:460  function nameAccess(uint index) public view returns (string memory){... */\n      swap2\n      swap1\n      pop\n      jump\t// out\n        /* \"#utility.yul\":7:82   */\n    tag_45:\n        /* \"#utility.yul\":40:46   */\n      0x00\n        /* \"#utility.yul\":73:75   */\n      0x40\n        /* \"#utility.yul\":67:76   */\n      mload\n        /* \"#utility.yul\":57:76   */\n      swap1\n      pop\n        /* \"#utility.yul\":7:82   */\n      swap1\n      jump\t// out\n        /* \"#utility.yul\":88:205   */\n    tag_46:\n        /* \"#utility.yul\":197:198   */\n      0x00\n        /* \"#utility.yul\":194:195   */\n      dup1\n        /* \"#utility.yul\":187:199   */\n      revert\n        /* \"#utility.yul\":211:328   */\n    tag_47:\n        /* \"#utility.yul\":320:321   */\n      0x00\n        /* \"#utility.yul\":317:318   */\n      dup1\n        /* \"#utility.yul\":310:322   */\n      revert\n        /* \"#utility.yul\":334:411   */\n    tag_48:\n        /* \"#utility.yul\":371:378   */\n      0x00\n        /* \"#utility.yul\":400:405   */\n      dup2\n        /* \"#utility.yul\":389:405   */\n      swap1\n      pop\n        /* \"#utility.yul\":334:411   */\n      swap2\n      swap1\n      pop\n      jump\t// out\n        /* \"#utility.yul\":417:539   */\n    tag_49:\n        /* \"#utility.yul\":490:514   */\n      tag_92\n        /* \"#utility.yul\":508:513   */\n      dup2\n        /* \"#utility.yul\":490:514   */\n      tag_48\n      jump\t// in\n    tag_92:\n        /* \"#utility.yul\":483:488   */\n      dup2\n        /* \"#utility.yul\":480:515   */\n      eq\n        /* \"#utility.yul\":470:533   */\n      tag_93\n      jumpi\n        /* \"#utility.yul\":529:530   */\n      0x00\n        /* \"#utility.yul\":526:527   */\n      dup1\n        /* \"#utility.yul\":519:531   */\n      revert\n        /* \"#utility.yul\":470:533   */\n    tag_93:\n        /* \"#utility.yul\":417:539   */\n      pop\n      jump\t// out\n        /* \"#utility.yul\":545:684   */\n    tag_50:\n        /* \"#utility.yul\":591:596   */\n      0x00\n        /* \"#utility.yul\":629:635   */\n      dup2\n        /* \"#utility.yul\":616:636   */\n      calldataload\n        /* \"#utility.yul\":607:636   */\n      swap1\n      pop\n        /* \"#utility.yul\":645:678   */\n      tag_95\n        /* \"#utility.yul\":672:677   */\n      dup2\n        /* \"#utility.yul\":645:678   */\n      tag_49\n      jump\t// in\n    tag_95:\n        /* \"#utility.yul\":545:684   */\n      swap3\n      swap2\n      pop\n      pop\n      jump\t// out\n        /* \"#utility.yul\":690:807   */\n    tag_51:\n        /* \"#utility.yul\":799:800   */\n      0x00\n        /* \"#utility.yul\":796:797   */\n      dup1\n        /* \"#utility.yul\":789:801   */\n      revert\n        /* \"#utility.yul\":813:930   */\n    tag_52:\n        /* \"#utility.yul\":922:923   */\n      0x00\n        /* \"#utility.yul\":919:920   */\n      dup1\n        /* \"#utility.yul\":912:924   */\n      revert\n        /* \"#utility.yul\":936:1038   */\n    tag_53:\n        /* \"#utility.yul\":977:983   */\n      0x00\n        /* \"#utility.yul\":1028:1030   */\n      0x1f\n        /* \"#utility.yul\":1024:1031   */\n      not\n        /* \"#utility.yul\":1019:1021   */\n      0x1f\n        /* \"#utility.yul\":1012:1017   */\n      dup4\n        /* \"#utility.yul\":1008:1022   */\n      add\n        /* \"#utility.yul\":1004:1032   */\n      and\n        /* \"#utility.yul\":994:1032   */\n      swap1\n      pop\n        /* \"#utility.yul\":936:1038   */\n      swap2\n      swap1\n      pop\n      jump\t// out\n        /* \"#utility.yul\":1044:1224   */\n    tag_54:\n        /* \"#utility.yul\":1092:1169   */\n      0x4e487b7100000000000000000000000000000000000000000000000000000000\n        /* \"#utility.yul\":1089:1090   */\n      0x00\n        /* \"#utility.yul\":1082:1170   */\n      mstore\n        /* \"#utility.yul\":1189:1193   */\n      0x41\n        /* \"#utility.yul\":1186:1187   */\n      0x04\n        /* \"#utility.yul\":1179:1194   */\n      mstore\n        /* \"#utility.yul\":1213:1217   */\n      0x24\n        /* \"#utility.yul\":1210:1211   */\n      0x00\n        /* \"#utility.yul\":1203:1218   */\n      revert\n        /* \"#utility.yul\":1230:1511   */\n    tag_55:\n        /* \"#utility.yul\":1313:1340   */\n      tag_101\n        /* \"#utility.yul\":1335:1339   */\n      dup3\n        /* \"#utility.yul\":1313:1340   */\n      tag_53\n      jump\t// in\n    tag_101:\n        /* \"#utility.yul\":1305:1311   */\n      dup2\n        /* \"#utility.yul\":1301:1341   */\n      add\n        /* \"#utility.yul\":1443:1449   */\n      dup2\n        /* \"#utility.yul\":1431:1441   */\n      dup2\n        /* \"#utility.yul\":1428:1450   */\n      lt\n        /* \"#utility.yul\":1407:1425   */\n      0xffffffffffffffff\n        /* \"#utility.yul\":1395:1405   */\n      dup3\n        /* \"#utility.yul\":1392:1426   */\n      gt\n        /* \"#utility.yul\":1389:1451   */\n      or\n        /* \"#utility.yul\":1386:1474   */\n      iszero\n      tag_102\n      jumpi\n        /* \"#utility.yul\":1454:1472   */\n      tag_103\n      tag_54\n      jump\t// in\n    tag_103:\n        /* \"#utility.yul\":1386:1474   */\n    tag_102:\n        /* \"#utility.yul\":1494:1504   */\n      dup1\n        /* \"#utility.yul\":1490:1492   */\n      0x40\n        /* \"#utility.yul\":1483:1505   */\n      mstore\n        /* \"#utility.yul\":1273:1511   */\n      pop\n        /* \"#utility.yul\":1230:1511   */\n      pop\n      pop\n      jump\t// out\n        /* \"#utility.yul\":1517:1646   */\n    tag_56:\n        /* \"#utility.yul\":1551:1557   */\n      0x00\n        /* \"#utility.yul\":1578:1598   */\n      tag_105\n      tag_45\n      jump\t// in\n    tag_105:\n        /* \"#utility.yul\":1568:1598   */\n      swap1\n      pop\n        /* \"#utility.yul\":1607:1640   */\n      tag_106\n        /* \"#utility.yul\":1635:1639   */\n      dup3\n        /* \"#utility.yul\":1627:1633   */\n      dup3\n        /* \"#utility.yul\":1607:1640   */\n      tag_55\n      jump\t// in\n    tag_106:\n        /* \"#utility.yul\":1517:1646   */\n      swap2\n      swap1\n      pop\n      jump\t// out\n        /* \"#utility.yul\":1652:1960   */\n    tag_57:\n        /* \"#utility.yul\":1714:1718   */\n      0x00\n        /* \"#utility.yul\":1804:1822   */\n      0xffffffffffffffff\n        /* \"#utility.yul\":1796:1802   */\n      dup3\n        /* \"#utility.yul\":1793:1823   */\n      gt\n        /* \"#utility.yul\":1790:1846   */\n      iszero\n      tag_108\n      jumpi\n        /* \"#utility.yul\":1826:1844   */\n      tag_109\n      tag_54\n      jump\t// in\n    tag_109:\n        /* \"#utility.yul\":1790:1846   */\n    tag_108:\n        /* \"#utility.yul\":1864:1893   */\n      tag_110\n        /* \"#utility.yul\":1886:1892   */\n      dup3\n        /* \"#utility.yul\":1864:1893   */\n      tag_53\n      jump\t// in\n    tag_110:\n        /* \"#utility.yul\":1856:1893   */\n      swap1\n      pop\n        /* \"#utility.yul\":1948:1952   */\n      0x20\n        /* \"#utility.yul\":1942:1946   */\n      dup2\n        /* \"#utility.yul\":1938:1953   */\n      add\n        /* \"#utility.yul\":1930:1953   */\n      swap1\n      pop\n        /* \"#utility.yul\":1652:1960   */\n      swap2\n      swap1\n      pop\n      jump\t// out\n        /* \"#utility.yul\":1966:2112   */\n    tag_58:\n        /* \"#utility.yul\":2063:2069   */\n      dup3\n        /* \"#utility.yul\":2058:2061   */\n      dup2\n        /* \"#utility.yul\":2053:2056   */\n      dup4\n        /* \"#utility.yul\":2040:2070   */\n      calldatacopy\n        /* \"#utility.yul\":2104:2105   */\n      0x00\n        /* \"#utility.yul\":2095:2101   */\n      dup4\n        /* \"#utility.yul\":2090:2093   */\n      dup4\n        /* \"#utility.yul\":2086:2102   */\n      add\n        /* \"#utility.yul\":2079:2106   */\n      mstore\n        /* \"#utility.yul\":1966:2112   */\n      pop\n      pop\n      pop\n      jump\t// out\n        /* \"#utility.yul\":2118:2543   */\n    tag_59:\n        /* \"#utility.yul\":2196:2201   */\n      0x00\n        /* \"#utility.yul\":2221:2287   */\n      tag_113\n        /* \"#utility.yul\":2237:2286   */\n      tag_114\n        /* \"#utility.yul\":2279:2285   */\n      dup5\n        /* \"#utility.yul\":2237:2286   */\n      tag_57\n      jump\t// in\n    tag_114:\n        /* \"#utility.yul\":2221:2287   */\n      tag_56\n      jump\t// in\n    tag_113:\n        /* \"#utility.yul\":2212:2287   */\n      swap1\n      pop\n        /* \"#utility.yul\":2310:2316   */\n      dup3\n        /* \"#utility.yul\":2303:2308   */\n      dup2\n        /* \"#utility.yul\":2296:2317   */\n      mstore\n        /* \"#utility.yul\":2348:2352   */\n      0x20\n        /* \"#utility.yul\":2341:2346   */\n      dup2\n        /* \"#utility.yul\":2337:2353   */\n      add\n        /* \"#utility.yul\":2386:2389   */\n      dup5\n        /* \"#utility.yul\":2377:2383   */\n      dup5\n        /* \"#utility.yul\":2372:2375   */\n      dup5\n        /* \"#utility.yul\":2368:2384   */\n      add\n        /* \"#utility.yul\":2365:2390   */\n      gt\n        /* \"#utility.yul\":2362:2474   */\n      iszero\n      tag_115\n      jumpi\n        /* \"#utility.yul\":2393:2472   */\n      tag_116\n      tag_52\n      jump\t// in\n    tag_116:\n        /* \"#utility.yul\":2362:2474   */\n    tag_115:\n        /* \"#utility.yul\":2483:2537   */\n      tag_117\n        /* \"#utility.yul\":2530:2536   */\n      dup5\n        /* \"#utility.yul\":2525:2528   */\n      dup3\n        /* \"#utility.yul\":2520:2523   */\n      dup6\n        /* \"#utility.yul\":2483:2537   */\n      tag_58\n      jump\t// in\n    tag_117:\n        /* \"#utility.yul\":2202:2543   */\n      pop\n        /* \"#utility.yul\":2118:2543   */\n      swap4\n      swap3\n      pop\n      pop\n      pop\n      jump\t// out\n        /* \"#utility.yul\":2563:2903   */\n    tag_60:\n        /* \"#utility.yul\":2619:2624   */\n      0x00\n        /* \"#utility.yul\":2668:2671   */\n      dup3\n        /* \"#utility.yul\":2661:2665   */\n      0x1f\n        /* \"#utility.yul\":2653:2659   */\n      dup4\n        /* \"#utility.yul\":2649:2666   */\n      add\n        /* \"#utility.yul\":2645:2672   */\n      slt\n        /* \"#utility.yul\":2635:2757   */\n      tag_119\n      jumpi\n        /* \"#utility.yul\":2676:2755   */\n      tag_120\n      tag_51\n      jump\t// in\n    tag_120:\n        /* \"#utility.yul\":2635:2757   */\n    tag_119:\n        /* \"#utility.yul\":2793:2799   */\n      dup2\n        /* \"#utility.yul\":2780:2800   */\n      calldataload\n        /* \"#utility.yul\":2818:2897   */\n      tag_121\n        /* \"#utility.yul\":2893:2896   */\n      dup5\n        /* \"#utility.yul\":2885:2891   */\n      dup3\n        /* \"#utility.yul\":2878:2882   */\n      0x20\n        /* \"#utility.yul\":2870:2876   */\n      dup7\n        /* \"#utility.yul\":2866:2883   */\n      add\n        /* \"#utility.yul\":2818:2897   */\n      tag_59\n      jump\t// in\n    tag_121:\n        /* \"#utility.yul\":2809:2897   */\n      swap2\n      pop\n        /* \"#utility.yul\":2625:2903   */\n      pop\n        /* \"#utility.yul\":2563:2903   */\n      swap3\n      swap2\n      pop\n      pop\n      jump\t// out\n        /* \"#utility.yul\":2909:2999   */\n    tag_61:\n        /* \"#utility.yul\":2943:2950   */\n      0x00\n        /* \"#utility.yul\":2986:2991   */\n      dup2\n        /* \"#utility.yul\":2979:2992   */\n      iszero\n        /* \"#utility.yul\":2972:2993   */\n      iszero\n        /* \"#utility.yul\":2961:2993   */\n      swap1\n      pop\n        /* \"#utility.yul\":2909:2999   */\n      swap2\n      swap1\n      pop\n      jump\t// out\n        /* \"#utility.yul\":3005:3121   */\n    tag_62:\n        /* \"#utility.yul\":3075:3096   */\n      tag_124\n        /* \"#utility.yul\":3090:3095   */\n      dup2\n        /* \"#utility.yul\":3075:3096   */\n      tag_61\n      jump\t// in\n    tag_124:\n        /* \"#utility.yul\":3068:3073   */\n      dup2\n        /* \"#utility.yul\":3065:3097   */\n      eq\n        /* \"#utility.yul\":3055:3115   */\n      tag_125\n      jumpi\n        /* \"#utility.yul\":3111:3112   */\n      0x00\n        /* \"#utility.yul\":3108:3109   */\n      dup1\n        /* \"#utility.yul\":3101:3113   */\n      revert\n        /* \"#utility.yul\":3055:3115   */\n    tag_125:\n        /* \"#utility.yul\":3005:3121   */\n      pop\n      jump\t// out\n        /* \"#utility.yul\":3127:3260   */\n    tag_63:\n        /* \"#utility.yul\":3170:3175   */\n      0x00\n        /* \"#utility.yul\":3208:3214   */\n      dup2\n        /* \"#utility.yul\":3195:3215   */\n      calldataload\n        /* \"#utility.yul\":3186:3215   */\n      swap1\n      pop\n        /* \"#utility.yul\":3224:3254   */\n      tag_127\n        /* \"#utility.yul\":3248:3253   */\n      dup2\n        /* \"#utility.yul\":3224:3254   */\n      tag_62\n      jump\t// in\n    tag_127:\n        /* \"#utility.yul\":3127:3260   */\n      swap3\n      swap2\n      pop\n      pop\n      jump\t// out\n        /* \"#utility.yul\":3266:4205   */\n    tag_8:\n        /* \"#utility.yul\":3359:3365   */\n      0x00\n        /* \"#utility.yul\":3367:3373   */\n      dup1\n        /* \"#utility.yul\":3375:3381   */\n      0x00\n        /* \"#utility.yul\":3383:3389   */\n      dup1\n        /* \"#utility.yul\":3432:3435   */\n      0x80\n        /* \"#utility.yul\":3420:3429   */\n      dup6\n        /* \"#utility.yul\":3411:3418   */\n      dup8\n        /* \"#utility.yul\":3407:3430   */\n      sub\n        /* \"#utility.yul\":3403:3436   */\n      slt\n        /* \"#utility.yul\":3400:3520   */\n      iszero\n      tag_129\n      jumpi\n        /* \"#utility.yul\":3439:3518   */\n      tag_130\n      tag_46\n      jump\t// in\n    tag_130:\n        /* \"#utility.yul\":3400:3520   */\n    tag_129:\n        /* \"#utility.yul\":3559:3560   */\n      0x00\n        /* \"#utility.yul\":3584:3637   */\n      tag_131\n        /* \"#utility.yul\":3629:3636   */\n      dup8\n        /* \"#utility.yul\":3620:3626   */\n      dup3\n        /* \"#utility.yul\":3609:3618   */\n      dup9\n        /* \"#utility.yul\":3605:3627   */\n      add\n        /* \"#utility.yul\":3584:3637   */\n      tag_50\n      jump\t// in\n    tag_131:\n        /* \"#utility.yul\":3574:3637   */\n      swap5\n      pop\n        /* \"#utility.yul\":3530:3647   */\n      pop\n        /* \"#utility.yul\":3714:3716   */\n      0x20\n        /* \"#utility.yul\":3703:3712   */\n      dup6\n        /* \"#utility.yul\":3699:3717   */\n      add\n        /* \"#utility.yul\":3686:3718   */\n      calldataload\n        /* \"#utility.yul\":3745:3763   */\n      0xffffffffffffffff\n        /* \"#utility.yul\":3737:3743   */\n      dup2\n        /* \"#utility.yul\":3734:3764   */\n      gt\n        /* \"#utility.yul\":3731:3848   */\n      iszero\n      tag_132\n      jumpi\n        /* \"#utility.yul\":3767:3846   */\n      tag_133\n      tag_47\n      jump\t// in\n    tag_133:\n        /* \"#utility.yul\":3731:3848   */\n    tag_132:\n        /* \"#utility.yul\":3872:3935   */\n      tag_134\n        /* \"#utility.yul\":3927:3934   */\n      dup8\n        /* \"#utility.yul\":3918:3924   */\n      dup3\n        /* \"#utility.yul\":3907:3916   */\n      dup9\n        /* \"#utility.yul\":3903:3925   */\n      add\n        /* \"#utility.yul\":3872:3935   */\n      tag_60\n      jump\t// in\n    tag_134:\n        /* \"#utility.yul\":3862:3935   */\n      swap4\n      pop\n        /* \"#utility.yul\":3657:3945   */\n      pop\n        /* \"#utility.yul\":3984:3986   */\n      0x40\n        /* \"#utility.yul\":4010:4063   */\n      tag_135\n        /* \"#utility.yul\":4055:4062   */\n      dup8\n        /* \"#utility.yul\":4046:4052   */\n      dup3\n        /* \"#utility.yul\":4035:4044   */\n      dup9\n        /* \"#utility.yul\":4031:4053   */\n      add\n        /* \"#utility.yul\":4010:4063   */\n      tag_50\n      jump\t// in\n    tag_135:\n        /* \"#utility.yul\":4000:4063   */\n      swap3\n      pop\n        /* \"#utility.yul\":3955:4073   */\n      pop\n        /* \"#utility.yul\":4112:4114   */\n      0x60\n        /* \"#utility.yul\":4138:4188   */\n      tag_136\n        /* \"#utility.yul\":4180:4187   */\n      dup8\n        /* \"#utility.yul\":4171:4177   */\n      dup3\n        /* \"#utility.yul\":4160:4169   */\n      dup9\n        /* \"#utility.yul\":4156:4178   */\n      add\n        /* \"#utility.yul\":4138:4188   */\n      tag_63\n      jump\t// in\n    tag_136:\n        /* \"#utility.yul\":4128:4188   */\n      swap2\n      pop\n        /* \"#utility.yul\":4083:4198   */\n      pop\n        /* \"#utility.yul\":3266:4205   */\n      swap3\n      swap6\n      swap2\n      swap5\n      pop\n      swap3\n      pop\n      jump\t// out\n        /* \"#utility.yul\":4211:4540   */\n    tag_12:\n        /* \"#utility.yul\":4270:4276   */\n      0x00\n        /* \"#utility.yul\":4319:4321   */\n      0x20\n        /* \"#utility.yul\":4307:4316   */\n      dup3\n        /* \"#utility.yul\":4298:4305   */\n      dup5\n        /* \"#utility.yul\":4294:4317   */\n      sub\n        /* \"#utility.yul\":4290:4322   */\n      slt\n        /* \"#utility.yul\":4287:4406   */\n      iszero\n      tag_138\n      jumpi\n        /* \"#utility.yul\":4325:4404   */\n      tag_139\n      tag_46\n      jump\t// in\n    tag_139:\n        /* \"#utility.yul\":4287:4406   */\n    tag_138:\n        /* \"#utility.yul\":4445:4446   */\n      0x00\n        /* \"#utility.yul\":4470:4523   */\n      tag_140\n        /* \"#utility.yul\":4515:4522   */\n      dup5\n        /* \"#utility.yul\":4506:4512   */\n      dup3\n        /* \"#utility.yul\":4495:4504   */\n      dup6\n        /* \"#utility.yul\":4491:4513   */\n      add\n        /* \"#utility.yul\":4470:4523   */\n      tag_50\n      jump\t// in\n    tag_140:\n        /* \"#utility.yul\":4460:4523   */\n      swap2\n      pop\n        /* \"#utility.yul\":4416:4533   */\n      pop\n        /* \"#utility.yul\":4211:4540   */\n      swap3\n      swap2\n      pop\n      pop\n      jump\t// out\n        /* \"#utility.yul\":4546:4645   */\n    tag_64:\n        /* \"#utility.yul\":4598:4604   */\n      0x00\n        /* \"#utility.yul\":4632:4637   */\n      dup2\n        /* \"#utility.yul\":4626:4638   */\n      mload\n        /* \"#utility.yul\":4616:4638   */\n      swap1\n      pop\n        /* \"#utility.yul\":4546:4645   */\n      swap2\n      swap1\n      pop\n      jump\t// out\n        /* \"#utility.yul\":4651:4820   */\n    tag_65:\n        /* \"#utility.yul\":4735:4746   */\n      0x00\n        /* \"#utility.yul\":4769:4775   */\n      dup3\n        /* \"#utility.yul\":4764:4767   */\n      dup3\n        /* \"#utility.yul\":4757:4776   */\n      mstore\n        /* \"#utility.yul\":4809:4813   */\n      0x20\n        /* \"#utility.yul\":4804:4807   */\n      dup3\n        /* \"#utility.yul\":4800:4814   */\n      add\n        /* \"#utility.yul\":4785:4814   */\n      swap1\n      pop\n        /* \"#utility.yul\":4651:4820   */\n      swap3\n      swap2\n      pop\n      pop\n      jump\t// out\n        /* \"#utility.yul\":4826:5072   */\n    tag_66:\n        /* \"#utility.yul\":4907:4908   */\n      0x00\n        /* \"#utility.yul\":4917:5030   */\n    tag_144:\n        /* \"#utility.yul\":4931:4937   */\n      dup4\n        /* \"#utility.yul\":4928:4929   */\n      dup2\n        /* \"#utility.yul\":4925:4938   */\n      lt\n        /* \"#utility.yul\":4917:5030   */\n      iszero\n      tag_146\n      jumpi\n        /* \"#utility.yul\":5016:5017   */\n      dup1\n        /* \"#utility.yul\":5011:5014   */\n      dup3\n        /* \"#utility.yul\":5007:5018   */\n      add\n        /* \"#utility.yul\":5001:5019   */\n      mload\n        /* \"#utility.yul\":4997:4998   */\n      dup2\n        /* \"#utility.yul\":4992:4995   */\n      dup5\n        /* \"#utility.yul\":4988:4999   */\n      add\n        /* \"#utility.yul\":4981:5020   */\n      mstore\n        /* \"#utility.yul\":4953:4955   */\n      0x20\n        /* \"#utility.yul\":4950:4951   */\n      dup2\n        /* \"#utility.yul\":4946:4956   */\n      add\n        /* \"#utility.yul\":4941:4956   */\n      swap1\n      pop\n        /* \"#utility.yul\":4917:5030   */\n      jump(tag_144)\n    tag_146:\n        /* \"#utility.yul\":5064:5065   */\n      0x00\n        /* \"#utility.yul\":5055:5061   */\n      dup5\n        /* \"#utility.yul\":5050:5053   */\n      dup5\n        /* \"#utility.yul\":5046:5062   */\n      add\n        /* \"#utility.yul\":5039:5066   */\n      mstore\n        /* \"#utility.yul\":4888:5072   */\n      pop\n        /* \"#utility.yul\":4826:5072   */\n      pop\n      pop\n      pop\n      jump\t// out\n        /* \"#utility.yul\":5078:5455   */\n    tag_67:\n        /* \"#utility.yul\":5166:5169   */\n      0x00\n        /* \"#utility.yul\":5194:5233   */\n      tag_148\n        /* \"#utility.yul\":5227:5232   */\n      dup3\n        /* \"#utility.yul\":5194:5233   */\n      tag_64\n      jump\t// in\n    tag_148:\n        /* \"#utility.yul\":5249:5320   */\n      tag_149\n        /* \"#utility.yul\":5313:5319   */\n      dup2\n        /* \"#utility.yul\":5308:5311   */\n      dup6\n        /* \"#utility.yul\":5249:5320   */\n      tag_65\n      jump\t// in\n    tag_149:\n        /* \"#utility.yul\":5242:5320   */\n      swap4\n      pop\n        /* \"#utility.yul\":5329:5394   */\n      tag_150\n        /* \"#utility.yul\":5387:5393   */\n      dup2\n        /* \"#utility.yul\":5382:5385   */\n      dup6\n        /* \"#utility.yul\":5375:5379   */\n      0x20\n        /* \"#utility.yul\":5368:5373   */\n      dup7\n        /* \"#utility.yul\":5364:5380   */\n      add\n        /* \"#utility.yul\":5329:5394   */\n      tag_66\n      jump\t// in\n    tag_150:\n        /* \"#utility.yul\":5419:5448   */\n      tag_151\n        /* \"#utility.yul\":5441:5447   */\n      dup2\n        /* \"#utility.yul\":5419:5448   */\n      tag_53\n      jump\t// in\n    tag_151:\n        /* \"#utility.yul\":5414:5417   */\n      dup5\n        /* \"#utility.yul\":5410:5449   */\n      add\n        /* \"#utility.yul\":5403:5449   */\n      swap2\n      pop\n        /* \"#utility.yul\":5170:5455   */\n      pop\n        /* \"#utility.yul\":5078:5455   */\n      swap3\n      swap2\n      pop\n      pop\n      jump\t// out\n        /* \"#utility.yul\":5461:5579   */\n    tag_68:\n        /* \"#utility.yul\":5548:5572   */\n      tag_153\n        /* \"#utility.yul\":5566:5571   */\n      dup2\n        /* \"#utility.yul\":5548:5572   */\n      tag_48\n      jump\t// in\n    tag_153:\n        /* \"#utility.yul\":5543:5546   */\n      dup3\n        /* \"#utility.yul\":5536:5573   */\n      mstore\n        /* \"#utility.yul\":5461:5579   */\n      pop\n      pop\n      jump\t// out\n        /* \"#utility.yul\":5585:5694   */\n    tag_69:\n        /* \"#utility.yul\":5666:5687   */\n      tag_155\n        /* \"#utility.yul\":5681:5686   */\n      dup2\n        /* \"#utility.yul\":5666:5687   */\n      tag_61\n      jump\t// in\n    tag_155:\n        /* \"#utility.yul\":5661:5664   */\n      dup3\n        /* \"#utility.yul\":5654:5688   */\n      mstore\n        /* \"#utility.yul\":5585:5694   */\n      pop\n      pop\n      jump\t// out\n        /* \"#utility.yul\":5700:6221   */\n    tag_15:\n        /* \"#utility.yul\":5863:5867   */\n      0x00\n        /* \"#utility.yul\":5901:5903   */\n      0x60\n        /* \"#utility.yul\":5890:5899   */\n      dup3\n        /* \"#utility.yul\":5886:5904   */\n      add\n        /* \"#utility.yul\":5878:5904   */\n      swap1\n      pop\n        /* \"#utility.yul\":5950:5959   */\n      dup2\n        /* \"#utility.yul\":5944:5948   */\n      dup2\n        /* \"#utility.yul\":5940:5960   */\n      sub\n        /* \"#utility.yul\":5936:5937   */\n      0x00\n        /* \"#utility.yul\":5925:5934   */\n      dup4\n        /* \"#utility.yul\":5921:5938   */\n      add\n        /* \"#utility.yul\":5914:5961   */\n      mstore\n        /* \"#utility.yul\":5978:6056   */\n      tag_157\n        /* \"#utility.yul\":6051:6055   */\n      dup2\n        /* \"#utility.yul\":6042:6048   */\n      dup7\n        /* \"#utility.yul\":5978:6056   */\n      tag_67\n      jump\t// in\n    tag_157:\n        /* \"#utility.yul\":5970:6056   */\n      swap1\n      pop\n        /* \"#utility.yul\":6066:6138   */\n      tag_158\n        /* \"#utility.yul\":6134:6136   */\n      0x20\n        /* \"#utility.yul\":6123:6132   */\n      dup4\n        /* \"#utility.yul\":6119:6137   */\n      add\n        /* \"#utility.yul\":6110:6116   */\n      dup6\n        /* \"#utility.yul\":6066:6138   */\n      tag_68\n      jump\t// in\n    tag_158:\n        /* \"#utility.yul\":6148:6214   */\n      tag_159\n        /* \"#utility.yul\":6210:6212   */\n      0x40\n        /* \"#utility.yul\":6199:6208   */\n      dup4\n        /* \"#utility.yul\":6195:6213   */\n      add\n        /* \"#utility.yul\":6186:6192   */\n      dup5\n        /* \"#utility.yul\":6148:6214   */\n      tag_69\n      jump\t// in\n    tag_159:\n        /* \"#utility.yul\":5700:6221   */\n      swap5\n      swap4\n      pop\n      pop\n      pop\n      pop\n      jump\t// out\n        /* \"#utility.yul\":6227:6540   */\n    tag_20:\n        /* \"#utility.yul\":6340:6344   */\n      0x00\n        /* \"#utility.yul\":6378:6380   */\n      0x20\n        /* \"#utility.yul\":6367:6376   */\n      dup3\n        /* \"#utility.yul\":6363:6381   */\n      add\n        /* \"#utility.yul\":6355:6381   */\n      swap1\n      pop\n        /* \"#utility.yul\":6427:6436   */\n      dup2\n        /* \"#utility.yul\":6421:6425   */\n      dup2\n        /* \"#utility.yul\":6417:6437   */\n      sub\n        /* \"#utility.yul\":6413:6414   */\n      0x00\n        /* \"#utility.yul\":6402:6411   */\n      dup4\n        /* \"#utility.yul\":6398:6415   */\n      add\n        /* \"#utility.yul\":6391:6438   */\n      mstore\n        /* \"#utility.yul\":6455:6533   */\n      tag_161\n        /* \"#utility.yul\":6528:6532   */\n      dup2\n        /* \"#utility.yul\":6519:6525   */\n      dup5\n        /* \"#utility.yul\":6455:6533   */\n      tag_67\n      jump\t// in\n    tag_161:\n        /* \"#utility.yul\":6447:6533   */\n      swap1\n      pop\n        /* \"#utility.yul\":6227:6540   */\n      swap3\n      swap2\n      pop\n      pop\n      jump\t// out\n        /* \"#utility.yul\":6546:6726   */\n    tag_24:\n        /* \"#utility.yul\":6594:6671   */\n      0x4e487b7100000000000000000000000000000000000000000000000000000000\n        /* \"#utility.yul\":6591:6592   */\n      0x00\n        /* \"#utility.yul\":6584:6672   */\n      mstore\n        /* \"#utility.yul\":6691:6695   */\n      0x32\n        /* \"#utility.yul\":6688:6689   */\n      0x04\n        /* \"#utility.yul\":6681:6696   */\n      mstore\n        /* \"#utility.yul\":6715:6719   */\n      0x24\n        /* \"#utility.yul\":6712:6713   */\n      0x00\n        /* \"#utility.yul\":6705:6720   */\n      revert\n        /* \"#utility.yul\":6732:6912   */\n    tag_70:\n        /* \"#utility.yul\":6780:6857   */\n      0x4e487b7100000000000000000000000000000000000000000000000000000000\n        /* \"#utility.yul\":6777:6778   */\n      0x00\n        /* \"#utility.yul\":6770:6858   */\n      mstore\n        /* \"#utility.yul\":6877:6881   */\n      0x22\n        /* \"#utility.yul\":6874:6875   */\n      0x04\n        /* \"#utility.yul\":6867:6882   */\n      mstore\n        /* \"#utility.yul\":6901:6905   */\n      0x24\n        /* \"#utility.yul\":6898:6899   */\n      0x00\n        /* \"#utility.yul\":6891:6906   */\n      revert\n        /* \"#utility.yul\":6918:7238   */\n    tag_31:\n        /* \"#utility.yul\":6962:6968   */\n      0x00\n        /* \"#utility.yul\":6999:7000   */\n      0x02\n        /* \"#utility.yul\":6993:6997   */\n      dup3\n        /* \"#utility.yul\":6989:7001   */\n      div\n        /* \"#utility.yul\":6979:7001   */\n      swap1\n      pop\n        /* \"#utility.yul\":7046:7047   */\n      0x01\n        /* \"#utility.yul\":7040:7044   */\n      dup3\n        /* \"#utility.yul\":7036:7048   */\n      and\n        /* \"#utility.yul\":7067:7085   */\n      dup1\n        /* \"#utility.yul\":7057:7138   */\n      tag_165\n      jumpi\n        /* \"#utility.yul\":7123:7127   */\n      0x7f\n        /* \"#utility.yul\":7115:7121   */\n      dup3\n        /* \"#utility.yul\":7111:7128   */\n      and\n        /* \"#utility.yul\":7101:7128   */\n      swap2\n      pop\n        /* \"#utility.yul\":7057:7138   */\n    tag_165:\n        /* \"#utility.yul\":7185:7187   */\n      0x20\n        /* \"#utility.yul\":7177:7183   */\n      dup3\n        /* \"#utility.yul\":7174:7188   */\n      lt\n        /* \"#utility.yul\":7154:7172   */\n      dup2\n        /* \"#utility.yul\":7151:7189   */\n      sub\n        /* \"#utility.yul\":7148:7232   */\n      tag_166\n      jumpi\n        /* \"#utility.yul\":7204:7222   */\n      tag_167\n      tag_70\n      jump\t// in\n    tag_167:\n        /* \"#utility.yul\":7148:7232   */\n    tag_166:\n        /* \"#utility.yul\":6969:7238   */\n      pop\n        /* \"#utility.yul\":6918:7238   */\n      swap2\n      swap1\n      pop\n      jump\t// out\n        /* \"#utility.yul\":7244:7385   */\n    tag_71:\n        /* \"#utility.yul\":7293:7297   */\n      0x00\n        /* \"#utility.yul\":7316:7319   */\n      dup2\n        /* \"#utility.yul\":7308:7319   */\n      swap1\n      pop\n        /* \"#utility.yul\":7339:7342   */\n      dup2\n        /* \"#utility.yul\":7336:7337   */\n      0x00\n        /* \"#utility.yul\":7329:7343   */\n      mstore\n        /* \"#utility.yul\":7373:7377   */\n      0x20\n        /* \"#utility.yul\":7370:7371   */\n      0x00\n        /* \"#utility.yul\":7360:7378   */\n      keccak256\n        /* \"#utility.yul\":7352:7378   */\n      swap1\n      pop\n        /* \"#utility.yul\":7244:7385   */\n      swap2\n      swap1\n      pop\n      jump\t// out\n        /* \"#utility.yul\":7391:7484   */\n    tag_72:\n        /* \"#utility.yul\":7428:7434   */\n      0x00\n        /* \"#utility.yul\":7475:7477   */\n      0x20\n        /* \"#utility.yul\":7470:7472   */\n      0x1f\n        /* \"#utility.yul\":7463:7468   */\n      dup4\n        /* \"#utility.yul\":7459:7473   */\n      add\n        /* \"#utility.yul\":7455:7478   */\n      div\n        /* \"#utility.yul\":7445:7478   */\n      swap1\n      pop\n        /* \"#utility.yul\":7391:7484   */\n      swap2\n      swap1\n      pop\n      jump\t// out\n        /* \"#utility.yul\":7490:7597   */\n    tag_73:\n        /* \"#utility.yul\":7534:7542   */\n      0x00\n        /* \"#utility.yul\":7584:7589   */\n      dup3\n        /* \"#utility.yul\":7578:7582   */\n      dup3\n        /* \"#utility.yul\":7574:7590   */\n      shl\n        /* \"#utility.yul\":7553:7590   */\n      swap1\n      pop\n        /* \"#utility.yul\":7490:7597   */\n      swap3\n      swap2\n      pop\n      pop\n      jump\t// out\n        /* \"#utility.yul\":7603:7996   */\n    tag_74:\n        /* \"#utility.yul\":7672:7678   */\n      0x00\n        /* \"#utility.yul\":7722:7723   */\n      0x08\n        /* \"#utility.yul\":7710:7720   */\n      dup4\n        /* \"#utility.yul\":7706:7724   */\n      mul\n        /* \"#utility.yul\":7745:7842   */\n      tag_172\n        /* \"#utility.yul\":7775:7841   */\n      0xffffffffffffffffffffffffffffffffffffffffffffffffffffffffffffffff\n        /* \"#utility.yul\":7764:7773   */\n      dup3\n        /* \"#utility.yul\":7745:7842   */\n      tag_73\n      jump\t// in\n    tag_172:\n        /* \"#utility.yul\":7863:7902   */\n      tag_173\n        /* \"#utility.yul\":7893:7901   */\n      dup7\n        /* \"#utility.yul\":7882:7891   */\n      dup4\n        /* \"#utility.yul\":7863:7902   */\n      tag_73\n      jump\t// in\n    tag_173:\n        /* \"#utility.yul\":7851:7902   */\n      swap6\n      pop\n        /* \"#utility.yul\":7935:7939   */\n      dup1\n        /* \"#utility.yul\":7931:7940   */\n      not\n        /* \"#utility.yul\":7924:7929   */\n      dup5\n        /* \"#utility.yul\":7920:7941   */\n      and\n        /* \"#utility.yul\":7911:7941   */\n      swap4\n      pop\n        /* \"#utility.yul\":7984:7988   */\n      dup1\n        /* \"#utility.yul\":7974:7982   */\n      dup7\n        /* \"#utility.yul\":7970:7989   */\n      and\n        /* \"#utility.yul\":7963:7968   */\n      dup5\n        /* \"#utility.yul\":7960:7990   */\n      or\n        /* \"#utility.yul\":7950:7990   */\n      swap3\n      pop\n        /* \"#utility.yul\":7679:7996   */\n      pop\n      pop\n        /* \"#utility.yul\":7603:7996   */\n      swap4\n      swap3\n      pop\n      pop\n      pop\n      jump\t// out\n        /* \"#utility.yul\":8002:8062   */\n    tag_75:\n        /* \"#utility.yul\":8030:8033   */\n      0x00\n        /* \"#utility.yul\":8051:8056   */\n      dup2\n        /* \"#utility.yul\":8044:8056   */\n      swap1\n      pop\n        /* \"#utility.yul\":8002:8062   */\n      swap2\n      swap1\n      pop\n      jump\t// out\n        /* \"#utility.yul\":8068:8210   */\n    tag_76:\n        /* \"#utility.yul\":8118:8127   */\n      0x00\n        /* \"#utility.yul\":8151:8204   */\n      tag_176\n        /* \"#utility.yul\":8169:8203   */\n      tag_177\n        /* \"#utility.yul\":8178:8202   */\n      tag_178\n        /* \"#utility.yul\":8196:8201   */\n      dup5\n        /* \"#utility.yul\":8178:8202   */\n      tag_48\n      jump\t// in\n    tag_178:\n        /* \"#utility.yul\":8169:8203   */\n      tag_75\n      jump\t// in\n    tag_177:\n        /* \"#utility.yul\":8151:8204   */\n      tag_48\n      jump\t// in\n    tag_176:\n        /* \"#utility.yul\":8138:8204   */\n      swap1\n      pop\n        /* \"#utility.yul\":8068:8210   */\n      swap2\n      swap1\n      pop\n      jump\t// out\n        /* \"#utility.yul\":8216:8291   */\n    tag_77:\n        /* \"#utility.yul\":8259:8262   */\n      0x00\n        /* \"#utility.yul\":8280:8285   */\n      dup2\n        /* \"#utility.yul\":8273:8285   */\n      swap1\n      pop\n        /* \"#utility.yul\":8216:8291   */\n      swap2\n      swap1\n      pop\n      jump\t// out\n        /* \"#utility.yul\":8297:8566   */\n    tag_78:\n        /* \"#utility.yul\":8407:8446   */\n      tag_181\n        /* \"#utility.yul\":8438:8445   */\n      dup4\n        /* \"#utility.yul\":8407:8446   */\n      tag_76\n      jump\t// in\n    tag_181:\n        /* \"#utility.yul\":8468:8559   */\n      tag_182\n        /* \"#utility.yul\":8517:8558   */\n      tag_183\n        /* \"#utility.yul\":8541:8557   */\n      dup3\n        /* \"#utility.yul\":8517:8558   */\n      tag_77\n      jump\t// in\n    tag_183:\n        /* \"#utility.yul\":8509:8515   */\n      dup5\n        /* \"#utility.yul\":8502:8506   */\n      dup5\n        /* \"#utility.yul\":8496:8507   */\n      sload\n        /* \"#utility.yul\":8468:8559   */\n      tag_74\n      jump\t// in\n    tag_182:\n        /* \"#utility.yul\":8462:8466   */\n      dup3\n        /* \"#utility.yul\":8455:8560   */\n      sstore\n        /* \"#utility.yul\":8373:8566   */\n      pop\n        /* \"#utility.yul\":8297:8566   */\n      pop\n      pop\n      pop\n      jump\t// out\n        /* \"#utility.yul\":8572:8645   */\n    tag_79:\n        /* \"#utility.yul\":8617:8620   */\n      0x00\n        /* \"#utility.yul\":8572:8645   */\n      swap1\n      jump\t// out\n        /* \"#utility.yul\":8651:8840   */\n    tag_80:\n        /* \"#utility.yul\":8728:8760   */\n      tag_186\n      tag_79\n      jump\t// in\n    tag_186:\n        /* \"#utility.yul\":8769:8834   */\n      tag_187\n        /* \"#utility.yul\":8827:8833   */\n      dup2\n        /* \"#utility.yul\":8819:8825   */\n      dup5\n        /* \"#utility.yul\":8813:8817   */\n      dup5\n        /* \"#utility.yul\":8769:8834   */\n      tag_78\n      jump\t// in\n    tag_187:\n        /* \"#utility.yul\":8704:8840   */\n      pop\n        /* \"#utility.yul\":8651:8840   */\n      pop\n      pop\n      jump\t// out\n        /* \"#utility.yul\":8846:9032   */\n    tag_81:\n        /* \"#utility.yul\":8906:9026   */\n    tag_189:\n        /* \"#utility.yul\":8923:8926   */\n      dup2\n        /* \"#utility.yul\":8916:8921   */\n      dup2\n        /* \"#utility.yul\":8913:8927   */\n      lt\n        /* \"#utility.yul\":8906:9026   */\n      iszero\n      tag_191\n      jumpi\n        /* \"#utility.yul\":8977:9016   */\n      tag_192\n        /* \"#utility.yul\":9014:9015   */\n      0x00\n        /* \"#utility.yul\":9007:9012   */\n      dup3\n        /* \"#utility.yul\":8977:9016   */\n      tag_80\n      jump\t// in\n    tag_192:\n        /* \"#utility.yul\":8950:8951   */\n      0x01\n        /* \"#utility.yul\":8943:8948   */\n      dup2\n        /* \"#utility.yul\":8939:8952   */\n      add\n        /* \"#utility.yul\":8930:8952   */\n      swap1\n      pop\n        /* \"#utility.yul\":8906:9026   */\n      jump(tag_189)\n    tag_191:\n        /* \"#utility.yul\":8846:9032   */\n      pop\n      pop\n      jump\t// out\n        /* \"#utility.yul\":9038:9581   */\n    tag_82:\n        /* \"#utility.yul\":9139:9141   */\n      0x1f\n        /* \"#utility.yul\":9134:9137   */\n      dup3\n        /* \"#utility.yul\":9131:9142   */\n      gt\n        /* \"#utility.yul\":9128:9574   */\n      iszero\n      tag_194\n      jumpi\n        /* \"#utility.yul\":9173:9211   */\n      tag_195\n        /* \"#utility.yul\":9205:9210   */\n      dup2\n        /* \"#utility.yul\":9173:9211   */\n      tag_71\n      jump\t// in\n    tag_195:\n        /* \"#utility.yul\":9257:9286   */\n      tag_196\n        /* \"#utility.yul\":9275:9285   */\n      dup5\n        /* \"#utility.yul\":9257:9286   */\n      tag_72\n      jump\t// in\n    tag_196:\n        /* \"#utility.yul\":9247:9255   */\n      dup2\n        /* \"#utility.yul\":9243:9287   */\n      add\n        /* \"#utility.yul\":9440:9442   */\n      0x20\n        /* \"#utility.yul\":9428:9438   */\n      dup6\n        /* \"#utility.yul\":9425:9443   */\n      lt\n        /* \"#utility.yul\":9422:9471   */\n      iszero\n      tag_197\n      jumpi\n        /* \"#utility.yul\":9461:9469   */\n      dup2\n        /* \"#utility.yul\":9446:9469   */\n      swap1\n      pop\n        /* \"#utility.yul\":9422:9471   */\n    tag_197:\n        /* \"#utility.yul\":9484:9564   */\n      tag_198\n        /* \"#utility.yul\":9540:9562   */\n      tag_199\n        /* \"#utility.yul\":9558:9561   */\n      dup6\n        /* \"#utility.yul\":9540:9562   */\n      tag_72\n      jump\t// in\n    tag_199:\n        /* \"#utility.yul\":9530:9538   */\n      dup4\n        /* \"#utility.yul\":9526:9563   */\n      add\n        /* \"#utility.yul\":9513:9524   */\n      dup3\n        /* \"#utility.yul\":9484:9564   */\n      tag_81\n      jump\t// in\n    tag_198:\n        /* \"#utility.yul\":9143:9574   */\n      pop\n      pop\n        /* \"#utility.yul\":9128:9574   */\n    tag_194:\n        /* \"#utility.yul\":9038:9581   */\n      pop\n      pop\n      pop\n      jump\t// out\n        /* \"#utility.yul\":9587:9704   */\n    tag_83:\n        /* \"#utility.yul\":9641:9649   */\n      0x00\n        /* \"#utility.yul\":9691:9696   */\n      dup3\n        /* \"#utility.yul\":9685:9689   */\n      dup3\n        /* \"#utility.yul\":9681:9697   */\n      shr\n        /* \"#utility.yul\":9660:9697   */\n      swap1\n      pop\n        /* \"#utility.yul\":9587:9704   */\n      swap3\n      swap2\n      pop\n      pop\n      jump\t// out\n        /* \"#utility.yul\":9710:9879   */\n    tag_84:\n        /* \"#utility.yul\":9754:9760   */\n      0x00\n        /* \"#utility.yul\":9787:9838   */\n      tag_202\n        /* \"#utility.yul\":9835:9836   */\n      0x00\n        /* \"#utility.yul\":9831:9837   */\n      not\n        /* \"#utility.yul\":9823:9828   */\n      dup5\n        /* \"#utility.yul\":9820:9821   */\n      0x08\n        /* \"#utility.yul\":9816:9829   */\n      mul\n        /* \"#utility.yul\":9787:9838   */\n      tag_83\n      jump\t// in\n    tag_202:\n        /* \"#utility.yul\":9783:9839   */\n      not\n        /* \"#utility.yul\":9868:9872   */\n      dup1\n        /* \"#utility.yul\":9862:9866   */\n      dup4\n        /* \"#utility.yul\":9858:9873   */\n      and\n        /* \"#utility.yul\":9848:9873   */\n      swap2\n      pop\n        /* \"#utility.yul\":9761:9879   */\n      pop\n        /* \"#utility.yul\":9710:9879   */\n      swap3\n      swap2\n      pop\n      pop\n      jump\t// out\n        /* \"#utility.yul\":9884:10179   */\n    tag_85:\n        /* \"#utility.yul\":9960:9964   */\n      0x00\n        /* \"#utility.yul\":10106:10135   */\n      tag_204\n        /* \"#utility.yul\":10131:10134   */\n      dup4\n        /* \"#utility.yul\":10125:10129   */\n      dup4\n        /* \"#utility.yul\":10106:10135   */\n      tag_84\n      jump\t// in\n    tag_204:\n        /* \"#utility.yul\":10098:10135   */\n      swap2\n      pop\n        /* \"#utility.yul\":10168:10171   */\n      dup3\n        /* \"#utility.yul\":10165:10166   */\n      0x02\n        /* \"#utility.yul\":10161:10172   */\n      mul\n        /* \"#utility.yul\":10155:10159   */\n      dup3\n        /* \"#utility.yul\":10152:10173   */\n      or\n        /* \"#utility.yul\":10144:10173   */\n      swap1\n      pop\n        /* \"#utility.yul\":9884:10179   */\n      swap3\n      swap2\n      pop\n      pop\n      jump\t// out\n        /* \"#utility.yul\":10184:11579   */\n    tag_27:\n        /* \"#utility.yul\":10301:10338   */\n      tag_206\n        /* \"#utility.yul\":10334:10337   */\n      dup3\n        /* \"#utility.yul\":10301:10338   */\n      tag_64\n      jump\t// in\n    tag_206:\n        /* \"#utility.yul\":10403:10421   */\n      0xffffffffffffffff\n        /* \"#utility.yul\":10395:10401   */\n      dup2\n        /* \"#utility.yul\":10392:10422   */\n      gt\n        /* \"#utility.yul\":10389:10445   */\n      iszero\n      tag_207\n      jumpi\n        /* \"#utility.yul\":10425:10443   */\n      tag_208\n      tag_54\n      jump\t// in\n    tag_208:\n        /* \"#utility.yul\":10389:10445   */\n    tag_207:\n        /* \"#utility.yul\":10469:10507   */\n      tag_209\n        /* \"#utility.yul\":10501:10505   */\n      dup3\n        /* \"#utility.yul\":10495:10506   */\n      sload\n        /* \"#utility.yul\":10469:10507   */\n      tag_31\n      jump\t// in\n    tag_209:\n        /* \"#utility.yul\":10554:10621   */\n      tag_210\n        /* \"#utility.yul\":10614:10620   */\n      dup3\n        /* \"#utility.yul\":10606:10612   */\n      dup3\n        /* \"#utility.yul\":10600:10604   */\n      dup6\n        /* \"#utility.yul\":10554:10621   */\n      tag_82\n      jump\t// in\n    tag_210:\n        /* \"#utility.yul\":10648:10649   */\n      0x00\n        /* \"#utility.yul\":10672:10676   */\n      0x20\n        /* \"#utility.yul\":10659:10676   */\n      swap1\n      pop\n        /* \"#utility.yul\":10704:10706   */\n      0x1f\n        /* \"#utility.yul\":10696:10702   */\n      dup4\n        /* \"#utility.yul\":10693:10707   */\n      gt\n        /* \"#utility.yul\":10721:10722   */\n      0x01\n        /* \"#utility.yul\":10716:11334   */\n      dup2\n      eq\n      tag_212\n      jumpi\n        /* \"#utility.yul\":11378:11379   */\n      0x00\n        /* \"#utility.yul\":11395:11401   */\n      dup5\n        /* \"#utility.yul\":11392:11469   */\n      iszero\n      tag_213\n      jumpi\n        /* \"#utility.yul\":11444:11453   */\n      dup3\n        /* \"#utility.yul\":11439:11442   */\n      dup8\n        /* \"#utility.yul\":11435:11454   */\n      add\n        /* \"#utility.yul\":11429:11455   */\n      mload\n        /* \"#utility.yul\":11420:11455   */\n      swap1\n      pop\n        /* \"#utility.yul\":11392:11469   */\n    tag_213:\n        /* \"#utility.yul\":11495:11562   */\n      tag_214\n        /* \"#utility.yul\":11555:11561   */\n      dup6\n        /* \"#utility.yul\":11548:11553   */\n      dup3\n        /* \"#utility.yul\":11495:11562   */\n      tag_85\n      jump\t// in\n    tag_214:\n        /* \"#utility.yul\":11489:11493   */\n      dup7\n        /* \"#utility.yul\":11482:11563   */\n      sstore\n        /* \"#utility.yul\":11351:11573   */\n      pop\n        /* \"#utility.yul\":10686:11573   */\n      jump(tag_211)\n        /* \"#utility.yul\":10716:11334   */\n    tag_212:\n        /* \"#utility.yul\":10768:10772   */\n      0x1f\n        /* \"#utility.yul\":10764:10773   */\n      not\n        /* \"#utility.yul\":10756:10762   */\n      dup5\n        /* \"#utility.yul\":10752:10774   */\n      and\n        /* \"#utility.yul\":10802:10839   */\n      tag_215\n        /* \"#utility.yul\":10834:10838   */\n      dup7\n        /* \"#utility.yul\":10802:10839   */\n      tag_71\n      jump\t// in\n    tag_215:\n        /* \"#utility.yul\":10861:10862   */\n      0x00\n        /* \"#utility.yul\":10875:11083   */\n    tag_216:\n        /* \"#utility.yul\":10889:10896   */\n      dup3\n        /* \"#utility.yul\":10886:10887   */\n      dup2\n        /* \"#utility.yul\":10883:10897   */\n      lt\n        /* \"#utility.yul\":10875:11083   */\n      iszero\n      tag_218\n      jumpi\n        /* \"#utility.yul\":10968:10977   */\n      dup5\n        /* \"#utility.yul\":10963:10966   */\n      dup10\n        /* \"#utility.yul\":10959:10978   */\n      add\n        /* \"#utility.yul\":10953:10979   */\n      mload\n        /* \"#utility.yul\":10945:10951   */\n      dup3\n        /* \"#utility.yul\":10938:10980   */\n      sstore\n        /* \"#utility.yul\":11019:11020   */\n      0x01\n        /* \"#utility.yul\":11011:11017   */\n      dup3\n        /* \"#utility.yul\":11007:11021   */\n      add\n        /* \"#utility.yul\":10997:11021   */\n      swap2\n      pop\n        /* \"#utility.yul\":11066:11068   */\n      0x20\n        /* \"#utility.yul\":11055:11064   */\n      dup6\n        /* \"#utility.yul\":11051:11069   */\n      add\n        /* \"#utility.yul\":11038:11069   */\n      swap5\n      pop\n        /* \"#utility.yul\":10912:10916   */\n      0x20\n        /* \"#utility.yul\":10909:10910   */\n      dup2\n        /* \"#utility.yul\":10905:10917   */\n      add\n        /* \"#utility.yul\":10900:10917   */\n      swap1\n      pop\n        /* \"#utility.yul\":10875:11083   */\n      jump(tag_216)\n    tag_218:\n        /* \"#utility.yul\":11111:11117   */\n      dup7\n        /* \"#utility.yul\":11102:11109   */\n      dup4\n        /* \"#utility.yul\":11099:11118   */\n      lt\n        /* \"#utility.yul\":11096:11275   */\n      iszero\n      tag_219\n      jumpi\n        /* \"#utility.yul\":11169:11178   */\n      dup5\n        /* \"#utility.yul\":11164:11167   */\n      dup10\n        /* \"#utility.yul\":11160:11179   */\n      add\n        /* \"#utility.yul\":11154:11180   */\n      mload\n        /* \"#utility.yul\":11212:11260   */\n      tag_220\n        /* \"#utility.yul\":11254:11258   */\n      0x1f\n        /* \"#utility.yul\":11246:11252   */\n      dup10\n        /* \"#utility.yul\":11242:11259   */\n      and\n        /* \"#utility.yul\":11231:11240   */\n      dup3\n        /* \"#utility.yul\":11212:11260   */\n      tag_84\n      jump\t// in\n    tag_220:\n        /* \"#utility.yul\":11204:11210   */\n      dup4\n        /* \"#utility.yul\":11197:11261   */\n      sstore\n        /* \"#utility.yul\":11119:11275   */\n      pop\n        /* \"#utility.yul\":11096:11275   */\n    tag_219:\n        /* \"#utility.yul\":11321:11322   */\n      0x01\n        /* \"#utility.yul\":11317:11318   */\n      0x02\n        /* \"#utility.yul\":11309:11315   */\n      dup9\n        /* \"#utility.yul\":11305:11319   */\n      mul\n        /* \"#utility.yul\":11301:11323   */\n      add\n        /* \"#utility.yul\":11295:11299   */\n      dup9\n        /* \"#utility.yul\":11288:11324   */\n      sstore\n        /* \"#utility.yul\":10723:11334   */\n      pop\n      pop\n      pop\n        /* \"#utility.yul\":10686:11573   */\n    tag_211:\n      pop\n        /* \"#utility.yul\":10276:11579   */\n      pop\n      pop\n      pop\n        /* \"#utility.yul\":10184:11579   */\n      pop\n      pop\n      jump\t// out\n\n    auxdata: 0xa264697066735822122055b2758fe8e432f42b01c71ef0851a4b3d9a83b24928e4ab94d2541d7799cf8164736f6c63430008160033\n}\n",
				"bytecode": {
					"linkReferences": {},
					"object": "608060405234801561000f575f80fd5b506109228061001d5f395ff3fe608060405234801561000f575f80fd5b506004361061003f575f3560e01c80633188b1731461004357806352efd6851461005f578063aaa97d0814610091575b5f80fd5b61005d60048036038101906100589190610457565b6100c1565b005b610079600480360381019061007491906104d7565b61013b565b6040516100889392919061059a565b60405180910390f35b6100ab60048036038101906100a691906104d7565b6101f9565b6040516100b891906105d6565b60405180910390f35b60405180606001604052808481526020018381526020018215158152505f85600381106100f1576100f06105f6565b5b600302015f820151815f019081610108919061081d565b50602082015181600101556040820151816002015f6101000a81548160ff02191690831515021790555090505050505050565b5f8160038110610149575f80fd5b600302015f91509050805f01805461016090610650565b80601f016020809104026020016040519081016040528092919081815260200182805461018c90610650565b80156101d75780601f106101ae576101008083540402835291602001916101d7565b820191905f5260205f20905b8154815290600101906020018083116101ba57829003601f168201915b505050505090806001015490806002015f9054906101000a900460ff16905083565b60605f826003811061020e5761020d6105f6565b5b600302015f01805461021f90610650565b80601f016020809104026020016040519081016040528092919081815260200182805461024b90610650565b80156102965780601f1061026d57610100808354040283529160200191610296565b820191905f5260205f20905b81548152906001019060200180831161027957829003601f168201915b50505050509050919050565b5f604051905090565b5f80fd5b5f80fd5b5f819050919050565b6102c5816102b3565b81146102cf575f80fd5b50565b5f813590506102e0816102bc565b92915050565b5f80fd5b5f80fd5b5f601f19601f8301169050919050565b7f4e487b71000000000000000000000000000000000000000000000000000000005f52604160045260245ffd5b610334826102ee565b810181811067ffffffffffffffff82111715610353576103526102fe565b5b80604052505050565b5f6103656102a2565b9050610371828261032b565b919050565b5f67ffffffffffffffff8211156103905761038f6102fe565b5b610399826102ee565b9050602081019050919050565b828183375f83830152505050565b5f6103c66103c184610376565b61035c565b9050828152602081018484840111156103e2576103e16102ea565b5b6103ed8482856103a6565b509392505050565b5f82601f830112610409576104086102e6565b5b81356104198482602086016103b4565b91505092915050565b5f8115159050919050565b61043681610422565b8114610440575f80fd5b50565b5f813590506104518161042d565b92915050565b5f805f806080858703121561046f5761046e6102ab565b5b5f61047c878288016102d2565b945050602085013567ffffffffffffffff81111561049d5761049c6102af565b5b6104a9878288016103f5565b93505060406104ba878288016102d2565b92505060606104cb87828801610443565b91505092959194509250565b5f602082840312156104ec576104eb6102ab565b5b5f6104f9848285016102d2565b91505092915050565b5f81519050919050565b5f82825260208201905092915050565b5f5b8381101561053957808201518184015260208101905061051e565b5f8484015250505050565b5f61054e82610502565b610558818561050c565b935061056881856020860161051c565b610571816102ee565b840191505092915050565b610585816102b3565b82525050565b61059481610422565b82525050565b5f6060820190508181035f8301526105b28186610544565b90506105c1602083018561057c565b6105ce604083018461058b565b949350505050565b5f6020820190508181035f8301526105ee8184610544565b905092915050565b7f4e487b71000000000000000000000000000000000000000000000000000000005f52603260045260245ffd5b7f4e487b71000000000000000000000000000000000000000000000000000000005f52602260045260245ffd5b5f600282049050600182168061066757607f821691505b60208210810361067a57610679610623565b5b50919050565b5f819050815f5260205f209050919050565b5f6020601f8301049050919050565b5f82821b905092915050565b5f600883026106dc7fffffffffffffffffffffffffffffffffffffffffffffffffffffffffffffffff826106a1565b6106e686836106a1565b95508019841693508086168417925050509392505050565b5f819050919050565b5f61072161071c610717846102b3565b6106fe565b6102b3565b9050919050565b5f819050919050565b61073a83610707565b61074e61074682610728565b8484546106ad565b825550505050565b5f90565b610762610756565b61076d818484610731565b505050565b5b81811015610790576107855f8261075a565b600181019050610773565b5050565b601f8211156107d5576107a681610680565b6107af84610692565b810160208510156107be578190505b6107d26107ca85610692565b830182610772565b50505b505050565b5f82821c905092915050565b5f6107f55f19846008026107da565b1980831691505092915050565b5f61080d83836107e6565b9150826002028217905092915050565b61082682610502565b67ffffffffffffffff81111561083f5761083e6102fe565b5b6108498254610650565b610854828285610794565b5f60209050601f831160018114610885575f8415610873578287015190505b61087d8582610802565b8655506108e4565b601f19841661089386610680565b5f5b828110156108ba57848901518255600182019150602085019450602081019050610895565b868310156108d757848901516108d3601f8916826107e6565b8355505b6001600288020188555050505b50505050505056fea264697066735822122055b2758fe8e432f42b01c71ef0851a4b3d9a83b24928e4ab94d2541d7799cf8164736f6c63430008160033",
					"opcodes": "PUSH1 0x80 PUSH1 0x40 MSTORE CALLVALUE DUP1 ISZERO PUSH2 0xF JUMPI PUSH0 DUP1 REVERT JUMPDEST POP PUSH2 0x922 DUP1 PUSH2 0x1D PUSH0 CODECOPY PUSH0 RETURN INVALID PUSH1 0x80 PUSH1 0x40 MSTORE CALLVALUE DUP1 ISZERO PUSH2 0xF JUMPI PUSH0 DUP1 REVERT JUMPDEST POP PUSH1 0x4 CALLDATASIZE LT PUSH2 0x3F JUMPI PUSH0 CALLDATALOAD PUSH1 0xE0 SHR DUP1 PUSH4 0x3188B173 EQ PUSH2 0x43 JUMPI DUP1 PUSH4 0x52EFD685 EQ PUSH2 0x5F JUMPI DUP1 PUSH4 0xAAA97D08 EQ PUSH2 0x91 JUMPI JUMPDEST PUSH0 DUP1 REVERT JUMPDEST PUSH2 0x5D PUSH1 0x4 DUP1 CALLDATASIZE SUB DUP2 ADD SWAP1 PUSH2 0x58 SWAP2 SWAP1 PUSH2 0x457 JUMP JUMPDEST PUSH2 0xC1 JUMP JUMPDEST STOP JUMPDEST PUSH2 0x79 PUSH1 0x4 DUP1 CALLDATASIZE SUB DUP2 ADD SWAP1 PUSH2 0x74 SWAP2 SWAP1 PUSH2 0x4D7 JUMP JUMPDEST PUSH2 0x13B JUMP JUMPDEST PUSH1 0x40 MLOAD PUSH2 0x88 SWAP4 SWAP3 SWAP2 SWAP1 PUSH2 0x59A JUMP JUMPDEST PUSH1 0x40 MLOAD DUP1 SWAP2 SUB SWAP1 RETURN JUMPDEST PUSH2 0xAB PUSH1 0x4 DUP1 CALLDATASIZE SUB DUP2 ADD SWAP1 PUSH2 0xA6 SWAP2 SWAP1 PUSH2 0x4D7 JUMP JUMPDEST PUSH2 0x1F9 JUMP JUMPDEST PUSH1 0x40 MLOAD PUSH2 0xB8 SWAP2 SWAP1 PUSH2 0x5D6 JUMP JUMPDEST PUSH1 0x40 MLOAD DUP1 SWAP2 SUB SWAP1 RETURN JUMPDEST PUSH1 0x40 MLOAD DUP1 PUSH1 0x60 ADD PUSH1 0x40 MSTORE DUP1 DUP5 DUP2 MSTORE PUSH1 0x20 ADD DUP4 DUP2 MSTORE PUSH1 0x20 ADD DUP3 ISZERO ISZERO DUP2 MSTORE POP PUSH0 DUP6 PUSH1 0x3 DUP2 LT PUSH2 0xF1 JUMPI PUSH2 0xF0 PUSH2 0x5F6 JUMP JUMPDEST JUMPDEST PUSH1 0x3 MUL ADD PUSH0 DUP3 ADD MLOAD DUP2 PUSH0 ADD SWAP1 DUP2 PUSH2 0x108 SWAP2 SWAP1 PUSH2 0x81D JUMP JUMPDEST POP PUSH1 0x20 DUP3 ADD MLOAD DUP2 PUSH1 0x1 ADD SSTORE PUSH1 0x40 DUP3 ADD MLOAD DUP2 PUSH1 0x2 ADD PUSH0 PUSH2 0x100 EXP DUP2 SLOAD DUP2 PUSH1 0xFF MUL NOT AND SWAP1 DUP4 ISZERO ISZERO MUL OR SWAP1 SSTORE POP SWAP1 POP POP POP POP POP POP JUMP JUMPDEST PUSH0 DUP2 PUSH1 0x3 DUP2 LT PUSH2 0x149 JUMPI PUSH0 DUP1 REVERT JUMPDEST PUSH1 0x3 MUL ADD PUSH0 SWAP2 POP SWAP1 POP DUP1 PUSH0 ADD DUP1 SLOAD PUSH2 0x160 SWAP1 PUSH2 0x650 JUMP JUMPDEST DUP1 PUSH1 0x1F ADD PUSH1 0x20 DUP1 SWAP2 DIV MUL PUSH1 0x20 ADD PUSH1 0x40 MLOAD SWAP1 DUP2 ADD PUSH1 0x40 MSTORE DUP1 SWAP3 SWAP2 SWAP1 DUP2 DUP2 MSTORE PUSH1 0x20 ADD DUP3 DUP1 SLOAD PUSH2 0x18C SWAP1 PUSH2 0x650 JUMP JUMPDEST DUP1 ISZERO PUSH2 0x1D7 JUMPI DUP1 PUSH1 0x1F LT PUSH2 0x1AE JUMPI PUSH2 0x100 DUP1 DUP4 SLOAD DIV MUL DUP4 MSTORE SWAP2 PUSH1 0x20 ADD SWAP2 PUSH2 0x1D7 JUMP JUMPDEST DUP3 ADD SWAP2 SWAP1 PUSH0 MSTORE PUSH1 0x20 PUSH0 KECCAK256 SWAP1 JUMPDEST DUP2 SLOAD DUP2 MSTORE SWAP1 PUSH1 0x1 ADD SWAP1 PUSH1 0x20 ADD DUP1 DUP4 GT PUSH2 0x1BA JUMPI DUP3 SWAP1 SUB PUSH1 0x1F AND DUP3 ADD SWAP2 JUMPDEST POP POP POP POP POP SWAP1 DUP1 PUSH1 0x1 ADD SLOAD SWAP1 DUP1 PUSH1 0x2 ADD PUSH0 SWAP1 SLOAD SWAP1 PUSH2 0x100 EXP SWAP1 DIV PUSH1 0xFF AND SWAP1 POP DUP4 JUMP JUMPDEST PUSH1 0x60 PUSH0 DUP3 PUSH1 0x3 DUP2 LT PUSH2 0x20E JUMPI PUSH2 0x20D PUSH2 0x5F6 JUMP JUMPDEST JUMPDEST PUSH1 0x3 MUL ADD PUSH0 ADD DUP1 SLOAD PUSH2 0x21F SWAP1 PUSH2 0x650 JUMP JUMPDEST DUP1 PUSH1 0x1F ADD PUSH1 0x20 DUP1 SWAP2 DIV MUL PUSH1 0x20 ADD PUSH1 0x40 MLOAD SWAP1 DUP2 ADD PUSH1 0x40 MSTORE DUP1 SWAP3 SWAP2 SWAP1 DUP2 DUP2 MSTORE PUSH1 0x20 ADD DUP3 DUP1 SLOAD PUSH2 0x24B SWAP1 PUSH2 0x650 JUMP JUMPDEST DUP1 ISZERO PUSH2 0x296 JUMPI DUP1 PUSH1 0x1F LT PUSH2 0x26D JUMPI PUSH2 0x100 DUP1 DUP4 SLOAD DIV MUL DUP4 MSTORE SWAP2 PUSH1 0x20 ADD SWAP2 PUSH2 0x296 JUMP JUMPDEST DUP3 ADD SWAP2 SWAP1 PUSH0 MSTORE PUSH1 0x20 PUSH0 KECCAK256 SWAP1 JUMPDEST DUP2 SLOAD DUP2 MSTORE SWAP1 PUSH1 0x1 ADD SWAP1 PUSH1 0x20 ADD DUP1 DUP4 GT PUSH2 0x279 JUMPI DUP3 SWAP1 SUB PUSH1 0x1F AND DUP3 ADD SWAP2 JUMPDEST POP POP POP POP POP SWAP1 POP SWAP2 SWAP1 POP JUMP JUMPDEST PUSH0 PUSH1 0x40 MLOAD SWAP1 POP SWAP1 JUMP JUMPDEST PUSH0 DUP1 REVERT JUMPDEST PUSH0 DUP1 REVERT JUMPDEST PUSH0 DUP2 SWAP1 POP SWAP2 SWAP1 POP JUMP JUMPDEST PUSH2 0x2C5 DUP2 PUSH2 0x2B3 JUMP JUMPDEST DUP2 EQ PUSH2 0x2CF JUMPI PUSH0 DUP1 REVERT JUMPDEST POP JUMP JUMPDEST PUSH0 DUP2 CALLDATALOAD SWAP1 POP PUSH2 0x2E0 DUP2 PUSH2 0x2BC JUMP JUMPDEST SWAP3 SWAP2 POP POP JUMP JUMPDEST PUSH0 DUP1 REVERT JUMPDEST PUSH0 DUP1 REVERT JUMPDEST PUSH0 PUSH1 0x1F NOT PUSH1 0x1F DUP4 ADD AND SWAP1 POP SWAP2 SWAP1 POP JUMP JUMPDEST PUSH32 0x4E487B7100000000000000000000000000000000000000000000000000000000 PUSH0 MSTORE PUSH1 0x41 PUSH1 0x4 MSTORE PUSH1 0x24 PUSH0 REVERT JUMPDEST PUSH2 0x334 DUP3 PUSH2 0x2EE JUMP JUMPDEST DUP2 ADD DUP2 DUP2 LT PUSH8 0xFFFFFFFFFFFFFFFF DUP3 GT OR ISZERO PUSH2 0x353 JUMPI PUSH2 0x352 PUSH2 0x2FE JUMP JUMPDEST JUMPDEST DUP1 PUSH1 0x40 MSTORE POP POP POP JUMP JUMPDEST PUSH0 PUSH2 0x365 PUSH2 0x2A2 JUMP JUMPDEST SWAP1 POP PUSH2 0x371 DUP3 DUP3 PUSH2 0x32B JUMP JUMPDEST SWAP2 SWAP1 POP JUMP JUMPDEST PUSH0 PUSH8 0xFFFFFFFFFFFFFFFF DUP3 GT ISZERO PUSH2 0x390 JUMPI PUSH2 0x38F PUSH2 0x2FE JUMP JUMPDEST JUMPDEST PUSH2 0x399 DUP3 PUSH2 0x2EE JUMP JUMPDEST SWAP1 POP PUSH1 0x20 DUP2 ADD SWAP1 POP SWAP2 SWAP1 POP JUMP JUMPDEST DUP3 DUP2 DUP4 CALLDATACOPY PUSH0 DUP4 DUP4 ADD MSTORE POP POP POP JUMP JUMPDEST PUSH0 PUSH2 0x3C6 PUSH2 0x3C1 DUP5 PUSH2 0x376 JUMP JUMPDEST PUSH2 0x35C JUMP JUMPDEST SWAP1 POP DUP3 DUP2 MSTORE PUSH1 0x20 DUP2 ADD DUP5 DUP5 DUP5 ADD GT ISZERO PUSH2 0x3E2 JUMPI PUSH2 0x3E1 PUSH2 0x2EA JUMP JUMPDEST JUMPDEST PUSH2 0x3ED DUP5 DUP3 DUP6 PUSH2 0x3A6 JUMP JUMPDEST POP SWAP4 SWAP3 POP POP POP JUMP JUMPDEST PUSH0 DUP3 PUSH1 0x1F DUP4 ADD SLT PUSH2 0x409 JUMPI PUSH2 0x408 PUSH2 0x2E6 JUMP JUMPDEST JUMPDEST DUP2 CALLDATALOAD PUSH2 0x419 DUP5 DUP3 PUSH1 0x20 DUP7 ADD PUSH2 0x3B4 JUMP JUMPDEST SWAP2 POP POP SWAP3 SWAP2 POP POP JUMP JUMPDEST PUSH0 DUP2 ISZERO ISZERO SWAP1 POP SWAP2 SWAP1 POP JUMP JUMPDEST PUSH2 0x436 DUP2 PUSH2 0x422 JUMP JUMPDEST DUP2 EQ PUSH2 0x440 JUMPI PUSH0 DUP1 REVERT JUMPDEST POP JUMP JUMPDEST PUSH0 DUP2 CALLDATALOAD SWAP1 POP PUSH2 0x451 DUP2 PUSH2 0x42D JUMP JUMPDEST SWAP3 SWAP2 POP POP JUMP JUMPDEST PUSH0 DUP1 PUSH0 DUP1 PUSH1 0x80 DUP6 DUP8 SUB SLT ISZERO PUSH2 0x46F JUMPI PUSH2 0x46E PUSH2 0x2AB JUMP JUMPDEST JUMPDEST PUSH0 PUSH2 0x47C DUP8 DUP3 DUP9 ADD PUSH2 0x2D2 JUMP JUMPDEST SWAP5 POP POP PUSH1 0x20 DUP6 ADD CALLDATALOAD PUSH8 0xFFFFFFFFFFFFFFFF DUP2 GT ISZERO PUSH2 0x49D JUMPI PUSH2 0x49C PUSH2 0x2AF JUMP JUMPDEST JUMPDEST PUSH2 0x4A9 DUP8 DUP3 DUP9 ADD PUSH2 0x3F5 JUMP JUMPDEST SWAP4 POP POP PUSH1 0x40 PUSH2 0x4BA DUP8 DUP3 DUP9 ADD PUSH2 0x2D2 JUMP JUMPDEST SWAP3 POP POP PUSH1 0x60 PUSH2 0x4CB DUP8 DUP3 DUP9 ADD PUSH2 0x443 JUMP JUMPDEST SWAP2 POP POP SWAP3 SWAP6 SWAP2 SWAP5 POP SWAP3 POP JUMP JUMPDEST PUSH0 PUSH1 0x20 DUP3 DUP5 SUB SLT ISZERO PUSH2 0x4EC JUMPI PUSH2 0x4EB PUSH2 0x2AB JUMP JUMPDEST JUMPDEST PUSH0 PUSH2 0x4F9 DUP5 DUP3 DUP6 ADD PUSH2 0x2D2 JUMP JUMPDEST SWAP2 POP POP SWAP3 SWAP2 POP POP JUMP JUMPDEST PUSH0 DUP2 MLOAD SWAP1 POP SWAP2 SWAP1 POP JUMP JUMPDEST PUSH0 DUP3 DUP3 MSTORE PUSH1 0x20 DUP3 ADD SWAP1 POP SWAP3 SWAP2 POP POP JUMP JUMPDEST PUSH0 JUMPDEST DUP4 DUP2 LT ISZERO PUSH2 0x539 JUMPI DUP1 DUP3 ADD MLOAD DUP2 DUP5 ADD MSTORE PUSH1 0x20 DUP2 ADD SWAP1 POP PUSH2 0x51E JUMP JUMPDEST PUSH0 DUP5 DUP5 ADD MSTORE POP POP POP POP JUMP JUMPDEST PUSH0 PUSH2 0x54E DUP3 PUSH2 0x502 JUMP JUMPDEST PUSH2 0x558 DUP2 DUP6 PUSH2 0x50C JUMP JUMPDEST SWAP4 POP PUSH2 0x568 DUP2 DUP6 PUSH1 0x20 DUP7 ADD PUSH2 0x51C JUMP JUMPDEST PUSH2 0x571 DUP2 PUSH2 0x2EE JUMP JUMPDEST DUP5 ADD SWAP2 POP POP SWAP3 SWAP2 POP POP JUMP JUMPDEST PUSH2 0x585 DUP2 PUSH2 0x2B3 JUMP JUMPDEST DUP3 MSTORE POP POP JUMP JUMPDEST PUSH2 0x594 DUP2 PUSH2 0x422 JUMP JUMPDEST DUP3 MSTORE POP POP JUMP JUMPDEST PUSH0 PUSH1 0x60 DUP3 ADD SWAP1 POP DUP2 DUP2 SUB PUSH0 DUP4 ADD MSTORE PUSH2 0x5B2 DUP2 DUP7 PUSH2 0x544 JUMP JUMPDEST SWAP1 POP PUSH2 0x5C1 PUSH1 0x20 DUP4 ADD DUP6 PUSH2 0x57C JUMP JUMPDEST PUSH2 0x5CE PUSH1 0x40 DUP4 ADD DUP5 PUSH2 0x58B JUMP JUMPDEST SWAP5 SWAP4 POP POP POP POP JUMP JUMPDEST PUSH0 PUSH1 0x20 DUP3 ADD SWAP1 POP DUP2 DUP2 SUB PUSH0 DUP4 ADD MSTORE PUSH2 0x5EE DUP2 DUP5 PUSH2 0x544 JUMP JUMPDEST SWAP1 POP SWAP3 SWAP2 POP POP JUMP JUMPDEST PUSH32 0x4E487B7100000000000000000000000000000000000000000000000000000000 PUSH0 MSTORE PUSH1 0x32 PUSH1 0x4 MSTORE PUSH1 0x24 PUSH0 REVERT JUMPDEST PUSH32 0x4E487B7100000000000000000000000000000000000000000000000000000000 PUSH0 MSTORE PUSH1 0x22 PUSH1 0x4 MSTORE PUSH1 0x24 PUSH0 REVERT JUMPDEST PUSH0 PUSH1 0x2 DUP3 DIV SWAP1 POP PUSH1 0x1 DUP3 AND DUP1 PUSH2 0x667 JUMPI PUSH1 0x7F DUP3 AND SWAP2 POP JUMPDEST PUSH1 0x20 DUP3 LT DUP2 SUB PUSH2 0x67A JUMPI PUSH2 0x679 PUSH2 0x623 JUMP JUMPDEST JUMPDEST POP SWAP2 SWAP1 POP JUMP JUMPDEST PUSH0 DUP2 SWAP1 POP DUP2 PUSH0 MSTORE PUSH1 0x20 PUSH0 KECCAK256 SWAP1 POP SWAP2 SWAP1 POP JUMP JUMPDEST PUSH0 PUSH1 0x20 PUSH1 0x1F DUP4 ADD DIV SWAP1 POP SWAP2 SWAP1 POP JUMP JUMPDEST PUSH0 DUP3 DUP3 SHL SWAP1 POP SWAP3 SWAP2 POP POP JUMP JUMPDEST PUSH0 PUSH1 0x8 DUP4 MUL PUSH2 0x6DC PUSH32 0xFFFFFFFFFFFFFFFFFFFFFFFFFFFFFFFFFFFFFFFFFFFFFFFFFFFFFFFFFFFFFFFF DUP3 PUSH2 0x6A1 JUMP JUMPDEST PUSH2 0x6E6 DUP7 DUP4 PUSH2 0x6A1 JUMP JUMPDEST SWAP6 POP DUP1 NOT DUP5 AND SWAP4 POP DUP1 DUP7 AND DUP5 OR SWAP3 POP POP POP SWAP4 SWAP3 POP POP POP JUMP JUMPDEST PUSH0 DUP2 SWAP1 POP SWAP2 SWAP1 POP JUMP JUMPDEST PUSH0 PUSH2 0x721 PUSH2 0x71C PUSH2 0x717 DUP5 PUSH2 0x2B3 JUMP JUMPDEST PUSH2 0x6FE JUMP JUMPDEST PUSH2 0x2B3 JUMP JUMPDEST SWAP1 POP SWAP2 SWAP1 POP JUMP JUMPDEST PUSH0 DUP2 SWAP1 POP SWAP2 SWAP1 POP JUMP JUMPDEST PUSH2 0x73A DUP4 PUSH2 0x707 JUMP JUMPDEST PUSH2 0x74E PUSH2 0x746 DUP3 PUSH2 0x728 JUMP JUMPDEST DUP5 DUP5 SLOAD PUSH2 0x6AD JUMP JUMPDEST DUP3 SSTORE POP POP POP POP JUMP JUMPDEST PUSH0 SWAP1 JUMP JUMPDEST PUSH2 0x762 PUSH2 0x756 JUMP JUMPDEST PUSH2 0x76D DUP2 DUP5 DUP5 PUSH2 0x731 JUMP JUMPDEST POP POP POP JUMP JUMPDEST JUMPDEST DUP2 DUP2 LT ISZERO PUSH2 0x790 JUMPI PUSH2 0x785 PUSH0 DUP3 PUSH2 0x75A JUMP JUMPDEST PUSH1 0x1 DUP2 ADD SWAP1 POP PUSH2 0x773 JUMP JUMPDEST POP POP JUMP JUMPDEST PUSH1 0x1F DUP3 GT ISZERO PUSH2 0x7D5 JUMPI PUSH2 0x7A6 DUP2 PUSH2 0x680 JUMP JUMPDEST PUSH2 0x7AF DUP5 PUSH2 0x692 JUMP JUMPDEST DUP2 ADD PUSH1 0x20 DUP6 LT ISZERO PUSH2 0x7BE JUMPI DUP2 SWAP1 POP JUMPDEST PUSH2 0x7D2 PUSH2 0x7CA DUP6 PUSH2 0x692 JUMP JUMPDEST DUP4 ADD DUP3 PUSH2 0x772 JUMP JUMPDEST POP POP JUMPDEST POP POP POP JUMP JUMPDEST PUSH0 DUP3 DUP3 SHR SWAP1 POP SWAP3 SWAP2 POP POP JUMP JUMPDEST PUSH0 PUSH2 0x7F5 PUSH0 NOT DUP5 PUSH1 0x8 MUL PUSH2 0x7DA JUMP JUMPDEST NOT DUP1 DUP4 AND SWAP2 POP POP SWAP3 SWAP2 POP POP JUMP JUMPDEST PUSH0 PUSH2 0x80D DUP4 DUP4 PUSH2 0x7E6 JUMP JUMPDEST SWAP2 POP DUP3 PUSH1 0x2 MUL DUP3 OR SWAP1 POP SWAP3 SWAP2 POP POP JUMP JUMPDEST PUSH2 0x826 DUP3 PUSH2 0x502 JUMP JUMPDEST PUSH8 0xFFFFFFFFFFFFFFFF DUP2 GT ISZERO PUSH2 0x83F JUMPI PUSH2 0x83E PUSH2 0x2FE JUMP JUMPDEST JUMPDEST PUSH2 0x849 DUP3 SLOAD PUSH2 0x650 JUMP JUMPDEST PUSH2 0x854 DUP3 DUP3 DUP6 PUSH2 0x794 JUMP JUMPDEST PUSH0 PUSH1 0x20 SWAP1 POP PUSH1 0x1F DUP4 GT PUSH1 0x1 DUP2 EQ PUSH2 0x885 JUMPI PUSH0 DUP5 ISZERO PUSH2 0x873 JUMPI DUP3 DUP8 ADD MLOAD SWAP1 POP JUMPDEST PUSH2 0x87D DUP6 DUP3 PUSH2 0x802 JUMP JUMPDEST DUP7 SSTORE POP PUSH2 0x8E4 JUMP JUMPDEST PUSH1 0x1F NOT DUP5 AND PUSH2 0x893 DUP7 PUSH2 0x680 JUMP JUMPDEST PUSH0 JUMPDEST DUP3 DUP2 LT ISZERO PUSH2 0x8BA JUMPI DUP5 DUP10 ADD MLOAD DUP3 SSTORE PUSH1 0x1 DUP3 ADD SWAP2 POP PUSH1 0x20 DUP6 ADD SWAP5 POP PUSH1 0x20 DUP2 ADD SWAP1 POP PUSH2 0x895 JUMP JUMPDEST DUP7 DUP4 LT ISZERO PUSH2 0x8D7 JUMPI DUP5 DUP10 ADD MLOAD PUSH2 0x8D3 PUSH1 0x1F DUP10 AND DUP3 PUSH2 0x7E6 JUMP JUMPDEST DUP4 SSTORE POP JUMPDEST PUSH1 0x1 PUSH1 0x2 DUP9 MUL ADD DUP9 SSTORE POP POP POP JUMPDEST POP POP POP POP POP POP JUMP INVALID LOG2 PUSH5 0x6970667358 0x22 SLT KECCAK256 SSTORE 0xB2 PUSH22 0x8FE8E432F42B01C71EF0851A4B3D9A83B24928E4AB94 0xD2 SLOAD SAR PUSH24 0x99CF8164736F6C6343000816003300000000000000000000 "
				},
				"gasEstimates": {
					"creation": {
						"codeDepositCost": "467600",
						"executionCost": "503",
						"totalCost": "468103"
					},
					"external": {
						"insertData(uint256,string,uint256,bool)": "infinite",
						"nameAccess(uint256)": "infinite",
						"s(uint256)": "infinite"
					}
				},
				"methodIdentifiers": {
					"insertData(uint256,string,uint256,bool)": "3188b173",
					"nameAccess(uint256)": "aaa97d08",
					"s(uint256)": "52efd685"
				}
			},
			"storageLayout": {
				"storage": [
					{
						"astId": 13,
						"contract": "Solidity Advance/6structArray.sol:demo",
						"label": "s",
						"offset": 0,
						"slot": "0",
						"type": "t_array(t_struct(Student)8_storage)3_storage"
					}
				],
				"types": {
					"t_array(t_struct(Student)8_storage)3_storage": {
						"base": "t_struct(Student)8_storage",
						"encoding": "inplace",
						"label": "struct demo.Student[3]",
						"numberOfBytes": "288"
					},
					"t_bool": {
						"encoding": "inplace",
						"label": "bool",
						"numberOfBytes": "1"
					},
					"t_string_storage": {
						"encoding": "bytes",
						"label": "string",
						"numberOfBytes": "32"
					},
					"t_struct(Student)8_storage": {
						"encoding": "inplace",
						"label": "struct demo.Student",
						"members": [
							{
								"astId": 3,
								"contract": "Solidity Advance/6structArray.sol:demo",
								"label": "name",
								"offset": 0,
								"slot": "0",
								"type": "t_string_storage"
							},
							{
								"astId": 5,
								"contract": "Solidity Advance/6structArray.sol:demo",
								"label": "roll",
								"offset": 0,
								"slot": "1",
								"type": "t_uint256"
							},
							{
								"astId": 7,
								"contract": "Solidity Advance/6structArray.sol:demo",
								"label": "pass",
								"offset": 0,
								"slot": "2",
								"type": "t_bool"
							}
						],
						"numberOfBytes": "96"
					},
					"t_uint256": {
						"encoding": "inplace",
						"label": "uint256",
						"numberOfBytes": "32"
					}
				}
			},
			"userdoc": {
				"kind": "user",
				"methods": {},
				"version": 1
			}
		}
	}
}