{
	"data": {
		"bytecode": {
			"linkReferences": {},
			"object": "608060405234801561000f575f80fd5b506102a78061001d5f395ff3fe608060405234801561000f575f80fd5b5060043610610055575f3560e01c806345880b5b1461005957806358d2229c14610063578063853255cc1461006d5780639354d9531461008b578063c4101af814610095575b5f80fd5b61006161009f565b005b61006b6100e8565b005b610075610131565b60405161008291906101e0565b60405180910390f35b610093610136565b005b61009d61017f565b005b5f151560011515146100e6576040517f08c379a00000000000000000000000000000000000000000000000000000000081526004016100dd90610253565b60405180910390fd5b565b5f1515600115151461012f576040517f08c379a000000000000000000000000000000000000000000000000000000000815260040161012690610253565b60405180910390fd5b565b5f5481565b5f1515600115151461017d576040517f08c379a000000000000000000000000000000000000000000000000000000000815260040161017490610253565b60405180910390fd5b565b5f151560011515146101c6576040517f08c379a00000000000000000000000000000000000000000000000000000000081526004016101bd90610253565b60405180910390fd5b565b5f819050919050565b6101da816101c8565b82525050565b5f6020820190506101f35f8301846101d1565b92915050565b5f82825260208201905092915050565b7f6e6f74207a65726f0000000000000000000000000000000000000000000000005f82015250565b5f61023d6008836101f9565b915061024882610209565b602082019050919050565b5f6020820190508181035f83015261026a81610231565b905091905056fea2646970667358221220fb0789fb737f603974c606a24eef8b24a093fe133b1c48c1300b6314352a000b64736f6c63430008160033",
			"opcodes": "PUSH1 0x80 PUSH1 0x40 MSTORE CALLVALUE DUP1 ISZERO PUSH2 0xF JUMPI PUSH0 DUP1 REVERT JUMPDEST POP PUSH2 0x2A7 DUP1 PUSH2 0x1D PUSH0 CODECOPY PUSH0 RETURN INVALID PUSH1 0x80 PUSH1 0x40 MSTORE CALLVALUE DUP1 ISZERO PUSH2 0xF JUMPI PUSH0 DUP1 REVERT JUMPDEST POP PUSH1 0x4 CALLDATASIZE LT PUSH2 0x55 JUMPI PUSH0 CALLDATALOAD PUSH1 0xE0 SHR DUP1 PUSH4 0x45880B5B EQ PUSH2 0x59 JUMPI DUP1 PUSH4 0x58D2229C EQ PUSH2 0x63 JUMPI DUP1 PUSH4 0x853255CC EQ PUSH2 0x6D JUMPI DUP1 PUSH4 0x9354D953 EQ PUSH2 0x8B JUMPI DUP1 PUSH4 0xC4101AF8 EQ PUSH2 0x95 JUMPI JUMPDEST PUSH0 DUP1 REVERT JUMPDEST PUSH2 0x61 PUSH2 0x9F JUMP JUMPDEST STOP JUMPDEST PUSH2 0x6B PUSH2 0xE8 JUMP JUMPDEST STOP JUMPDEST PUSH2 0x75 PUSH2 0x131 JUMP JUMPDEST PUSH1 0x40 MLOAD PUSH2 0x82 SWAP2 SWAP1 PUSH2 0x1E0 JUMP JUMPDEST PUSH1 0x40 MLOAD DUP1 SWAP2 SUB SWAP1 RETURN JUMPDEST PUSH2 0x93 PUSH2 0x136 JUMP JUMPDEST STOP JUMPDEST PUSH2 0x9D PUSH2 0x17F JUMP JUMPDEST STOP JUMPDEST PUSH0 ISZERO ISZERO PUSH1 0x1 ISZERO ISZERO EQ PUSH2 0xE6 JUMPI PUSH1 0x40 MLOAD PUSH32 0x8C379A000000000000000000000000000000000000000000000000000000000 DUP2 MSTORE PUSH1 0x4 ADD PUSH2 0xDD SWAP1 PUSH2 0x253 JUMP JUMPDEST PUSH1 0x40 MLOAD DUP1 SWAP2 SUB SWAP1 REVERT JUMPDEST JUMP JUMPDEST PUSH0 ISZERO ISZERO PUSH1 0x1 ISZERO ISZERO EQ PUSH2 0x12F JUMPI PUSH1 0x40 MLOAD PUSH32 0x8C379A000000000000000000000000000000000000000000000000000000000 DUP2 MSTORE PUSH1 0x4 ADD PUSH2 0x126 SWAP1 PUSH2 0x253 JUMP JUMPDEST PUSH1 0x40 MLOAD DUP1 SWAP2 SUB SWAP1 REVERT JUMPDEST JUMP JUMPDEST PUSH0 SLOAD DUP2 JUMP JUMPDEST PUSH0 ISZERO ISZERO PUSH1 0x1 ISZERO ISZERO EQ PUSH2 0x17D JUMPI PUSH1 0x40 MLOAD PUSH32 0x8C379A000000000000000000000000000000000000000000000000000000000 DUP2 MSTORE PUSH1 0x4 ADD PUSH2 0x174 SWAP1 PUSH2 0x253 JUMP JUMPDEST PUSH1 0x40 MLOAD DUP1 SWAP2 SUB SWAP1 REVERT JUMPDEST JUMP JUMPDEST PUSH0 ISZERO ISZERO PUSH1 0x1 ISZERO ISZERO EQ PUSH2 0x1C6 JUMPI PUSH1 0x40 MLOAD PUSH32 0x8C379A000000000000000000000000000000000000000000000000000000000 DUP2 MSTORE PUSH1 0x4 ADD PUSH2 0x1BD SWAP1 PUSH2 0x253 JUMP JUMPDEST PUSH1 0x40 MLOAD DUP1 SWAP2 SUB SWAP1 REVERT JUMPDEST JUMP JUMPDEST PUSH0 DUP2 SWAP1 POP SWAP2 SWAP1 POP JUMP JUMPDEST PUSH2 0x1DA DUP2 PUSH2 0x1C8 JUMP JUMPDEST DUP3 MSTORE POP POP JUMP JUMPDEST PUSH0 PUSH1 0x20 DUP3 ADD SWAP1 POP PUSH2 0x1F3 PUSH0 DUP4 ADD DUP5 PUSH2 0x1D1 JUMP JUMPDEST SWAP3 SWAP2 POP POP JUMP JUMPDEST PUSH0 DUP3 DUP3 MSTORE PUSH1 0x20 DUP3 ADD SWAP1 POP SWAP3 SWAP2 POP POP JUMP JUMPDEST PUSH32 0x6E6F74207A65726F000000000000000000000000000000000000000000000000 PUSH0 DUP3 ADD MSTORE POP JUMP JUMPDEST PUSH0 PUSH2 0x23D PUSH1 0x8 DUP4 PUSH2 0x1F9 JUMP JUMPDEST SWAP2 POP PUSH2 0x248 DUP3 PUSH2 0x209 JUMP JUMPDEST PUSH1 0x20 DUP3 ADD SWAP1 POP SWAP2 SWAP1 POP JUMP JUMPDEST PUSH0 PUSH1 0x20 DUP3 ADD SWAP1 POP DUP2 DUP2 SUB PUSH0 DUP4 ADD MSTORE PUSH2 0x26A DUP2 PUSH2 0x231 JUMP JUMPDEST SWAP1 POP SWAP2 SWAP1 POP JUMP INVALID LOG2 PUSH5 0x6970667358 0x22 SLT KECCAK256 0xFB SMOD DUP10 0xFB PUSH20 0x7F603974C606A24EEF8B24A093FE133B1C48C130 SIGNEXTEND PUSH4 0x14352A00 SIGNEXTEND PUSH5 0x736F6C6343 STOP ADDMOD AND STOP CALLER "
		},
		"gasEstimates": {
			"creation": {
				"codeDepositCost": "135800",
				"executionCost": "181",
				"totalCost": "135981"
			},
			"external": {
				"isZero1()": "527",
				"isZero2()": "505",
				"isZero3()": "461",
				"isZero4()": "439",
				"sum()": "2446"
			}
		},
		"methodIdentifiers": {
			"isZero1()": "c4101af8",
			"isZero2()": "9354d953",
			"isZero3()": "58d2229c",
			"isZero4()": "45880b5b",
			"sum()": "853255cc"
		}
	},
	"abi": [
		{
			"inputs": [],
			"name": "isZero1",
			"outputs": [],
			"stateMutability": "nonpayable",
			"type": "function"
		},
		{
			"inputs": [],
			"name": "isZero2",
			"outputs": [],
			"stateMutability": "nonpayable",
			"type": "function"
		},
		{
			"inputs": [],
			"name": "isZero3",
			"outputs": [],
			"stateMutability": "nonpayable",
			"type": "function"
		},
		{
			"inputs": [],
			"name": "isZero4",
			"outputs": [],
			"stateMutability": "nonpayable",
			"type": "function"
		},
		{
			"inputs": [],
			"name": "sum",
			"outputs": [
				{
					"internalType": "uint256",
					"name": "",
					"type": "uint256"
				}
			],
			"stateMutability": "view",
			"type": "function"
		}
	]
}