{
	"data": {
		"bytecode": {
			"linkReferences": {},
			"object": "608060405234801561000f575f80fd5b5061019e8061001d5f395ff3fe608060405234801561000f575f80fd5b5060043610610029575f3560e01c8063fbe3c6a01461002d575b5f80fd5b610047600480360381019061004291906100c5565b610049565b005b5f811461008b576040517f08c379a00000000000000000000000000000000000000000000000000000000081526004016100829061014a565b60405180910390fd5b50565b5f80fd5b5f819050919050565b6100a481610092565b81146100ae575f80fd5b50565b5f813590506100bf8161009b565b92915050565b5f602082840312156100da576100d961008e565b5b5f6100e7848285016100b1565b91505092915050565b5f82825260208201905092915050565b7f61206973206e6f74207a65726f000000000000000000000000000000000000005f82015250565b5f610134600d836100f0565b915061013f82610100565b602082019050919050565b5f6020820190508181035f83015261016181610128565b905091905056fea2646970667358221220b9a6b517dd6db3b62fe9c308c2b64028b3a7557666df9f2faa04e5892f9fbc8764736f6c63430008160033",
			"opcodes": "PUSH1 0x80 PUSH1 0x40 MSTORE CALLVALUE DUP1 ISZERO PUSH2 0xF JUMPI PUSH0 DUP1 REVERT JUMPDEST POP PUSH2 0x19E DUP1 PUSH2 0x1D PUSH0 CODECOPY PUSH0 RETURN INVALID PUSH1 0x80 PUSH1 0x40 MSTORE CALLVALUE DUP1 ISZERO PUSH2 0xF JUMPI PUSH0 DUP1 REVERT JUMPDEST POP PUSH1 0x4 CALLDATASIZE LT PUSH2 0x29 JUMPI PUSH0 CALLDATALOAD PUSH1 0xE0 SHR DUP1 PUSH4 0xFBE3C6A0 EQ PUSH2 0x2D JUMPI JUMPDEST PUSH0 DUP1 REVERT JUMPDEST PUSH2 0x47 PUSH1 0x4 DUP1 CALLDATASIZE SUB DUP2 ADD SWAP1 PUSH2 0x42 SWAP2 SWAP1 PUSH2 0xC5 JUMP JUMPDEST PUSH2 0x49 JUMP JUMPDEST STOP JUMPDEST PUSH0 DUP2 EQ PUSH2 0x8B JUMPI PUSH1 0x40 MLOAD PUSH32 0x8C379A000000000000000000000000000000000000000000000000000000000 DUP2 MSTORE PUSH1 0x4 ADD PUSH2 0x82 SWAP1 PUSH2 0x14A JUMP JUMPDEST PUSH1 0x40 MLOAD DUP1 SWAP2 SUB SWAP1 REVERT JUMPDEST POP JUMP JUMPDEST PUSH0 DUP1 REVERT JUMPDEST PUSH0 DUP2 SWAP1 POP SWAP2 SWAP1 POP JUMP JUMPDEST PUSH2 0xA4 DUP2 PUSH2 0x92 JUMP JUMPDEST DUP2 EQ PUSH2 0xAE JUMPI PUSH0 DUP1 REVERT JUMPDEST POP JUMP JUMPDEST PUSH0 DUP2 CALLDATALOAD SWAP1 POP PUSH2 0xBF DUP2 PUSH2 0x9B JUMP JUMPDEST SWAP3 SWAP2 POP POP JUMP JUMPDEST PUSH0 PUSH1 0x20 DUP3 DUP5 SUB SLT ISZERO PUSH2 0xDA JUMPI PUSH2 0xD9 PUSH2 0x8E JUMP JUMPDEST JUMPDEST PUSH0 PUSH2 0xE7 DUP5 DUP3 DUP6 ADD PUSH2 0xB1 JUMP JUMPDEST SWAP2 POP POP SWAP3 SWAP2 POP POP JUMP JUMPDEST PUSH0 DUP3 DUP3 MSTORE PUSH1 0x20 DUP3 ADD SWAP1 POP SWAP3 SWAP2 POP POP JUMP JUMPDEST PUSH32 0x61206973206E6F74207A65726F00000000000000000000000000000000000000 PUSH0 DUP3 ADD MSTORE POP JUMP JUMPDEST PUSH0 PUSH2 0x134 PUSH1 0xD DUP4 PUSH2 0xF0 JUMP JUMPDEST SWAP2 POP PUSH2 0x13F DUP3 PUSH2 0x100 JUMP JUMPDEST PUSH1 0x20 DUP3 ADD SWAP1 POP SWAP2 SWAP1 POP JUMP JUMPDEST PUSH0 PUSH1 0x20 DUP3 ADD SWAP1 POP DUP2 DUP2 SUB PUSH0 DUP4 ADD MSTORE PUSH2 0x161 DUP2 PUSH2 0x128 JUMP JUMPDEST SWAP1 POP SWAP2 SWAP1 POP JUMP INVALID LOG2 PUSH5 0x6970667358 0x22 SLT KECCAK256 0xB9 0xA6 0xB5 OR 0xDD PUSH14 0xB3B62FE9C308C2B64028B3A75576 PUSH7 0xDF9F2FAA04E589 0x2F SWAP16 0xBC DUP8 PUSH5 0x736F6C6343 STOP ADDMOD AND STOP CALLER "
		},
		"gasEstimates": {
			"creation": {
				"codeDepositCost": "82800",
				"executionCost": "127",
				"totalCost": "82927"
			},
			"external": {
				"iszero(uint256)": "683"
			}
		},
		"methodIdentifiers": {
			"iszero(uint256)": "fbe3c6a0"
		}
	},
	"abi": [
		{
			"inputs": [
				{
					"internalType": "uint256",
					"name": "a",
					"type": "uint256"
				}
			],
			"name": "iszero",
			"outputs": [],
			"stateMutability": "pure",
			"type": "function"
		}
	]
}